{
	"data": {
		"bytecode": {
			"linkReferences": {
				"libraries/TickMath.sol": {
					"TickMath": [
						{
							"length": 20,
							"start": 12081
						},
						{
							"length": 20,
							"start": 12242
						},
						{
							"length": 20,
							"start": 12403
						},
						{
							"length": 20,
							"start": 12538
						}
					]
				}
			},
			"object": "60a06040523480156200001157600080fd5b50604051620050d8380380620050d8833981810160405281019062000037919062000126565b826000806101000a81548173ffffffffffffffffffffffffffffffffffffffff021916908373ffffffffffffffffffffffffffffffffffffffff16021790555081600160006101000a81548173ffffffffffffffffffffffffffffffffffffffff021916908373ffffffffffffffffffffffffffffffffffffffff1602179055508073ffffffffffffffffffffffffffffffffffffffff1660808173ffffffffffffffffffffffffffffffffffffffff1660601b8152505050505062000203565b6000815190506200010981620001cf565b92915050565b6000815190506200012081620001e9565b92915050565b600080600060608486031215620001425762000141620001ca565b5b60006200015286828701620000f8565b93505060206200016586828701620000f8565b925050604062000178868287016200010f565b9150509250925092565b60006200018f82620001aa565b9050919050565b6000620001a38262000182565b9050919050565b600073ffffffffffffffffffffffffffffffffffffffff82169050919050565b600080fd5b620001da8162000182565b8114620001e657600080fd5b50565b620001f48162000196565b81146200020057600080fd5b50565b60805160601c614e936200024560003960008181611a4b0152818161263a015281816126fd015281816127b60152818161281101526128d50152614e936000f3fe608060405234801561001057600080fd5b50600436106100ea5760003560e01c806378e79c821161008c578063c584dd1711610066578063c584dd171461029e578063c73537c1146102d0578063d6ee8c8f14610303578063d7b6305614610333576100ea565b806378e79c821461021e578063b4840ad91461024e578063c31c9c0714610280576100ea565b80633d3225c4116100c85780633d3225c4146101825780633dd9aeaf146101b257806342966c68146101d05780636548ed46146101ec576100ea565b8063058d0fa0146100ef5780630b149afa1461011f5780633b4a2b2214610152575b600080fd5b61010960048036038101906101049190613ab2565b610363565b6040516101169190614773565b60405180910390f35b610139600480360381019061013491906134b0565b61059d565b6040516101499493929190614809565b60405180910390f35b61016c6004803603810190610167919061363e565b610b73565b6040516101799190614596565b60405180910390f35b61019c6004803603810190610197919061392e565b610eb5565b6040516101a99190614596565b60405180910390f35b6101ba6111c4565b6040516101c791906145d3565b60405180910390f35b6101ea60048036038101906101e59190613c66565b6111ea565b005b61020660048036038101906102019190613d27565b6112d7565b60405161021593929190614721565b60405180910390f35b610238600480360381019061023391906138a6565b6113a1565b6040516102459190614773565b60405180910390f35b6102686004803603810190610263919061381e565b61167d565b60405161027793929190614721565b60405180910390f35b610288611a49565b60405161029591906145b8565b60405180910390f35b6102b860048036038101906102b3919061376f565b611a6d565b6040516102c793929190614721565b60405180910390f35b6102ea60048036038101906102e5919061356f565b611f61565b6040516102fa9493929190614809565b60405180910390f35b61031d600480360381019061031891906135c3565b61209d565b60405161032a919061429e565b60405180910390f35b61034d60048036038101906103489190613a2a565b612214565b60405161035a9190614773565b60405180910390f35b600080600160009054906101000a900473ffffffffffffffffffffffffffffffffffffffff1673ffffffffffffffffffffffffffffffffffffffff1663940f1f69866040518263ffffffff1660e01b81526004016103c1919061429e565b60206040518083038186803b1580156103d957600080fd5b505afa1580156103ed573d6000803e3d6000fd5b505050506040513d601f19601f820116820180604052508101906104119190613483565b905060008888905090506104288188878588612626565b925060008060009054906101000a900473ffffffffffffffffffffffffffffffffffffffff1673ffffffffffffffffffffffffffffffffffffffff16633fa1e0c884886040518363ffffffff1660e01b81526004016104889291906142b9565b60206040518083038186803b1580156104a057600080fd5b505afa1580156104b4573d6000803e3d6000fd5b505050506040513d601f19601f820116820180604052508101906104d89190613483565b9050600160009054906101000a900473ffffffffffffffffffffffffffffffffffffffff1673ffffffffffffffffffffffffffffffffffffffff166316dcd77788838d8d336040518663ffffffff1660e01b815260040161053d959493929190614330565b602060405180830381600087803b15801561055757600080fd5b505af115801561056b573d6000803e3d6000fd5b505050506040513d601f19601f8201168201806040525081019061058f9190613c93565b505050509695505050505050565b600080600080600087111561083e57600160009054906101000a900473ffffffffffffffffffffffffffffffffffffffff1673ffffffffffffffffffffffffffffffffffffffff16633da2ac5d8c8989336040518563ffffffff1660e01b815260040161060d9493929190614551565b602060405180830381600087803b15801561062757600080fd5b505af115801561063b573d6000803e3d6000fd5b505050506040513d601f19601f8201168201806040525081019061065f9190613483565b50600160009054906101000a900473ffffffffffffffffffffffffffffffffffffffff1673ffffffffffffffffffffffffffffffffffffffff1663a33bbd578c896040518363ffffffff1660e01b81526004016106bd929190614528565b60206040518083038186803b1580156106d557600080fd5b505afa1580156106e9573d6000803e3d6000fd5b505050506040513d601f19601f8201168201806040525081019061070d9190613483565b856000019073ffffffffffffffffffffffffffffffffffffffff16908173ffffffffffffffffffffffffffffffffffffffff168152505089856020019073ffffffffffffffffffffffffffffffffffffffff16908173ffffffffffffffffffffffffffffffffffffffff168152505060008054906101000a900473ffffffffffffffffffffffffffffffffffffffff1673ffffffffffffffffffffffffffffffffffffffff1663342c423933876040518363ffffffff1660e01b81526004016107d79291906144fe565b608060405180830381600087803b1580156107f157600080fd5b505af1158015610805573d6000803e3d6000fd5b505050506040513d601f19601f820116820180604052508101906108299190613cc0565b80945081955082965083975050505050610b65565b600160009054906101000a900473ffffffffffffffffffffffffffffffffffffffff1673ffffffffffffffffffffffffffffffffffffffff1663a2ccb299338d8b8d8a606001518b608001516040518763ffffffff1660e01b81526004016108ab969594939291906143e8565b602060405180830381600087803b1580156108c557600080fd5b505af11580156108d9573d6000803e3d6000fd5b505050506040513d601f19601f820116820180604052508101906108fd9190613c93565b50600160009054906101000a900473ffffffffffffffffffffffffffffffffffffffff1673ffffffffffffffffffffffffffffffffffffffff1663940f1f698c6040518263ffffffff1660e01b8152600401610959919061429e565b60206040518083038186803b15801561097157600080fd5b505afa158015610985573d6000803e3d6000fd5b505050506040513d601f19601f820116820180604052508101906109a99190613483565b856000019073ffffffffffffffffffffffffffffffffffffffff16908173ffffffffffffffffffffffffffffffffffffffff168152505089856020019073ffffffffffffffffffffffffffffffffffffffff16908173ffffffffffffffffffffffffffffffffffffffff168152505060008054906101000a900473ffffffffffffffffffffffffffffffffffffffff1673ffffffffffffffffffffffffffffffffffffffff1663342c423933876040518363ffffffff1660e01b8152600401610a739291906144fe565b608060405180830381600087803b158015610a8d57600080fd5b505af1158015610aa1573d6000803e3d6000fd5b505050506040513d601f19601f82011682018060405250810190610ac59190613cc0565b8094508195508296508397505050505060005b8851811015610b635784600260008c73ffffffffffffffffffffffffffffffffffffffff1673ffffffffffffffffffffffffffffffffffffffff16815260200190815260200160002060008b8481518110610b3657610b35614be5565b5b60200260200101518152602001908152602001600020819055508080610b5b90614b3e565b915050610ad8565b505b975097509750979350505050565b60608a8a905087879050148015610b8f57508484905089899050145b610bce576040517f08c379a0000000000000000000000000000000000000000000000000000000008152600401610bc590614629565b60405180910390fd5b8888905087879050148015610be85750828290508b8b9050145b610c27576040517f08c379a0000000000000000000000000000000000000000000000000000000008152600401610c1e90614629565b60405180910390fd5b60005b87879050811015610ea5576000600160009054906101000a900473ffffffffffffffffffffffffffffffffffffffff1673ffffffffffffffffffffffffffffffffffffffff1663a33bbd578f8b8b86818110610c8957610c88614be5565b5b905060200201356040518363ffffffff1660e01b8152600401610cad929190614528565b60206040518083038186803b158015610cc557600080fd5b505afa158015610cd9573d6000803e3d6000fd5b505050506040513d601f19601f82011682018060405250810190610cfd9190613483565b9050610d8c878784818110610d1557610d14614be5565b5b905060200201358e8e85818110610d2f57610d2e614be5565b5b905060200201358d8d86818110610d4957610d48614be5565b5b9050602002016020810190610d5e9190613456565b84898988818110610d7257610d71614be5565b5b9050602002016020810190610d879190613c39565b612626565b838381518110610d9f57610d9e614be5565b5b602002602001018181525050600160009054906101000a900473ffffffffffffffffffffffffffffffffffffffff1673ffffffffffffffffffffffffffffffffffffffff1663ea894cb58f8b8b86818110610dfd57610dfc614be5565b5b905060200201358a8a87818110610e1757610e16614be5565b5b90506020020135336040518563ffffffff1660e01b8152600401610e3e9493929190614551565b602060405180830381600087803b158015610e5857600080fd5b505af1158015610e6c573d6000803e3d6000fd5b505050506040513d601f19601f82011682018060405250810190610e909190613483565b50508080610e9d90614b3e565b915050610c2a565b509b9a5050505050505050505050565b6060868690508a8a9050148015610ed157508484905083839050145b610f10576040517f08c379a0000000000000000000000000000000000000000000000000000000008152600401610f0790614629565b60405180910390fd5b828290508a8a905014610f58576040517f08c379a0000000000000000000000000000000000000000000000000000000008152600401610f4f90614629565b60405180910390fd5b60005b8a8a90508110156111b657600160009054906101000a900473ffffffffffffffffffffffffffffffffffffffff1673ffffffffffffffffffffffffffffffffffffffff16633da2ac5d8a8d8d85818110610fb857610fb7614be5565b5b90506020020135878786818110610fd257610fd1614be5565b5b90506020020135336040518563ffffffff1660e01b8152600401610ff99493929190614551565b602060405180830381600087803b15801561101357600080fd5b505af1158015611027573d6000803e3d6000fd5b505050506040513d601f19601f8201168201806040525081019061104b9190613483565b5061118484848381811061106257611061614be5565b5b90506020020135600160009054906101000a900473ffffffffffffffffffffffffffffffffffffffff1673ffffffffffffffffffffffffffffffffffffffff1663a33bbd578c8f8f878181106110bb576110ba614be5565b5b905060200201356040518363ffffffff1660e01b81526004016110df929190614528565b60206040518083038186803b1580156110f757600080fd5b505afa15801561110b573d6000803e3d6000fd5b505050506040513d601f19601f8201168201806040525081019061112f9190613483565b8a8a8581811061114257611141614be5565b5b90506020020160208101906111579190613456565b89898681811061116a57611169614be5565b5b905060200201602081019061117f9190613c39565b6127fd565b82828151811061119757611196614be5565b5b60200260200101818152505080806111ae90614b3e565b915050610f5b565b509998505050505050505050565b600160009054906101000a900473ffffffffffffffffffffffffffffffffffffffff1681565b60008054906101000a900473ffffffffffffffffffffffffffffffffffffffff1673ffffffffffffffffffffffffffffffffffffffff166342966c68826040518263ffffffff1660e01b81526004016112439190614773565b602060405180830381600087803b15801561125d57600080fd5b505af1158015611271573d6000803e3d6000fd5b505050506040513d601f19601f820116820180604052508101906112959190613b4c565b6112d4576040517f08c379a00000000000000000000000000000000000000000000000000000000081526004016112cb90614649565b60405180910390fd5b50565b60008060008060009054906101000a900473ffffffffffffffffffffffffffffffffffffffff1673ffffffffffffffffffffffffffffffffffffffff1663617d6d6e8588886040518463ffffffff1660e01b815260040161133a9392919061484e565b606060405180830381600087803b15801561135457600080fd5b505af1158015611368573d6000803e3d6000fd5b505050506040513d601f19601f8201168201806040525081019061138c9190613bb9565b80935081945082955050505093509350939050565b60008086869050905060008060009054906101000a900473ffffffffffffffffffffffffffffffffffffffff1673ffffffffffffffffffffffffffffffffffffffff16633fa1e0c8600160009054906101000a900473ffffffffffffffffffffffffffffffffffffffff1673ffffffffffffffffffffffffffffffffffffffff1663940f1f69896040518263ffffffff1660e01b8152600401611444919061429e565b60206040518083038186803b15801561145c57600080fd5b505afa158015611470573d6000803e3d6000fd5b505050506040513d601f19601f820116820180604052508101906114949190613483565b876040518363ffffffff1660e01b81526004016114b29291906142b9565b60206040518083038186803b1580156114ca57600080fd5b505afa1580156114de573d6000803e3d6000fd5b505050506040513d601f19601f820116820180604052508101906115029190613483565b9050600160009054906101000a900473ffffffffffffffffffffffffffffffffffffffff1673ffffffffffffffffffffffffffffffffffffffff1663c77841233388848c8c6040518663ffffffff1660e01b81526004016115679594939291906142e2565b602060405180830381600087803b15801561158157600080fd5b505af1158015611595573d6000803e3d6000fd5b505050506040513d601f19601f820116820180604052508101906115b99190613c93565b5061167082600160009054906101000a900473ffffffffffffffffffffffffffffffffffffffff1673ffffffffffffffffffffffffffffffffffffffff1663940f1f69896040518263ffffffff1660e01b8152600401611619919061429e565b60206040518083038186803b15801561163157600080fd5b505afa158015611645573d6000803e3d6000fd5b505050506040513d601f19601f820116820180604052508101906116699190613483565b87876127fd565b9250505095945050505050565b60008060008085859050141561174b5760008054906101000a900473ffffffffffffffffffffffffffffffffffffffff1673ffffffffffffffffffffffffffffffffffffffff166399d7b59488886040518363ffffffff1660e01b81526004016116e89291906147e0565b606060405180830381600087803b15801561170257600080fd5b505af1158015611716573d6000803e3d6000fd5b505050506040513d601f19601f8201168201806040525081019061173a9190613bb9565b809350819450829550505050611a3e565b60008054906101000a900473ffffffffffffffffffffffffffffffffffffffff1673ffffffffffffffffffffffffffffffffffffffff166399d7b59488886040518363ffffffff1660e01b81526004016117a69291906147e0565b606060405180830381600087803b1580156117c057600080fd5b505af11580156117d4573d6000803e3d6000fd5b505050506040513d601f19601f820116820180604052508101906117f89190613bb9565b809350819450829550505050818585905010611849576040517f08c379a000000000000000000000000000000000000000000000000000000000815260040161184090614689565b60405180910390fd5b60008060009054906101000a900473ffffffffffffffffffffffffffffffffffffffff1673ffffffffffffffffffffffffffffffffffffffff16632f380b35896040518263ffffffff1660e01b81526004016118a59190614773565b60206040518083038186803b1580156118bd57600080fd5b505afa1580156118d1573d6000803e3d6000fd5b505050506040513d601f19601f820116820180604052508101906118f59190613483565b9050600160009054906101000a900473ffffffffffffffffffffffffffffffffffffffff1673ffffffffffffffffffffffffffffffffffffffff1663d3daf0528a838989336040518663ffffffff1660e01b815260040161195a959493929190614330565b602060405180830381600087803b15801561197457600080fd5b505af1158015611988573d6000803e3d6000fd5b505050506040513d601f19601f820116820180604052508101906119ac9190613c93565b5060005b86869050811015611a3b57600260008373ffffffffffffffffffffffffffffffffffffffff1673ffffffffffffffffffffffffffffffffffffffff1681526020019081526020016000206000888884818110611a0f57611a0e614be5565b5b905060200201358152602001908152602001600020600090558080611a3390614b3e565b9150506119b0565b50505b955095509592505050565b7f000000000000000000000000000000000000000000000000000000000000000081565b600080600080861115611bee57600160009054906101000a900473ffffffffffffffffffffffffffffffffffffffff1673ffffffffffffffffffffffffffffffffffffffff16633da2ac5d8b8888336040518563ffffffff1660e01b8152600401611adb9493929190614551565b602060405180830381600087803b158015611af557600080fd5b505af1158015611b09573d6000803e3d6000fd5b505050506040513d601f19601f82011682018060405250810190611b2d9190613483565b5060008054906101000a900473ffffffffffffffffffffffffffffffffffffffff1673ffffffffffffffffffffffffffffffffffffffff1663617d6d6e8a87876040518463ffffffff1660e01b8152600401611b8b9392919061484e565b606060405180830381600087803b158015611ba557600080fd5b505af1158015611bb9573d6000803e3d6000fd5b505050506040513d601f19601f82011682018060405250810190611bdd9190613bb9565b809350819450829550505050611f54565b60008060008054906101000a900473ffffffffffffffffffffffffffffffffffffffff1673ffffffffffffffffffffffffffffffffffffffff1663519f50998c6040518263ffffffff1660e01b8152600401611c4a9190614773565b604080518083038186803b158015611c6157600080fd5b505afa158015611c75573d6000803e3d6000fd5b505050506040513d601f19601f82011682018060405250810190611c999190613b79565b9150915060008060009054906101000a900473ffffffffffffffffffffffffffffffffffffffff1673ffffffffffffffffffffffffffffffffffffffff16632f380b358d6040518263ffffffff1660e01b8152600401611cf99190614773565b60206040518083038186803b158015611d1157600080fd5b505afa158015611d25573d6000803e3d6000fd5b505050506040513d601f19601f82011682018060405250810190611d499190613483565b9050600160009054906101000a900473ffffffffffffffffffffffffffffffffffffffff1673ffffffffffffffffffffffffffffffffffffffff1663a2ccb299338f8e8e8689896040518863ffffffff1660e01b8152600401611db2979695949392919061437e565b602060405180830381600087803b158015611dcc57600080fd5b505af1158015611de0573d6000803e3d6000fd5b505050506040513d601f19601f82011682018060405250810190611e049190613c93565b5060008054906101000a900473ffffffffffffffffffffffffffffffffffffffff1673ffffffffffffffffffffffffffffffffffffffff1663617d6d6e8d8a8a6040518463ffffffff1660e01b8152600401611e629392919061484e565b606060405180830381600087803b158015611e7c57600080fd5b505af1158015611e90573d6000803e3d6000fd5b505050506040513d601f19601f82011682018060405250810190611eb49190613bb9565b80965081975082985050505060005b8b8b9050811015611f4f578c600260008473ffffffffffffffffffffffffffffffffffffffff1673ffffffffffffffffffffffffffffffffffffffff16815260200190815260200160002060008e8e85818110611f2357611f22614be5565b5b905060200201358152602001908152602001600020819055508080611f4790614b3e565b915050611ec3565b505050505b9750975097945050505050565b60008060008086856000019073ffffffffffffffffffffffffffffffffffffffff16908173ffffffffffffffffffffffffffffffffffffffff168152505085856020019073ffffffffffffffffffffffffffffffffffffffff16908173ffffffffffffffffffffffffffffffffffffffff168152505060008054906101000a900473ffffffffffffffffffffffffffffffffffffffff1673ffffffffffffffffffffffffffffffffffffffff1663342c423933876040518363ffffffff1660e01b81526004016120329291906144fe565b608060405180830381600087803b15801561204c57600080fd5b505af1158015612060573d6000803e3d6000fd5b505050506040513d601f19601f820116820180604052508101906120849190613cc0565b8094508195508296508397505050505093509350935093565b600080600160009054906101000a900473ffffffffffffffffffffffffffffffffffffffff1673ffffffffffffffffffffffffffffffffffffffff16630ecaea7388876040518363ffffffff1660e01b81526004016120fd929190614528565b602060405180830381600087803b15801561211757600080fd5b505af115801561212b573d6000803e3d6000fd5b505050506040513d601f19601f8201168201806040525081019061214f9190613483565b9050600086905060008054906101000a900473ffffffffffffffffffffffffffffffffffffffff1673ffffffffffffffffffffffffffffffffffffffff166313ead562838388886040518563ffffffff1660e01b81526004016121b59493929190614450565b602060405180830381600087803b1580156121cf57600080fd5b505af11580156121e3573d6000803e3d6000fd5b505050506040513d601f19601f820116820180604052508101906122079190613483565b9250505095945050505050565b60008060008054906101000a900473ffffffffffffffffffffffffffffffffffffffff1673ffffffffffffffffffffffffffffffffffffffff16633fa1e0c885856040518363ffffffff1660e01b81526004016122729291906142b9565b60206040518083038186803b15801561228a57600080fd5b505afa15801561229e573d6000803e3d6000fd5b505050506040513d601f19601f820116820180604052508101906122c29190613483565b9050600160009054906101000a900473ffffffffffffffffffffffffffffffffffffffff1673ffffffffffffffffffffffffffffffffffffffff1663d5674d628289896040518463ffffffff1660e01b8152600401612323939291906144cc565b60206040518083038186803b15801561233b57600080fd5b505afa15801561234f573d6000803e3d6000fd5b505050506040513d601f19601f820116820180604052508101906123739190613b4c565b6123b2576040517f08c379a00000000000000000000000000000000000000000000000000000000081526004016123a9906146a9565b60405180910390fd5b6123be83333088612989565b6123c9833087612ae1565b6000915060005b8787905081101561261b576000600260008473ffffffffffffffffffffffffffffffffffffffff1673ffffffffffffffffffffffffffffffffffffffff16815260200190815260200160002060008a8a8581811061243157612430614be5565b5b9050602002013581526020019081526020016000205490506000600160009054906101000a900473ffffffffffffffffffffffffffffffffffffffff1673ffffffffffffffffffffffffffffffffffffffff1663bb7a67c78b8b8681811061249c5761249b614be5565b5b90506020020135866040518363ffffffff1660e01b81526004016124c192919061478e565b60206040518083038186803b1580156124d957600080fd5b505afa1580156124ed573d6000803e3d6000fd5b505050506040513d601f19601f820116820180604052508101906125119190613483565b9050600061251e83612c36565b905061253f873084670de0b6b3a76400008561253a919061498c565b612989565b808661254b9190614936565b955060008054906101000a900473ffffffffffffffffffffffffffffffffffffffff1673ffffffffffffffffffffffffffffffffffffffff16636976950184670de0b6b3a76400006040518363ffffffff1660e01b81526004016125b09291906147b7565b606060405180830381600087803b1580156125ca57600080fd5b505af11580156125de573d6000803e3d6000fd5b505050506040513d601f19601f820116820180604052508101906126029190613bb9565b505050505050808061261390614b3e565b9150506123d0565b505095945050505050565b600061263484333088612989565b61265f847f000000000000000000000000000000000000000000000000000000000000000087612ae1565b60006040518061010001604052808673ffffffffffffffffffffffffffffffffffffffff1681526020018573ffffffffffffffffffffffffffffffffffffffff1681526020018462ffffff1681526020013373ffffffffffffffffffffffffffffffffffffffff168152602001428152602001888152602001878152602001600073ffffffffffffffffffffffffffffffffffffffff1681525090507f000000000000000000000000000000000000000000000000000000000000000073ffffffffffffffffffffffffffffffffffffffff1663db3e2198826040518263ffffffff1660e01b81526004016127549190614705565b602060405180830381600087803b15801561276e57600080fd5b505af1158015612782573d6000803e3d6000fd5b505050506040513d601f19601f820116820180604052508101906127a69190613c93565b9150858210156127f3576127dc857f00000000000000000000000000000000000000000000000000000000000000006000612ae1565b6127f2853384896127ed91906149bd565b612f59565b5b5095945050505050565b600061280b84333088612989565b612836847f000000000000000000000000000000000000000000000000000000000000000087612ae1565b60006040518061010001604052808673ffffffffffffffffffffffffffffffffffffffff1681526020018573ffffffffffffffffffffffffffffffffffffffff1681526020018462ffffff1681526020013373ffffffffffffffffffffffffffffffffffffffff16815260200142815260200187815260200160008152602001600073ffffffffffffffffffffffffffffffffffffffff1681525090507f000000000000000000000000000000000000000000000000000000000000000073ffffffffffffffffffffffffffffffffffffffff1663414bf389826040518263ffffffff1660e01b815260040161292c91906146e9565b602060405180830381600087803b15801561294657600080fd5b505af115801561295a573d6000803e3d6000fd5b505050506040513d601f19601f8201168201806040525081019061297e9190613c93565b915050949350505050565b6000808573ffffffffffffffffffffffffffffffffffffffff166323b872dd60e01b8686866040516024016129c093929190614495565b604051602081830303815290604052907bffffffffffffffffffffffffffffffffffffffffffffffffffffffff19166020820180517bffffffffffffffffffffffffffffffffffffffffffffffffffffffff8381831617835250505050604051612a2a9190614287565b6000604051808303816000865af19150503d8060008114612a67576040519150601f19603f3d011682016040523d82523d6000602084013e612a6c565b606091505b5091509150818015612a9a5750600081511480612a99575080806020019051810190612a989190613b4c565b5b5b612ad9576040517f08c379a0000000000000000000000000000000000000000000000000000000008152600401612ad0906146c9565b60405180910390fd5b505050505050565b6000808473ffffffffffffffffffffffffffffffffffffffff1663095ea7b360e01b8585604051602401612b16929190614528565b604051602081830303815290604052907bffffffffffffffffffffffffffffffffffffffffffffffffffffffff19166020820180517bffffffffffffffffffffffffffffffffffffffffffffffffffffffff8381831617835250505050604051612b809190614287565b6000604051808303816000865af19150503d8060008114612bbd576040519150601f19603f3d011682016040523d82523d6000602084013e612bc2565b606091505b5091509150818015612bf05750600081511480612bef575080806020019051810190612bee9190613b4c565b5b5b612c2f576040517f08c379a0000000000000000000000000000000000000000000000000000000008152600401612c2690614609565b60405180910390fd5b5050505050565b60008060008060009054906101000a900473ffffffffffffffffffffffffffffffffffffffff1673ffffffffffffffffffffffffffffffffffffffff1663519f5099856040518263ffffffff1660e01b8152600401612c959190614773565b604080518083038186803b158015612cac57600080fd5b505afa158015612cc0573d6000803e3d6000fd5b505050506040513d601f19601f82011682018060405250810190612ce49190613b79565b91509150600073__$e59ac5441f1a8f376d0930c8a0eb1fdb51$__63986cfba3846040518263ffffffff1660e01b8152600401612d2191906145ee565b60206040518083038186803b158015612d3957600080fd5b505af4158015612d4d573d6000803e3d6000fd5b505050506040513d601f19601f82011682018060405250810190612d719190613c0c565b73ffffffffffffffffffffffffffffffffffffffff169050600073__$e59ac5441f1a8f376d0930c8a0eb1fdb51$__63986cfba3846040518263ffffffff1660e01b8152600401612dc291906145ee565b60206040518083038186803b158015612dda57600080fd5b505af4158015612dee573d6000803e3d6000fd5b505050506040513d601f19601f82011682018060405250810190612e129190613c0c565b73ffffffffffffffffffffffffffffffffffffffff169050600273__$e59ac5441f1a8f376d0930c8a0eb1fdb51$__63e7572230836040518263ffffffff1660e01b8152600401612e639190614758565b60206040518083038186803b158015612e7b57600080fd5b505af4158015612e8f573d6000803e3d6000fd5b505050506040513d601f19601f82011682018060405250810190612eb39190613c93565b73__$e59ac5441f1a8f376d0930c8a0eb1fdb51$__63e7572230856040518263ffffffff1660e01b8152600401612eea9190614758565b60206040518083038186803b158015612f0257600080fd5b505af4158015612f16573d6000803e3d6000fd5b505050506040513d601f19601f82011682018060405250810190612f3a9190613c93565b612f449190614936565b612f4e919061498c565b945050505050919050565b6000808473ffffffffffffffffffffffffffffffffffffffff1663a9059cbb60e01b8585604051602401612f8e929190614528565b604051602081830303815290604052907bffffffffffffffffffffffffffffffffffffffffffffffffffffffff19166020820180517bffffffffffffffffffffffffffffffffffffffffffffffffffffffff8381831617835250505050604051612ff89190614287565b6000604051808303816000865af19150503d8060008114613035576040519150601f19603f3d011682016040523d82523d6000602084013e61303a565b606091505b509150915081801561306857506000815114806130675750808060200190518101906130669190613b4c565b5b5b6130a7576040517f08c379a000000000000000000000000000000000000000000000000000000000815260040161309e90614669565b60405180910390fd5b5050505050565b60006130c16130bc846148aa565b614885565b905080838252602082019050828560208602820111156130e4576130e3614c52565b5b60005b8581101561311457816130fa888261342c565b8452602084019350602083019250506001810190506130e7565b5050509392505050565b60008135905061312d81614dbc565b92915050565b60008151905061314281614dbc565b92915050565b60008083601f84011261315e5761315d614c48565b5b8235905067ffffffffffffffff81111561317b5761317a614c43565b5b60208301915083602082028301111561319757613196614c52565b5b9250929050565b60008083601f8401126131b4576131b3614c48565b5b8235905067ffffffffffffffff8111156131d1576131d0614c43565b5b6020830191508360208202830111156131ed576131ec614c52565b5b9250929050565b60008083601f84011261320a57613209614c48565b5b8235905067ffffffffffffffff81111561322757613226614c43565b5b60208301915083602082028301111561324357613242614c52565b5b9250929050565b600082601f83011261325f5761325e614c48565b5b813561326f8482602086016130ae565b91505092915050565b60008151905061328781614dd3565b92915050565b60008135905061329c81614dea565b92915050565b6000815190506132b181614dea565b92915050565b600061016082840312156132ce576132cd614c4d565b5b6132d9610160614885565b905060006132e98482850161311e565b60008301525060206132fd8482850161311e565b602083015250604061331184828501613417565b60408301525060606133258482850161328d565b60608301525060806133398482850161328d565b60808301525060a061334d8482850161342c565b60a08301525060c06133618482850161342c565b60c08301525060e06133758482850161342c565b60e08301525061010061338a8482850161342c565b610100830152506101206133a08482850161311e565b610120830152506101406133b68482850161342c565b6101408301525092915050565b6000813590506133d281614e01565b92915050565b6000815190506133e781614e01565b92915050565b6000813590506133fc81614e18565b92915050565b60008151905061341181614e18565b92915050565b60008135905061342681614e2f565b92915050565b60008135905061343b81614e46565b92915050565b60008151905061345081614e46565b92915050565b60006020828403121561346c5761346b614c61565b5b600061347a8482850161311e565b91505092915050565b60006020828403121561349957613498614c61565b5b60006134a784828501613133565b91505092915050565b6000806000806000806000610220888a0312156134d0576134cf614c61565b5b60006134de8a828b0161311e565b97505060206134ef8a828b0161311e565b96505060406135008a828b0161311e565b955050606088013567ffffffffffffffff81111561352157613520614c57565b5b61352d8a828b0161324a565b945050608061353e8a828b0161342c565b93505060a061354f8a828b0161342c565b92505060c06135608a828b016132b7565b91505092959891949750929550565b60008060006101a0848603121561358957613588614c61565b5b60006135978682870161311e565b93505060206135a88682870161311e565b92505060406135b9868287016132b7565b9150509250925092565b600080600080600060a086880312156135df576135de614c61565b5b60006135ed8882890161311e565b95505060206135fe8882890161311e565b945050604061360f8882890161342c565b935050606061362088828901613417565b9250506080613631888289016133ed565b9150509295509295909350565b600080600080600080600080600080600060c08c8e03121561366357613662614c61565b5b60006136718e828f0161311e565b9b505060208c013567ffffffffffffffff81111561369257613691614c57565b5b61369e8e828f016131f4565b9a509a505060408c013567ffffffffffffffff8111156136c1576136c0614c57565b5b6136cd8e828f01613148565b985098505060608c013567ffffffffffffffff8111156136f0576136ef614c57565b5b6136fc8e828f016131f4565b965096505060808c013567ffffffffffffffff81111561371f5761371e614c57565b5b61372b8e828f016131f4565b945094505060a08c013567ffffffffffffffff81111561374e5761374d614c57565b5b61375a8e828f0161319e565b92509250509295989b509295989b9093969950565b600080600080600080600060c0888a03121561378e5761378d614c61565b5b600061379c8a828b0161311e565b97505060206137ad8a828b0161342c565b965050604088013567ffffffffffffffff8111156137ce576137cd614c57565b5b6137da8a828b016131f4565b955095505060606137ed8a828b0161342c565b93505060806137fe8a828b0161342c565b92505060a061380f8a828b0161342c565b91505092959891949750929550565b60008060008060006080868803121561383a57613839614c61565b5b60006138488882890161311e565b95505060206138598882890161342c565b945050604061386a888289016133c3565b935050606086013567ffffffffffffffff81111561388b5761388a614c57565b5b613897888289016131f4565b92509250509295509295909350565b6000806000806000608086880312156138c2576138c1614c61565b5b600086013567ffffffffffffffff8111156138e0576138df614c57565b5b6138ec888289016131f4565b955095505060206138ff8882890161311e565b93505060406139108882890161311e565b925050606061392188828901613417565b9150509295509295909350565b600080600080600080600080600060a08a8c0312156139505761394f614c61565b5b60008a013567ffffffffffffffff81111561396e5761396d614c57565b5b61397a8c828d016131f4565b9950995050602061398d8c828d0161311e565b97505060408a013567ffffffffffffffff8111156139ae576139ad614c57565b5b6139ba8c828d01613148565b965096505060608a013567ffffffffffffffff8111156139dd576139dc614c57565b5b6139e98c828d0161319e565b945094505060808a013567ffffffffffffffff811115613a0c57613a0b614c57565b5b613a188c828d016131f4565b92509250509295985092959850929598565b600080600080600060808688031215613a4657613a45614c61565b5b600086013567ffffffffffffffff811115613a6457613a63614c57565b5b613a70888289016131f4565b95509550506020613a838882890161342c565b9350506040613a948882890161311e565b9250506060613aa58882890161311e565b9150509295509295909350565b60008060008060008060a08789031215613acf57613ace614c61565b5b600087013567ffffffffffffffff811115613aed57613aec614c57565b5b613af989828a016131f4565b96509650506020613b0c89828a0161342c565b9450506040613b1d89828a0161311e565b9350506060613b2e89828a0161311e565b9250506080613b3f89828a01613417565b9150509295509295509295565b600060208284031215613b6257613b61614c61565b5b6000613b7084828501613278565b91505092915050565b60008060408385031215613b9057613b8f614c61565b5b6000613b9e858286016132a2565b9250506020613baf858286016132a2565b9150509250929050565b600080600060608486031215613bd257613bd1614c61565b5b6000613be0868287016133d8565b9350506020613bf186828701613441565b9250506040613c0286828701613441565b9150509250925092565b600060208284031215613c2257613c21614c61565b5b6000613c3084828501613402565b91505092915050565b600060208284031215613c4f57613c4e614c61565b5b6000613c5d84828501613417565b91505092915050565b600060208284031215613c7c57613c7b614c61565b5b6000613c8a8482850161342c565b91505092915050565b600060208284031215613ca957613ca8614c61565b5b6000613cb784828501613441565b91505092915050565b60008060008060808587031215613cda57613cd9614c61565b5b6000613ce887828801613441565b9450506020613cf9878288016133d8565b9350506040613d0a87828801613441565b9250506060613d1b87828801613441565b91505092959194509250565b600080600060608486031215613d4057613d3f614c61565b5b6000613d4e8682870161342c565b9350506020613d5f8682870161342c565b9250506040613d708682870161342c565b9150509250925092565b6000613d86838361425a565b60208301905092915050565b613d9b816149f1565b82525050565b613daa816149f1565b82525050565b6000613dbc8385614909565b93507f07ffffffffffffffffffffffffffffffffffffffffffffffffffffffffffffff831115613def57613dee614c5c565b5b602083029250613e00838584614acb565b82840190509392505050565b6000613e17826148e6565b613e218185614909565b9350613e2c836148d6565b8060005b83811015613e5d578151613e448882613d7a565b9750613e4f836148fc565b925050600181019050613e30565b5085935050505092915050565b6000613e75826148f1565b613e7f818561491a565b9350613e8f818560208601614ada565b80840191505092915050565b613ea481614a71565b82525050565b613eb381614a83565b82525050565b613ec281614a0f565b82525050565b613ed181614a0f565b82525050565b613ee081614a0f565b82525050565b613eef81614a95565b82525050565b6000613f02600283614925565b9150613f0d82614c77565b602082019050919050565b6000613f25601183614925565b9150613f3082614ca0565b602082019050919050565b6000613f48601583614925565b9150613f5382614cc9565b602082019050919050565b6000613f6b600283614925565b9150613f7682614cf2565b602082019050919050565b6000613f8e601883614925565b9150613f9982614d1b565b602082019050919050565b6000613fb1602683614925565b9150613fbc82614d44565b604082019050919050565b6000613fd4600383614925565b9150613fdf82614d93565b602082019050919050565b610100820160008201516140016000850182613d92565b5060208201516140146020850182613d92565b506040820151614027604085018261423c565b50606082015161403a6060850182613d92565b50608082015161404d608085018261425a565b5060a082015161406060a085018261425a565b5060c082015161407360c085018261425a565b5060e082015161408660e085018261421e565b50505050565b610100820160008201516140a36000850182613d92565b5060208201516140b66020850182613d92565b5060408201516140c9604085018261423c565b5060608201516140dc6060850182613d92565b5060808201516140ef608085018261425a565b5060a082015161410260a085018261425a565b5060c082015161411560c085018261425a565b5060e082015161412860e085018261421e565b50505050565b610160820160008201516141456000850182613d92565b5060208201516141586020850182613d92565b50604082015161416b604085018261423c565b50606082015161417e6060850182613eb9565b5060808201516141916080850182613eb9565b5060a08201516141a460a085018261425a565b5060c08201516141b760c085018261425a565b5060e08201516141ca60e085018261425a565b506101008201516141df61010085018261425a565b506101208201516141f4610120850182613d92565b5061014082015161420961014085018261425a565b50505050565b61421881614a1c565b82525050565b61422781614a38565b82525050565b61423681614a38565b82525050565b61424581614a58565b82525050565b61425481614a58565b82525050565b61426381614a67565b82525050565b61427281614a67565b82525050565b61428181614a67565b82525050565b60006142938284613e6a565b915081905092915050565b60006020820190506142b36000830184613da1565b92915050565b60006040820190506142ce6000830185613da1565b6142db6020830184613da1565b9392505050565b60006080820190506142f76000830188613da1565b6143046020830187613da1565b6143116040830186613da1565b8181036060830152614324818486613db0565b90509695505050505050565b60006080820190506143456000830188613da1565b6143526020830187613da1565b8181036040830152614365818587613db0565b90506143746060830184613da1565b9695505050505050565b600060c082019050614393600083018a613da1565b6143a06020830189613da1565b81810360408301526143b3818789613db0565b90506143c26060830186613da1565b6143cf6080830185613ec8565b6143dc60a0830184613ec8565b98975050505050505050565b600060c0820190506143fd6000830189613da1565b61440a6020830188613da1565b818103604083015261441c8187613e0c565b905061442b6060830186613da1565b6144386080830185613ec8565b61444560a0830184613ec8565b979650505050505050565b60006080820190506144656000830187613da1565b6144726020830186613da1565b61447f604083018561424b565b61448c606083018461422d565b95945050505050565b60006060820190506144aa6000830186613da1565b6144b76020830185613da1565b6144c46040830184614269565b949350505050565b60006040820190506144e16000830186613da1565b81810360208301526144f4818486613db0565b9050949350505050565b6000610180820190506145146000830185613da1565b614521602083018461412e565b9392505050565b600060408201905061453d6000830185613da1565b61454a6020830184614269565b9392505050565b60006080820190506145666000830187613da1565b6145736020830186614269565b6145806040830185614269565b61458d6060830184613da1565b95945050505050565b600060208201905081810360008301526145b08184613e0c565b905092915050565b60006020820190506145cd6000830184613e9b565b92915050565b60006020820190506145e86000830184613eaa565b92915050565b60006020820190506146036000830184613ed7565b92915050565b6000602082019050818103600083015261462281613ef5565b9050919050565b6000602082019050818103600083015261464281613f18565b9050919050565b6000602082019050818103600083015261466281613f3b565b9050919050565b6000602082019050818103600083015261468281613f5e565b9050919050565b600060208201905081810360008301526146a281613f81565b9050919050565b600060208201905081810360008301526146c281613fa4565b9050919050565b600060208201905081810360008301526146e281613fc7565b9050919050565b6000610100820190506146ff6000830184613fea565b92915050565b60006101008201905061471b600083018461408c565b92915050565b6000606082019050614736600083018661420f565b6147436020830185614269565b6147506040830184614269565b949350505050565b600060208201905061476d6000830184614278565b92915050565b60006020820190506147886000830184614269565b92915050565b60006040820190506147a36000830185614269565b6147b06020830184613da1565b9392505050565b60006040820190506147cc6000830185614269565b6147d96020830184613ee6565b9392505050565b60006040820190506147f56000830185614269565b614802602083018461420f565b9392505050565b600060808201905061481e6000830187614269565b61482b602083018661420f565b6148386040830185614269565b6148456060830184614269565b95945050505050565b60006060820190506148636000830186614269565b6148706020830185614269565b61487d6040830184614269565b949350505050565b600061488f6148a0565b905061489b8282614b0d565b919050565b6000604051905090565b600067ffffffffffffffff8211156148c5576148c4614c14565b5b602082029050602081019050919050565b6000819050602082019050919050565b600081519050919050565b600081519050919050565b6000602082019050919050565b600082825260208201905092915050565b600081905092915050565b600082825260208201905092915050565b600061494182614a67565b915061494c83614a67565b9250827fffffffffffffffffffffffffffffffffffffffffffffffffffffffffffffffff0382111561498157614980614b87565b5b828201905092915050565b600061499782614a67565b91506149a283614a67565b9250826149b2576149b1614bb6565b5b828204905092915050565b60006149c882614a67565b91506149d383614a67565b9250828210156149e6576149e5614b87565b5b828203905092915050565b60006149fc82614a38565b9050919050565b60008115159050919050565b60008160020b9050919050565b60006fffffffffffffffffffffffffffffffff82169050919050565b600073ffffffffffffffffffffffffffffffffffffffff82169050919050565b600062ffffff82169050919050565b6000819050919050565b6000614a7c82614aa7565b9050919050565b6000614a8e82614aa7565b9050919050565b6000614aa082614a67565b9050919050565b6000614ab282614ab9565b9050919050565b6000614ac482614a38565b9050919050565b82818337600083830152505050565b60005b83811015614af8578082015181840152602081019050614add565b83811115614b07576000848401525b50505050565b614b1682614c66565b810181811067ffffffffffffffff82111715614b3557614b34614c14565b5b80604052505050565b6000614b4982614a67565b91507fffffffffffffffffffffffffffffffffffffffffffffffffffffffffffffffff821415614b7c57614b7b614b87565b5b600182019050919050565b7f4e487b7100000000000000000000000000000000000000000000000000000000600052601160045260246000fd5b7f4e487b7100000000000000000000000000000000000000000000000000000000600052601260045260246000fd5b7f4e487b7100000000000000000000000000000000000000000000000000000000600052603260045260246000fd5b7f4e487b7100000000000000000000000000000000000000000000000000000000600052604160045260246000fd5b600080fd5b600080fd5b600080fd5b600080fd5b600080fd5b600080fd5b600080fd5b6000601f19601f8301169050919050565b7f5341000000000000000000000000000000000000000000000000000000000000600082015250565b7f496e70757473206e6f74206d6174636821000000000000000000000000000000600082015250565b7f4275726e204c5020746f6b656e206661696c6564210000000000000000000000600082015250565b7f5354000000000000000000000000000000000000000000000000000000000000600082015250565b7f4f766572207468652061737365747320796f75206f776e210000000000000000600082015250565b7f43616e6e6f7420626520747261646564207468726f756768207468697320636f60008201527f6e64756974210000000000000000000000000000000000000000000000000000602082015250565b7f5354460000000000000000000000000000000000000000000000000000000000600082015250565b614dc5816149f1565b8114614dd057600080fd5b50565b614ddc81614a03565b8114614de757600080fd5b50565b614df381614a0f565b8114614dfe57600080fd5b50565b614e0a81614a1c565b8114614e1557600080fd5b50565b614e2181614a38565b8114614e2c57600080fd5b50565b614e3881614a58565b8114614e4357600080fd5b50565b614e4f81614a67565b8114614e5a57600080fd5b5056fea26469706673582212201c15c4d0cc24d303b782b4d997bcbdad51c004a00deacf62b4731ef127aba2fc64736f6c63430008070033",
			"opcodes": "PUSH1 0xA0 PUSH1 0x40 MSTORE CALLVALUE DUP1 ISZERO PUSH3 0x11 JUMPI PUSH1 0x0 DUP1 REVERT JUMPDEST POP PUSH1 0x40 MLOAD PUSH3 0x50D8 CODESIZE SUB DUP1 PUSH3 0x50D8 DUP4 CODECOPY DUP2 DUP2 ADD PUSH1 0x40 MSTORE DUP2 ADD SWAP1 PUSH3 0x37 SWAP2 SWAP1 PUSH3 0x126 JUMP JUMPDEST DUP3 PUSH1 0x0 DUP1 PUSH2 0x100 EXP DUP2 SLOAD DUP2 PUSH20 0xFFFFFFFFFFFFFFFFFFFFFFFFFFFFFFFFFFFFFFFF MUL NOT AND SWAP1 DUP4 PUSH20 0xFFFFFFFFFFFFFFFFFFFFFFFFFFFFFFFFFFFFFFFF AND MUL OR SWAP1 SSTORE POP DUP2 PUSH1 0x1 PUSH1 0x0 PUSH2 0x100 EXP DUP2 SLOAD DUP2 PUSH20 0xFFFFFFFFFFFFFFFFFFFFFFFFFFFFFFFFFFFFFFFF MUL NOT AND SWAP1 DUP4 PUSH20 0xFFFFFFFFFFFFFFFFFFFFFFFFFFFFFFFFFFFFFFFF AND MUL OR SWAP1 SSTORE POP DUP1 PUSH20 0xFFFFFFFFFFFFFFFFFFFFFFFFFFFFFFFFFFFFFFFF AND PUSH1 0x80 DUP2 PUSH20 0xFFFFFFFFFFFFFFFFFFFFFFFFFFFFFFFFFFFFFFFF AND PUSH1 0x60 SHL DUP2 MSTORE POP POP POP POP POP PUSH3 0x203 JUMP JUMPDEST PUSH1 0x0 DUP2 MLOAD SWAP1 POP PUSH3 0x109 DUP2 PUSH3 0x1CF JUMP JUMPDEST SWAP3 SWAP2 POP POP JUMP JUMPDEST PUSH1 0x0 DUP2 MLOAD SWAP1 POP PUSH3 0x120 DUP2 PUSH3 0x1E9 JUMP JUMPDEST SWAP3 SWAP2 POP POP JUMP JUMPDEST PUSH1 0x0 DUP1 PUSH1 0x0 PUSH1 0x60 DUP5 DUP7 SUB SLT ISZERO PUSH3 0x142 JUMPI PUSH3 0x141 PUSH3 0x1CA JUMP JUMPDEST JUMPDEST PUSH1 0x0 PUSH3 0x152 DUP7 DUP3 DUP8 ADD PUSH3 0xF8 JUMP JUMPDEST SWAP4 POP POP PUSH1 0x20 PUSH3 0x165 DUP7 DUP3 DUP8 ADD PUSH3 0xF8 JUMP JUMPDEST SWAP3 POP POP PUSH1 0x40 PUSH3 0x178 DUP7 DUP3 DUP8 ADD PUSH3 0x10F JUMP JUMPDEST SWAP2 POP POP SWAP3 POP SWAP3 POP SWAP3 JUMP JUMPDEST PUSH1 0x0 PUSH3 0x18F DUP3 PUSH3 0x1AA JUMP JUMPDEST SWAP1 POP SWAP2 SWAP1 POP JUMP JUMPDEST PUSH1 0x0 PUSH3 0x1A3 DUP3 PUSH3 0x182 JUMP JUMPDEST SWAP1 POP SWAP2 SWAP1 POP JUMP JUMPDEST PUSH1 0x0 PUSH20 0xFFFFFFFFFFFFFFFFFFFFFFFFFFFFFFFFFFFFFFFF DUP3 AND SWAP1 POP SWAP2 SWAP1 POP JUMP JUMPDEST PUSH1 0x0 DUP1 REVERT JUMPDEST PUSH3 0x1DA DUP2 PUSH3 0x182 JUMP JUMPDEST DUP2 EQ PUSH3 0x1E6 JUMPI PUSH1 0x0 DUP1 REVERT JUMPDEST POP JUMP JUMPDEST PUSH3 0x1F4 DUP2 PUSH3 0x196 JUMP JUMPDEST DUP2 EQ PUSH3 0x200 JUMPI PUSH1 0x0 DUP1 REVERT JUMPDEST POP JUMP JUMPDEST PUSH1 0x80 MLOAD PUSH1 0x60 SHR PUSH2 0x4E93 PUSH3 0x245 PUSH1 0x0 CODECOPY PUSH1 0x0 DUP2 DUP2 PUSH2 0x1A4B ADD MSTORE DUP2 DUP2 PUSH2 0x263A ADD MSTORE DUP2 DUP2 PUSH2 0x26FD ADD MSTORE DUP2 DUP2 PUSH2 0x27B6 ADD MSTORE DUP2 DUP2 PUSH2 0x2811 ADD MSTORE PUSH2 0x28D5 ADD MSTORE PUSH2 0x4E93 PUSH1 0x0 RETURN INVALID PUSH1 0x80 PUSH1 0x40 MSTORE CALLVALUE DUP1 ISZERO PUSH2 0x10 JUMPI PUSH1 0x0 DUP1 REVERT JUMPDEST POP PUSH1 0x4 CALLDATASIZE LT PUSH2 0xEA JUMPI PUSH1 0x0 CALLDATALOAD PUSH1 0xE0 SHR DUP1 PUSH4 0x78E79C82 GT PUSH2 0x8C JUMPI DUP1 PUSH4 0xC584DD17 GT PUSH2 0x66 JUMPI DUP1 PUSH4 0xC584DD17 EQ PUSH2 0x29E JUMPI DUP1 PUSH4 0xC73537C1 EQ PUSH2 0x2D0 JUMPI DUP1 PUSH4 0xD6EE8C8F EQ PUSH2 0x303 JUMPI DUP1 PUSH4 0xD7B63056 EQ PUSH2 0x333 JUMPI PUSH2 0xEA JUMP JUMPDEST DUP1 PUSH4 0x78E79C82 EQ PUSH2 0x21E JUMPI DUP1 PUSH4 0xB4840AD9 EQ PUSH2 0x24E JUMPI DUP1 PUSH4 0xC31C9C07 EQ PUSH2 0x280 JUMPI PUSH2 0xEA JUMP JUMPDEST DUP1 PUSH4 0x3D3225C4 GT PUSH2 0xC8 JUMPI DUP1 PUSH4 0x3D3225C4 EQ PUSH2 0x182 JUMPI DUP1 PUSH4 0x3DD9AEAF EQ PUSH2 0x1B2 JUMPI DUP1 PUSH4 0x42966C68 EQ PUSH2 0x1D0 JUMPI DUP1 PUSH4 0x6548ED46 EQ PUSH2 0x1EC JUMPI PUSH2 0xEA JUMP JUMPDEST DUP1 PUSH4 0x58D0FA0 EQ PUSH2 0xEF JUMPI DUP1 PUSH4 0xB149AFA EQ PUSH2 0x11F JUMPI DUP1 PUSH4 0x3B4A2B22 EQ PUSH2 0x152 JUMPI JUMPDEST PUSH1 0x0 DUP1 REVERT JUMPDEST PUSH2 0x109 PUSH1 0x4 DUP1 CALLDATASIZE SUB DUP2 ADD SWAP1 PUSH2 0x104 SWAP2 SWAP1 PUSH2 0x3AB2 JUMP JUMPDEST PUSH2 0x363 JUMP JUMPDEST PUSH1 0x40 MLOAD PUSH2 0x116 SWAP2 SWAP1 PUSH2 0x4773 JUMP JUMPDEST PUSH1 0x40 MLOAD DUP1 SWAP2 SUB SWAP1 RETURN JUMPDEST PUSH2 0x139 PUSH1 0x4 DUP1 CALLDATASIZE SUB DUP2 ADD SWAP1 PUSH2 0x134 SWAP2 SWAP1 PUSH2 0x34B0 JUMP JUMPDEST PUSH2 0x59D JUMP JUMPDEST PUSH1 0x40 MLOAD PUSH2 0x149 SWAP5 SWAP4 SWAP3 SWAP2 SWAP1 PUSH2 0x4809 JUMP JUMPDEST PUSH1 0x40 MLOAD DUP1 SWAP2 SUB SWAP1 RETURN JUMPDEST PUSH2 0x16C PUSH1 0x4 DUP1 CALLDATASIZE SUB DUP2 ADD SWAP1 PUSH2 0x167 SWAP2 SWAP1 PUSH2 0x363E JUMP JUMPDEST PUSH2 0xB73 JUMP JUMPDEST PUSH1 0x40 MLOAD PUSH2 0x179 SWAP2 SWAP1 PUSH2 0x4596 JUMP JUMPDEST PUSH1 0x40 MLOAD DUP1 SWAP2 SUB SWAP1 RETURN JUMPDEST PUSH2 0x19C PUSH1 0x4 DUP1 CALLDATASIZE SUB DUP2 ADD SWAP1 PUSH2 0x197 SWAP2 SWAP1 PUSH2 0x392E JUMP JUMPDEST PUSH2 0xEB5 JUMP JUMPDEST PUSH1 0x40 MLOAD PUSH2 0x1A9 SWAP2 SWAP1 PUSH2 0x4596 JUMP JUMPDEST PUSH1 0x40 MLOAD DUP1 SWAP2 SUB SWAP1 RETURN JUMPDEST PUSH2 0x1BA PUSH2 0x11C4 JUMP JUMPDEST PUSH1 0x40 MLOAD PUSH2 0x1C7 SWAP2 SWAP1 PUSH2 0x45D3 JUMP JUMPDEST PUSH1 0x40 MLOAD DUP1 SWAP2 SUB SWAP1 RETURN JUMPDEST PUSH2 0x1EA PUSH1 0x4 DUP1 CALLDATASIZE SUB DUP2 ADD SWAP1 PUSH2 0x1E5 SWAP2 SWAP1 PUSH2 0x3C66 JUMP JUMPDEST PUSH2 0x11EA JUMP JUMPDEST STOP JUMPDEST PUSH2 0x206 PUSH1 0x4 DUP1 CALLDATASIZE SUB DUP2 ADD SWAP1 PUSH2 0x201 SWAP2 SWAP1 PUSH2 0x3D27 JUMP JUMPDEST PUSH2 0x12D7 JUMP JUMPDEST PUSH1 0x40 MLOAD PUSH2 0x215 SWAP4 SWAP3 SWAP2 SWAP1 PUSH2 0x4721 JUMP JUMPDEST PUSH1 0x40 MLOAD DUP1 SWAP2 SUB SWAP1 RETURN JUMPDEST PUSH2 0x238 PUSH1 0x4 DUP1 CALLDATASIZE SUB DUP2 ADD SWAP1 PUSH2 0x233 SWAP2 SWAP1 PUSH2 0x38A6 JUMP JUMPDEST PUSH2 0x13A1 JUMP JUMPDEST PUSH1 0x40 MLOAD PUSH2 0x245 SWAP2 SWAP1 PUSH2 0x4773 JUMP JUMPDEST PUSH1 0x40 MLOAD DUP1 SWAP2 SUB SWAP1 RETURN JUMPDEST PUSH2 0x268 PUSH1 0x4 DUP1 CALLDATASIZE SUB DUP2 ADD SWAP1 PUSH2 0x263 SWAP2 SWAP1 PUSH2 0x381E JUMP JUMPDEST PUSH2 0x167D JUMP JUMPDEST PUSH1 0x40 MLOAD PUSH2 0x277 SWAP4 SWAP3 SWAP2 SWAP1 PUSH2 0x4721 JUMP JUMPDEST PUSH1 0x40 MLOAD DUP1 SWAP2 SUB SWAP1 RETURN JUMPDEST PUSH2 0x288 PUSH2 0x1A49 JUMP JUMPDEST PUSH1 0x40 MLOAD PUSH2 0x295 SWAP2 SWAP1 PUSH2 0x45B8 JUMP JUMPDEST PUSH1 0x40 MLOAD DUP1 SWAP2 SUB SWAP1 RETURN JUMPDEST PUSH2 0x2B8 PUSH1 0x4 DUP1 CALLDATASIZE SUB DUP2 ADD SWAP1 PUSH2 0x2B3 SWAP2 SWAP1 PUSH2 0x376F JUMP JUMPDEST PUSH2 0x1A6D JUMP JUMPDEST PUSH1 0x40 MLOAD PUSH2 0x2C7 SWAP4 SWAP3 SWAP2 SWAP1 PUSH2 0x4721 JUMP JUMPDEST PUSH1 0x40 MLOAD DUP1 SWAP2 SUB SWAP1 RETURN JUMPDEST PUSH2 0x2EA PUSH1 0x4 DUP1 CALLDATASIZE SUB DUP2 ADD SWAP1 PUSH2 0x2E5 SWAP2 SWAP1 PUSH2 0x356F JUMP JUMPDEST PUSH2 0x1F61 JUMP JUMPDEST PUSH1 0x40 MLOAD PUSH2 0x2FA SWAP5 SWAP4 SWAP3 SWAP2 SWAP1 PUSH2 0x4809 JUMP JUMPDEST PUSH1 0x40 MLOAD DUP1 SWAP2 SUB SWAP1 RETURN JUMPDEST PUSH2 0x31D PUSH1 0x4 DUP1 CALLDATASIZE SUB DUP2 ADD SWAP1 PUSH2 0x318 SWAP2 SWAP1 PUSH2 0x35C3 JUMP JUMPDEST PUSH2 0x209D JUMP JUMPDEST PUSH1 0x40 MLOAD PUSH2 0x32A SWAP2 SWAP1 PUSH2 0x429E JUMP JUMPDEST PUSH1 0x40 MLOAD DUP1 SWAP2 SUB SWAP1 RETURN JUMPDEST PUSH2 0x34D PUSH1 0x4 DUP1 CALLDATASIZE SUB DUP2 ADD SWAP1 PUSH2 0x348 SWAP2 SWAP1 PUSH2 0x3A2A JUMP JUMPDEST PUSH2 0x2214 JUMP JUMPDEST PUSH1 0x40 MLOAD PUSH2 0x35A SWAP2 SWAP1 PUSH2 0x4773 JUMP JUMPDEST PUSH1 0x40 MLOAD DUP1 SWAP2 SUB SWAP1 RETURN JUMPDEST PUSH1 0x0 DUP1 PUSH1 0x1 PUSH1 0x0 SWAP1 SLOAD SWAP1 PUSH2 0x100 EXP SWAP1 DIV PUSH20 0xFFFFFFFFFFFFFFFFFFFFFFFFFFFFFFFFFFFFFFFF AND PUSH20 0xFFFFFFFFFFFFFFFFFFFFFFFFFFFFFFFFFFFFFFFF AND PUSH4 0x940F1F69 DUP7 PUSH1 0x40 MLOAD DUP3 PUSH4 0xFFFFFFFF AND PUSH1 0xE0 SHL DUP2 MSTORE PUSH1 0x4 ADD PUSH2 0x3C1 SWAP2 SWAP1 PUSH2 0x429E JUMP JUMPDEST PUSH1 0x20 PUSH1 0x40 MLOAD DUP1 DUP4 SUB DUP2 DUP7 DUP1 EXTCODESIZE ISZERO DUP1 ISZERO PUSH2 0x3D9 JUMPI PUSH1 0x0 DUP1 REVERT JUMPDEST POP GAS STATICCALL ISZERO DUP1 ISZERO PUSH2 0x3ED JUMPI RETURNDATASIZE PUSH1 0x0 DUP1 RETURNDATACOPY RETURNDATASIZE PUSH1 0x0 REVERT JUMPDEST POP POP POP POP PUSH1 0x40 MLOAD RETURNDATASIZE PUSH1 0x1F NOT PUSH1 0x1F DUP3 ADD AND DUP3 ADD DUP1 PUSH1 0x40 MSTORE POP DUP2 ADD SWAP1 PUSH2 0x411 SWAP2 SWAP1 PUSH2 0x3483 JUMP JUMPDEST SWAP1 POP PUSH1 0x0 DUP9 DUP9 SWAP1 POP SWAP1 POP PUSH2 0x428 DUP2 DUP9 DUP8 DUP6 DUP9 PUSH2 0x2626 JUMP JUMPDEST SWAP3 POP PUSH1 0x0 DUP1 PUSH1 0x0 SWAP1 SLOAD SWAP1 PUSH2 0x100 EXP SWAP1 DIV PUSH20 0xFFFFFFFFFFFFFFFFFFFFFFFFFFFFFFFFFFFFFFFF AND PUSH20 0xFFFFFFFFFFFFFFFFFFFFFFFFFFFFFFFFFFFFFFFF AND PUSH4 0x3FA1E0C8 DUP5 DUP9 PUSH1 0x40 MLOAD DUP4 PUSH4 0xFFFFFFFF AND PUSH1 0xE0 SHL DUP2 MSTORE PUSH1 0x4 ADD PUSH2 0x488 SWAP3 SWAP2 SWAP1 PUSH2 0x42B9 JUMP JUMPDEST PUSH1 0x20 PUSH1 0x40 MLOAD DUP1 DUP4 SUB DUP2 DUP7 DUP1 EXTCODESIZE ISZERO DUP1 ISZERO PUSH2 0x4A0 JUMPI PUSH1 0x0 DUP1 REVERT JUMPDEST POP GAS STATICCALL ISZERO DUP1 ISZERO PUSH2 0x4B4 JUMPI RETURNDATASIZE PUSH1 0x0 DUP1 RETURNDATACOPY RETURNDATASIZE PUSH1 0x0 REVERT JUMPDEST POP POP POP POP PUSH1 0x40 MLOAD RETURNDATASIZE PUSH1 0x1F NOT PUSH1 0x1F DUP3 ADD AND DUP3 ADD DUP1 PUSH1 0x40 MSTORE POP DUP2 ADD SWAP1 PUSH2 0x4D8 SWAP2 SWAP1 PUSH2 0x3483 JUMP JUMPDEST SWAP1 POP PUSH1 0x1 PUSH1 0x0 SWAP1 SLOAD SWAP1 PUSH2 0x100 EXP SWAP1 DIV PUSH20 0xFFFFFFFFFFFFFFFFFFFFFFFFFFFFFFFFFFFFFFFF AND PUSH20 0xFFFFFFFFFFFFFFFFFFFFFFFFFFFFFFFFFFFFFFFF AND PUSH4 0x16DCD777 DUP9 DUP4 DUP14 DUP14 CALLER PUSH1 0x40 MLOAD DUP7 PUSH4 0xFFFFFFFF AND PUSH1 0xE0 SHL DUP2 MSTORE PUSH1 0x4 ADD PUSH2 0x53D SWAP6 SWAP5 SWAP4 SWAP3 SWAP2 SWAP1 PUSH2 0x4330 JUMP JUMPDEST PUSH1 0x20 PUSH1 0x40 MLOAD DUP1 DUP4 SUB DUP2 PUSH1 0x0 DUP8 DUP1 EXTCODESIZE ISZERO DUP1 ISZERO PUSH2 0x557 JUMPI PUSH1 0x0 DUP1 REVERT JUMPDEST POP GAS CALL ISZERO DUP1 ISZERO PUSH2 0x56B JUMPI RETURNDATASIZE PUSH1 0x0 DUP1 RETURNDATACOPY RETURNDATASIZE PUSH1 0x0 REVERT JUMPDEST POP POP POP POP PUSH1 0x40 MLOAD RETURNDATASIZE PUSH1 0x1F NOT PUSH1 0x1F DUP3 ADD AND DUP3 ADD DUP1 PUSH1 0x40 MSTORE POP DUP2 ADD SWAP1 PUSH2 0x58F SWAP2 SWAP1 PUSH2 0x3C93 JUMP JUMPDEST POP POP POP POP SWAP7 SWAP6 POP POP POP POP POP POP JUMP JUMPDEST PUSH1 0x0 DUP1 PUSH1 0x0 DUP1 PUSH1 0x0 DUP8 GT ISZERO PUSH2 0x83E JUMPI PUSH1 0x1 PUSH1 0x0 SWAP1 SLOAD SWAP1 PUSH2 0x100 EXP SWAP1 DIV PUSH20 0xFFFFFFFFFFFFFFFFFFFFFFFFFFFFFFFFFFFFFFFF AND PUSH20 0xFFFFFFFFFFFFFFFFFFFFFFFFFFFFFFFFFFFFFFFF AND PUSH4 0x3DA2AC5D DUP13 DUP10 DUP10 CALLER PUSH1 0x40 MLOAD DUP6 PUSH4 0xFFFFFFFF AND PUSH1 0xE0 SHL DUP2 MSTORE PUSH1 0x4 ADD PUSH2 0x60D SWAP5 SWAP4 SWAP3 SWAP2 SWAP1 PUSH2 0x4551 JUMP JUMPDEST PUSH1 0x20 PUSH1 0x40 MLOAD DUP1 DUP4 SUB DUP2 PUSH1 0x0 DUP8 DUP1 EXTCODESIZE ISZERO DUP1 ISZERO PUSH2 0x627 JUMPI PUSH1 0x0 DUP1 REVERT JUMPDEST POP GAS CALL ISZERO DUP1 ISZERO PUSH2 0x63B JUMPI RETURNDATASIZE PUSH1 0x0 DUP1 RETURNDATACOPY RETURNDATASIZE PUSH1 0x0 REVERT JUMPDEST POP POP POP POP PUSH1 0x40 MLOAD RETURNDATASIZE PUSH1 0x1F NOT PUSH1 0x1F DUP3 ADD AND DUP3 ADD DUP1 PUSH1 0x40 MSTORE POP DUP2 ADD SWAP1 PUSH2 0x65F SWAP2 SWAP1 PUSH2 0x3483 JUMP JUMPDEST POP PUSH1 0x1 PUSH1 0x0 SWAP1 SLOAD SWAP1 PUSH2 0x100 EXP SWAP1 DIV PUSH20 0xFFFFFFFFFFFFFFFFFFFFFFFFFFFFFFFFFFFFFFFF AND PUSH20 0xFFFFFFFFFFFFFFFFFFFFFFFFFFFFFFFFFFFFFFFF AND PUSH4 0xA33BBD57 DUP13 DUP10 PUSH1 0x40 MLOAD DUP4 PUSH4 0xFFFFFFFF AND PUSH1 0xE0 SHL DUP2 MSTORE PUSH1 0x4 ADD PUSH2 0x6BD SWAP3 SWAP2 SWAP1 PUSH2 0x4528 JUMP JUMPDEST PUSH1 0x20 PUSH1 0x40 MLOAD DUP1 DUP4 SUB DUP2 DUP7 DUP1 EXTCODESIZE ISZERO DUP1 ISZERO PUSH2 0x6D5 JUMPI PUSH1 0x0 DUP1 REVERT JUMPDEST POP GAS STATICCALL ISZERO DUP1 ISZERO PUSH2 0x6E9 JUMPI RETURNDATASIZE PUSH1 0x0 DUP1 RETURNDATACOPY RETURNDATASIZE PUSH1 0x0 REVERT JUMPDEST POP POP POP POP PUSH1 0x40 MLOAD RETURNDATASIZE PUSH1 0x1F NOT PUSH1 0x1F DUP3 ADD AND DUP3 ADD DUP1 PUSH1 0x40 MSTORE POP DUP2 ADD SWAP1 PUSH2 0x70D SWAP2 SWAP1 PUSH2 0x3483 JUMP JUMPDEST DUP6 PUSH1 0x0 ADD SWAP1 PUSH20 0xFFFFFFFFFFFFFFFFFFFFFFFFFFFFFFFFFFFFFFFF AND SWAP1 DUP2 PUSH20 0xFFFFFFFFFFFFFFFFFFFFFFFFFFFFFFFFFFFFFFFF AND DUP2 MSTORE POP POP DUP10 DUP6 PUSH1 0x20 ADD SWAP1 PUSH20 0xFFFFFFFFFFFFFFFFFFFFFFFFFFFFFFFFFFFFFFFF AND SWAP1 DUP2 PUSH20 0xFFFFFFFFFFFFFFFFFFFFFFFFFFFFFFFFFFFFFFFF AND DUP2 MSTORE POP POP PUSH1 0x0 DUP1 SLOAD SWAP1 PUSH2 0x100 EXP SWAP1 DIV PUSH20 0xFFFFFFFFFFFFFFFFFFFFFFFFFFFFFFFFFFFFFFFF AND PUSH20 0xFFFFFFFFFFFFFFFFFFFFFFFFFFFFFFFFFFFFFFFF AND PUSH4 0x342C4239 CALLER DUP8 PUSH1 0x40 MLOAD DUP4 PUSH4 0xFFFFFFFF AND PUSH1 0xE0 SHL DUP2 MSTORE PUSH1 0x4 ADD PUSH2 0x7D7 SWAP3 SWAP2 SWAP1 PUSH2 0x44FE JUMP JUMPDEST PUSH1 0x80 PUSH1 0x40 MLOAD DUP1 DUP4 SUB DUP2 PUSH1 0x0 DUP8 DUP1 EXTCODESIZE ISZERO DUP1 ISZERO PUSH2 0x7F1 JUMPI PUSH1 0x0 DUP1 REVERT JUMPDEST POP GAS CALL ISZERO DUP1 ISZERO PUSH2 0x805 JUMPI RETURNDATASIZE PUSH1 0x0 DUP1 RETURNDATACOPY RETURNDATASIZE PUSH1 0x0 REVERT JUMPDEST POP POP POP POP PUSH1 0x40 MLOAD RETURNDATASIZE PUSH1 0x1F NOT PUSH1 0x1F DUP3 ADD AND DUP3 ADD DUP1 PUSH1 0x40 MSTORE POP DUP2 ADD SWAP1 PUSH2 0x829 SWAP2 SWAP1 PUSH2 0x3CC0 JUMP JUMPDEST DUP1 SWAP5 POP DUP2 SWAP6 POP DUP3 SWAP7 POP DUP4 SWAP8 POP POP POP POP POP PUSH2 0xB65 JUMP JUMPDEST PUSH1 0x1 PUSH1 0x0 SWAP1 SLOAD SWAP1 PUSH2 0x100 EXP SWAP1 DIV PUSH20 0xFFFFFFFFFFFFFFFFFFFFFFFFFFFFFFFFFFFFFFFF AND PUSH20 0xFFFFFFFFFFFFFFFFFFFFFFFFFFFFFFFFFFFFFFFF AND PUSH4 0xA2CCB299 CALLER DUP14 DUP12 DUP14 DUP11 PUSH1 0x60 ADD MLOAD DUP12 PUSH1 0x80 ADD MLOAD PUSH1 0x40 MLOAD DUP8 PUSH4 0xFFFFFFFF AND PUSH1 0xE0 SHL DUP2 MSTORE PUSH1 0x4 ADD PUSH2 0x8AB SWAP7 SWAP6 SWAP5 SWAP4 SWAP3 SWAP2 SWAP1 PUSH2 0x43E8 JUMP JUMPDEST PUSH1 0x20 PUSH1 0x40 MLOAD DUP1 DUP4 SUB DUP2 PUSH1 0x0 DUP8 DUP1 EXTCODESIZE ISZERO DUP1 ISZERO PUSH2 0x8C5 JUMPI PUSH1 0x0 DUP1 REVERT JUMPDEST POP GAS CALL ISZERO DUP1 ISZERO PUSH2 0x8D9 JUMPI RETURNDATASIZE PUSH1 0x0 DUP1 RETURNDATACOPY RETURNDATASIZE PUSH1 0x0 REVERT JUMPDEST POP POP POP POP PUSH1 0x40 MLOAD RETURNDATASIZE PUSH1 0x1F NOT PUSH1 0x1F DUP3 ADD AND DUP3 ADD DUP1 PUSH1 0x40 MSTORE POP DUP2 ADD SWAP1 PUSH2 0x8FD SWAP2 SWAP1 PUSH2 0x3C93 JUMP JUMPDEST POP PUSH1 0x1 PUSH1 0x0 SWAP1 SLOAD SWAP1 PUSH2 0x100 EXP SWAP1 DIV PUSH20 0xFFFFFFFFFFFFFFFFFFFFFFFFFFFFFFFFFFFFFFFF AND PUSH20 0xFFFFFFFFFFFFFFFFFFFFFFFFFFFFFFFFFFFFFFFF AND PUSH4 0x940F1F69 DUP13 PUSH1 0x40 MLOAD DUP3 PUSH4 0xFFFFFFFF AND PUSH1 0xE0 SHL DUP2 MSTORE PUSH1 0x4 ADD PUSH2 0x959 SWAP2 SWAP1 PUSH2 0x429E JUMP JUMPDEST PUSH1 0x20 PUSH1 0x40 MLOAD DUP1 DUP4 SUB DUP2 DUP7 DUP1 EXTCODESIZE ISZERO DUP1 ISZERO PUSH2 0x971 JUMPI PUSH1 0x0 DUP1 REVERT JUMPDEST POP GAS STATICCALL ISZERO DUP1 ISZERO PUSH2 0x985 JUMPI RETURNDATASIZE PUSH1 0x0 DUP1 RETURNDATACOPY RETURNDATASIZE PUSH1 0x0 REVERT JUMPDEST POP POP POP POP PUSH1 0x40 MLOAD RETURNDATASIZE PUSH1 0x1F NOT PUSH1 0x1F DUP3 ADD AND DUP3 ADD DUP1 PUSH1 0x40 MSTORE POP DUP2 ADD SWAP1 PUSH2 0x9A9 SWAP2 SWAP1 PUSH2 0x3483 JUMP JUMPDEST DUP6 PUSH1 0x0 ADD SWAP1 PUSH20 0xFFFFFFFFFFFFFFFFFFFFFFFFFFFFFFFFFFFFFFFF AND SWAP1 DUP2 PUSH20 0xFFFFFFFFFFFFFFFFFFFFFFFFFFFFFFFFFFFFFFFF AND DUP2 MSTORE POP POP DUP10 DUP6 PUSH1 0x20 ADD SWAP1 PUSH20 0xFFFFFFFFFFFFFFFFFFFFFFFFFFFFFFFFFFFFFFFF AND SWAP1 DUP2 PUSH20 0xFFFFFFFFFFFFFFFFFFFFFFFFFFFFFFFFFFFFFFFF AND DUP2 MSTORE POP POP PUSH1 0x0 DUP1 SLOAD SWAP1 PUSH2 0x100 EXP SWAP1 DIV PUSH20 0xFFFFFFFFFFFFFFFFFFFFFFFFFFFFFFFFFFFFFFFF AND PUSH20 0xFFFFFFFFFFFFFFFFFFFFFFFFFFFFFFFFFFFFFFFF AND PUSH4 0x342C4239 CALLER DUP8 PUSH1 0x40 MLOAD DUP4 PUSH4 0xFFFFFFFF AND PUSH1 0xE0 SHL DUP2 MSTORE PUSH1 0x4 ADD PUSH2 0xA73 SWAP3 SWAP2 SWAP1 PUSH2 0x44FE JUMP JUMPDEST PUSH1 0x80 PUSH1 0x40 MLOAD DUP1 DUP4 SUB DUP2 PUSH1 0x0 DUP8 DUP1 EXTCODESIZE ISZERO DUP1 ISZERO PUSH2 0xA8D JUMPI PUSH1 0x0 DUP1 REVERT JUMPDEST POP GAS CALL ISZERO DUP1 ISZERO PUSH2 0xAA1 JUMPI RETURNDATASIZE PUSH1 0x0 DUP1 RETURNDATACOPY RETURNDATASIZE PUSH1 0x0 REVERT JUMPDEST POP POP POP POP PUSH1 0x40 MLOAD RETURNDATASIZE PUSH1 0x1F NOT PUSH1 0x1F DUP3 ADD AND DUP3 ADD DUP1 PUSH1 0x40 MSTORE POP DUP2 ADD SWAP1 PUSH2 0xAC5 SWAP2 SWAP1 PUSH2 0x3CC0 JUMP JUMPDEST DUP1 SWAP5 POP DUP2 SWAP6 POP DUP3 SWAP7 POP DUP4 SWAP8 POP POP POP POP POP PUSH1 0x0 JUMPDEST DUP9 MLOAD DUP2 LT ISZERO PUSH2 0xB63 JUMPI DUP5 PUSH1 0x2 PUSH1 0x0 DUP13 PUSH20 0xFFFFFFFFFFFFFFFFFFFFFFFFFFFFFFFFFFFFFFFF AND PUSH20 0xFFFFFFFFFFFFFFFFFFFFFFFFFFFFFFFFFFFFFFFF AND DUP2 MSTORE PUSH1 0x20 ADD SWAP1 DUP2 MSTORE PUSH1 0x20 ADD PUSH1 0x0 KECCAK256 PUSH1 0x0 DUP12 DUP5 DUP2 MLOAD DUP2 LT PUSH2 0xB36 JUMPI PUSH2 0xB35 PUSH2 0x4BE5 JUMP JUMPDEST JUMPDEST PUSH1 0x20 MUL PUSH1 0x20 ADD ADD MLOAD DUP2 MSTORE PUSH1 0x20 ADD SWAP1 DUP2 MSTORE PUSH1 0x20 ADD PUSH1 0x0 KECCAK256 DUP2 SWAP1 SSTORE POP DUP1 DUP1 PUSH2 0xB5B SWAP1 PUSH2 0x4B3E JUMP JUMPDEST SWAP2 POP POP PUSH2 0xAD8 JUMP JUMPDEST POP JUMPDEST SWAP8 POP SWAP8 POP SWAP8 POP SWAP8 SWAP4 POP POP POP POP JUMP JUMPDEST PUSH1 0x60 DUP11 DUP11 SWAP1 POP DUP8 DUP8 SWAP1 POP EQ DUP1 ISZERO PUSH2 0xB8F JUMPI POP DUP5 DUP5 SWAP1 POP DUP10 DUP10 SWAP1 POP EQ JUMPDEST PUSH2 0xBCE JUMPI PUSH1 0x40 MLOAD PUSH32 0x8C379A000000000000000000000000000000000000000000000000000000000 DUP2 MSTORE PUSH1 0x4 ADD PUSH2 0xBC5 SWAP1 PUSH2 0x4629 JUMP JUMPDEST PUSH1 0x40 MLOAD DUP1 SWAP2 SUB SWAP1 REVERT JUMPDEST DUP9 DUP9 SWAP1 POP DUP8 DUP8 SWAP1 POP EQ DUP1 ISZERO PUSH2 0xBE8 JUMPI POP DUP3 DUP3 SWAP1 POP DUP12 DUP12 SWAP1 POP EQ JUMPDEST PUSH2 0xC27 JUMPI PUSH1 0x40 MLOAD PUSH32 0x8C379A000000000000000000000000000000000000000000000000000000000 DUP2 MSTORE PUSH1 0x4 ADD PUSH2 0xC1E SWAP1 PUSH2 0x4629 JUMP JUMPDEST PUSH1 0x40 MLOAD DUP1 SWAP2 SUB SWAP1 REVERT JUMPDEST PUSH1 0x0 JUMPDEST DUP8 DUP8 SWAP1 POP DUP2 LT ISZERO PUSH2 0xEA5 JUMPI PUSH1 0x0 PUSH1 0x1 PUSH1 0x0 SWAP1 SLOAD SWAP1 PUSH2 0x100 EXP SWAP1 DIV PUSH20 0xFFFFFFFFFFFFFFFFFFFFFFFFFFFFFFFFFFFFFFFF AND PUSH20 0xFFFFFFFFFFFFFFFFFFFFFFFFFFFFFFFFFFFFFFFF AND PUSH4 0xA33BBD57 DUP16 DUP12 DUP12 DUP7 DUP2 DUP2 LT PUSH2 0xC89 JUMPI PUSH2 0xC88 PUSH2 0x4BE5 JUMP JUMPDEST JUMPDEST SWAP1 POP PUSH1 0x20 MUL ADD CALLDATALOAD PUSH1 0x40 MLOAD DUP4 PUSH4 0xFFFFFFFF AND PUSH1 0xE0 SHL DUP2 MSTORE PUSH1 0x4 ADD PUSH2 0xCAD SWAP3 SWAP2 SWAP1 PUSH2 0x4528 JUMP JUMPDEST PUSH1 0x20 PUSH1 0x40 MLOAD DUP1 DUP4 SUB DUP2 DUP7 DUP1 EXTCODESIZE ISZERO DUP1 ISZERO PUSH2 0xCC5 JUMPI PUSH1 0x0 DUP1 REVERT JUMPDEST POP GAS STATICCALL ISZERO DUP1 ISZERO PUSH2 0xCD9 JUMPI RETURNDATASIZE PUSH1 0x0 DUP1 RETURNDATACOPY RETURNDATASIZE PUSH1 0x0 REVERT JUMPDEST POP POP POP POP PUSH1 0x40 MLOAD RETURNDATASIZE PUSH1 0x1F NOT PUSH1 0x1F DUP3 ADD AND DUP3 ADD DUP1 PUSH1 0x40 MSTORE POP DUP2 ADD SWAP1 PUSH2 0xCFD SWAP2 SWAP1 PUSH2 0x3483 JUMP JUMPDEST SWAP1 POP PUSH2 0xD8C DUP8 DUP8 DUP5 DUP2 DUP2 LT PUSH2 0xD15 JUMPI PUSH2 0xD14 PUSH2 0x4BE5 JUMP JUMPDEST JUMPDEST SWAP1 POP PUSH1 0x20 MUL ADD CALLDATALOAD DUP15 DUP15 DUP6 DUP2 DUP2 LT PUSH2 0xD2F JUMPI PUSH2 0xD2E PUSH2 0x4BE5 JUMP JUMPDEST JUMPDEST SWAP1 POP PUSH1 0x20 MUL ADD CALLDATALOAD DUP14 DUP14 DUP7 DUP2 DUP2 LT PUSH2 0xD49 JUMPI PUSH2 0xD48 PUSH2 0x4BE5 JUMP JUMPDEST JUMPDEST SWAP1 POP PUSH1 0x20 MUL ADD PUSH1 0x20 DUP2 ADD SWAP1 PUSH2 0xD5E SWAP2 SWAP1 PUSH2 0x3456 JUMP JUMPDEST DUP5 DUP10 DUP10 DUP9 DUP2 DUP2 LT PUSH2 0xD72 JUMPI PUSH2 0xD71 PUSH2 0x4BE5 JUMP JUMPDEST JUMPDEST SWAP1 POP PUSH1 0x20 MUL ADD PUSH1 0x20 DUP2 ADD SWAP1 PUSH2 0xD87 SWAP2 SWAP1 PUSH2 0x3C39 JUMP JUMPDEST PUSH2 0x2626 JUMP JUMPDEST DUP4 DUP4 DUP2 MLOAD DUP2 LT PUSH2 0xD9F JUMPI PUSH2 0xD9E PUSH2 0x4BE5 JUMP JUMPDEST JUMPDEST PUSH1 0x20 MUL PUSH1 0x20 ADD ADD DUP2 DUP2 MSTORE POP POP PUSH1 0x1 PUSH1 0x0 SWAP1 SLOAD SWAP1 PUSH2 0x100 EXP SWAP1 DIV PUSH20 0xFFFFFFFFFFFFFFFFFFFFFFFFFFFFFFFFFFFFFFFF AND PUSH20 0xFFFFFFFFFFFFFFFFFFFFFFFFFFFFFFFFFFFFFFFF AND PUSH4 0xEA894CB5 DUP16 DUP12 DUP12 DUP7 DUP2 DUP2 LT PUSH2 0xDFD JUMPI PUSH2 0xDFC PUSH2 0x4BE5 JUMP JUMPDEST JUMPDEST SWAP1 POP PUSH1 0x20 MUL ADD CALLDATALOAD DUP11 DUP11 DUP8 DUP2 DUP2 LT PUSH2 0xE17 JUMPI PUSH2 0xE16 PUSH2 0x4BE5 JUMP JUMPDEST JUMPDEST SWAP1 POP PUSH1 0x20 MUL ADD CALLDATALOAD CALLER PUSH1 0x40 MLOAD DUP6 PUSH4 0xFFFFFFFF AND PUSH1 0xE0 SHL DUP2 MSTORE PUSH1 0x4 ADD PUSH2 0xE3E SWAP5 SWAP4 SWAP3 SWAP2 SWAP1 PUSH2 0x4551 JUMP JUMPDEST PUSH1 0x20 PUSH1 0x40 MLOAD DUP1 DUP4 SUB DUP2 PUSH1 0x0 DUP8 DUP1 EXTCODESIZE ISZERO DUP1 ISZERO PUSH2 0xE58 JUMPI PUSH1 0x0 DUP1 REVERT JUMPDEST POP GAS CALL ISZERO DUP1 ISZERO PUSH2 0xE6C JUMPI RETURNDATASIZE PUSH1 0x0 DUP1 RETURNDATACOPY RETURNDATASIZE PUSH1 0x0 REVERT JUMPDEST POP POP POP POP PUSH1 0x40 MLOAD RETURNDATASIZE PUSH1 0x1F NOT PUSH1 0x1F DUP3 ADD AND DUP3 ADD DUP1 PUSH1 0x40 MSTORE POP DUP2 ADD SWAP1 PUSH2 0xE90 SWAP2 SWAP1 PUSH2 0x3483 JUMP JUMPDEST POP POP DUP1 DUP1 PUSH2 0xE9D SWAP1 PUSH2 0x4B3E JUMP JUMPDEST SWAP2 POP POP PUSH2 0xC2A JUMP JUMPDEST POP SWAP12 SWAP11 POP POP POP POP POP POP POP POP POP POP POP JUMP JUMPDEST PUSH1 0x60 DUP7 DUP7 SWAP1 POP DUP11 DUP11 SWAP1 POP EQ DUP1 ISZERO PUSH2 0xED1 JUMPI POP DUP5 DUP5 SWAP1 POP DUP4 DUP4 SWAP1 POP EQ JUMPDEST PUSH2 0xF10 JUMPI PUSH1 0x40 MLOAD PUSH32 0x8C379A000000000000000000000000000000000000000000000000000000000 DUP2 MSTORE PUSH1 0x4 ADD PUSH2 0xF07 SWAP1 PUSH2 0x4629 JUMP JUMPDEST PUSH1 0x40 MLOAD DUP1 SWAP2 SUB SWAP1 REVERT JUMPDEST DUP3 DUP3 SWAP1 POP DUP11 DUP11 SWAP1 POP EQ PUSH2 0xF58 JUMPI PUSH1 0x40 MLOAD PUSH32 0x8C379A000000000000000000000000000000000000000000000000000000000 DUP2 MSTORE PUSH1 0x4 ADD PUSH2 0xF4F SWAP1 PUSH2 0x4629 JUMP JUMPDEST PUSH1 0x40 MLOAD DUP1 SWAP2 SUB SWAP1 REVERT JUMPDEST PUSH1 0x0 JUMPDEST DUP11 DUP11 SWAP1 POP DUP2 LT ISZERO PUSH2 0x11B6 JUMPI PUSH1 0x1 PUSH1 0x0 SWAP1 SLOAD SWAP1 PUSH2 0x100 EXP SWAP1 DIV PUSH20 0xFFFFFFFFFFFFFFFFFFFFFFFFFFFFFFFFFFFFFFFF AND PUSH20 0xFFFFFFFFFFFFFFFFFFFFFFFFFFFFFFFFFFFFFFFF AND PUSH4 0x3DA2AC5D DUP11 DUP14 DUP14 DUP6 DUP2 DUP2 LT PUSH2 0xFB8 JUMPI PUSH2 0xFB7 PUSH2 0x4BE5 JUMP JUMPDEST JUMPDEST SWAP1 POP PUSH1 0x20 MUL ADD CALLDATALOAD DUP8 DUP8 DUP7 DUP2 DUP2 LT PUSH2 0xFD2 JUMPI PUSH2 0xFD1 PUSH2 0x4BE5 JUMP JUMPDEST JUMPDEST SWAP1 POP PUSH1 0x20 MUL ADD CALLDATALOAD CALLER PUSH1 0x40 MLOAD DUP6 PUSH4 0xFFFFFFFF AND PUSH1 0xE0 SHL DUP2 MSTORE PUSH1 0x4 ADD PUSH2 0xFF9 SWAP5 SWAP4 SWAP3 SWAP2 SWAP1 PUSH2 0x4551 JUMP JUMPDEST PUSH1 0x20 PUSH1 0x40 MLOAD DUP1 DUP4 SUB DUP2 PUSH1 0x0 DUP8 DUP1 EXTCODESIZE ISZERO DUP1 ISZERO PUSH2 0x1013 JUMPI PUSH1 0x0 DUP1 REVERT JUMPDEST POP GAS CALL ISZERO DUP1 ISZERO PUSH2 0x1027 JUMPI RETURNDATASIZE PUSH1 0x0 DUP1 RETURNDATACOPY RETURNDATASIZE PUSH1 0x0 REVERT JUMPDEST POP POP POP POP PUSH1 0x40 MLOAD RETURNDATASIZE PUSH1 0x1F NOT PUSH1 0x1F DUP3 ADD AND DUP3 ADD DUP1 PUSH1 0x40 MSTORE POP DUP2 ADD SWAP1 PUSH2 0x104B SWAP2 SWAP1 PUSH2 0x3483 JUMP JUMPDEST POP PUSH2 0x1184 DUP5 DUP5 DUP4 DUP2 DUP2 LT PUSH2 0x1062 JUMPI PUSH2 0x1061 PUSH2 0x4BE5 JUMP JUMPDEST JUMPDEST SWAP1 POP PUSH1 0x20 MUL ADD CALLDATALOAD PUSH1 0x1 PUSH1 0x0 SWAP1 SLOAD SWAP1 PUSH2 0x100 EXP SWAP1 DIV PUSH20 0xFFFFFFFFFFFFFFFFFFFFFFFFFFFFFFFFFFFFFFFF AND PUSH20 0xFFFFFFFFFFFFFFFFFFFFFFFFFFFFFFFFFFFFFFFF AND PUSH4 0xA33BBD57 DUP13 DUP16 DUP16 DUP8 DUP2 DUP2 LT PUSH2 0x10BB JUMPI PUSH2 0x10BA PUSH2 0x4BE5 JUMP JUMPDEST JUMPDEST SWAP1 POP PUSH1 0x20 MUL ADD CALLDATALOAD PUSH1 0x40 MLOAD DUP4 PUSH4 0xFFFFFFFF AND PUSH1 0xE0 SHL DUP2 MSTORE PUSH1 0x4 ADD PUSH2 0x10DF SWAP3 SWAP2 SWAP1 PUSH2 0x4528 JUMP JUMPDEST PUSH1 0x20 PUSH1 0x40 MLOAD DUP1 DUP4 SUB DUP2 DUP7 DUP1 EXTCODESIZE ISZERO DUP1 ISZERO PUSH2 0x10F7 JUMPI PUSH1 0x0 DUP1 REVERT JUMPDEST POP GAS STATICCALL ISZERO DUP1 ISZERO PUSH2 0x110B JUMPI RETURNDATASIZE PUSH1 0x0 DUP1 RETURNDATACOPY RETURNDATASIZE PUSH1 0x0 REVERT JUMPDEST POP POP POP POP PUSH1 0x40 MLOAD RETURNDATASIZE PUSH1 0x1F NOT PUSH1 0x1F DUP3 ADD AND DUP3 ADD DUP1 PUSH1 0x40 MSTORE POP DUP2 ADD SWAP1 PUSH2 0x112F SWAP2 SWAP1 PUSH2 0x3483 JUMP JUMPDEST DUP11 DUP11 DUP6 DUP2 DUP2 LT PUSH2 0x1142 JUMPI PUSH2 0x1141 PUSH2 0x4BE5 JUMP JUMPDEST JUMPDEST SWAP1 POP PUSH1 0x20 MUL ADD PUSH1 0x20 DUP2 ADD SWAP1 PUSH2 0x1157 SWAP2 SWAP1 PUSH2 0x3456 JUMP JUMPDEST DUP10 DUP10 DUP7 DUP2 DUP2 LT PUSH2 0x116A JUMPI PUSH2 0x1169 PUSH2 0x4BE5 JUMP JUMPDEST JUMPDEST SWAP1 POP PUSH1 0x20 MUL ADD PUSH1 0x20 DUP2 ADD SWAP1 PUSH2 0x117F SWAP2 SWAP1 PUSH2 0x3C39 JUMP JUMPDEST PUSH2 0x27FD JUMP JUMPDEST DUP3 DUP3 DUP2 MLOAD DUP2 LT PUSH2 0x1197 JUMPI PUSH2 0x1196 PUSH2 0x4BE5 JUMP JUMPDEST JUMPDEST PUSH1 0x20 MUL PUSH1 0x20 ADD ADD DUP2 DUP2 MSTORE POP POP DUP1 DUP1 PUSH2 0x11AE SWAP1 PUSH2 0x4B3E JUMP JUMPDEST SWAP2 POP POP PUSH2 0xF5B JUMP JUMPDEST POP SWAP10 SWAP9 POP POP POP POP POP POP POP POP POP JUMP JUMPDEST PUSH1 0x1 PUSH1 0x0 SWAP1 SLOAD SWAP1 PUSH2 0x100 EXP SWAP1 DIV PUSH20 0xFFFFFFFFFFFFFFFFFFFFFFFFFFFFFFFFFFFFFFFF AND DUP2 JUMP JUMPDEST PUSH1 0x0 DUP1 SLOAD SWAP1 PUSH2 0x100 EXP SWAP1 DIV PUSH20 0xFFFFFFFFFFFFFFFFFFFFFFFFFFFFFFFFFFFFFFFF AND PUSH20 0xFFFFFFFFFFFFFFFFFFFFFFFFFFFFFFFFFFFFFFFF AND PUSH4 0x42966C68 DUP3 PUSH1 0x40 MLOAD DUP3 PUSH4 0xFFFFFFFF AND PUSH1 0xE0 SHL DUP2 MSTORE PUSH1 0x4 ADD PUSH2 0x1243 SWAP2 SWAP1 PUSH2 0x4773 JUMP JUMPDEST PUSH1 0x20 PUSH1 0x40 MLOAD DUP1 DUP4 SUB DUP2 PUSH1 0x0 DUP8 DUP1 EXTCODESIZE ISZERO DUP1 ISZERO PUSH2 0x125D JUMPI PUSH1 0x0 DUP1 REVERT JUMPDEST POP GAS CALL ISZERO DUP1 ISZERO PUSH2 0x1271 JUMPI RETURNDATASIZE PUSH1 0x0 DUP1 RETURNDATACOPY RETURNDATASIZE PUSH1 0x0 REVERT JUMPDEST POP POP POP POP PUSH1 0x40 MLOAD RETURNDATASIZE PUSH1 0x1F NOT PUSH1 0x1F DUP3 ADD AND DUP3 ADD DUP1 PUSH1 0x40 MSTORE POP DUP2 ADD SWAP1 PUSH2 0x1295 SWAP2 SWAP1 PUSH2 0x3B4C JUMP JUMPDEST PUSH2 0x12D4 JUMPI PUSH1 0x40 MLOAD PUSH32 0x8C379A000000000000000000000000000000000000000000000000000000000 DUP2 MSTORE PUSH1 0x4 ADD PUSH2 0x12CB SWAP1 PUSH2 0x4649 JUMP JUMPDEST PUSH1 0x40 MLOAD DUP1 SWAP2 SUB SWAP1 REVERT JUMPDEST POP JUMP JUMPDEST PUSH1 0x0 DUP1 PUSH1 0x0 DUP1 PUSH1 0x0 SWAP1 SLOAD SWAP1 PUSH2 0x100 EXP SWAP1 DIV PUSH20 0xFFFFFFFFFFFFFFFFFFFFFFFFFFFFFFFFFFFFFFFF AND PUSH20 0xFFFFFFFFFFFFFFFFFFFFFFFFFFFFFFFFFFFFFFFF AND PUSH4 0x617D6D6E DUP6 DUP9 DUP9 PUSH1 0x40 MLOAD DUP5 PUSH4 0xFFFFFFFF AND PUSH1 0xE0 SHL DUP2 MSTORE PUSH1 0x4 ADD PUSH2 0x133A SWAP4 SWAP3 SWAP2 SWAP1 PUSH2 0x484E JUMP JUMPDEST PUSH1 0x60 PUSH1 0x40 MLOAD DUP1 DUP4 SUB DUP2 PUSH1 0x0 DUP8 DUP1 EXTCODESIZE ISZERO DUP1 ISZERO PUSH2 0x1354 JUMPI PUSH1 0x0 DUP1 REVERT JUMPDEST POP GAS CALL ISZERO DUP1 ISZERO PUSH2 0x1368 JUMPI RETURNDATASIZE PUSH1 0x0 DUP1 RETURNDATACOPY RETURNDATASIZE PUSH1 0x0 REVERT JUMPDEST POP POP POP POP PUSH1 0x40 MLOAD RETURNDATASIZE PUSH1 0x1F NOT PUSH1 0x1F DUP3 ADD AND DUP3 ADD DUP1 PUSH1 0x40 MSTORE POP DUP2 ADD SWAP1 PUSH2 0x138C SWAP2 SWAP1 PUSH2 0x3BB9 JUMP JUMPDEST DUP1 SWAP4 POP DUP2 SWAP5 POP DUP3 SWAP6 POP POP POP POP SWAP4 POP SWAP4 POP SWAP4 SWAP1 POP JUMP JUMPDEST PUSH1 0x0 DUP1 DUP7 DUP7 SWAP1 POP SWAP1 POP PUSH1 0x0 DUP1 PUSH1 0x0 SWAP1 SLOAD SWAP1 PUSH2 0x100 EXP SWAP1 DIV PUSH20 0xFFFFFFFFFFFFFFFFFFFFFFFFFFFFFFFFFFFFFFFF AND PUSH20 0xFFFFFFFFFFFFFFFFFFFFFFFFFFFFFFFFFFFFFFFF AND PUSH4 0x3FA1E0C8 PUSH1 0x1 PUSH1 0x0 SWAP1 SLOAD SWAP1 PUSH2 0x100 EXP SWAP1 DIV PUSH20 0xFFFFFFFFFFFFFFFFFFFFFFFFFFFFFFFFFFFFFFFF AND PUSH20 0xFFFFFFFFFFFFFFFFFFFFFFFFFFFFFFFFFFFFFFFF AND PUSH4 0x940F1F69 DUP10 PUSH1 0x40 MLOAD DUP3 PUSH4 0xFFFFFFFF AND PUSH1 0xE0 SHL DUP2 MSTORE PUSH1 0x4 ADD PUSH2 0x1444 SWAP2 SWAP1 PUSH2 0x429E JUMP JUMPDEST PUSH1 0x20 PUSH1 0x40 MLOAD DUP1 DUP4 SUB DUP2 DUP7 DUP1 EXTCODESIZE ISZERO DUP1 ISZERO PUSH2 0x145C JUMPI PUSH1 0x0 DUP1 REVERT JUMPDEST POP GAS STATICCALL ISZERO DUP1 ISZERO PUSH2 0x1470 JUMPI RETURNDATASIZE PUSH1 0x0 DUP1 RETURNDATACOPY RETURNDATASIZE PUSH1 0x0 REVERT JUMPDEST POP POP POP POP PUSH1 0x40 MLOAD RETURNDATASIZE PUSH1 0x1F NOT PUSH1 0x1F DUP3 ADD AND DUP3 ADD DUP1 PUSH1 0x40 MSTORE POP DUP2 ADD SWAP1 PUSH2 0x1494 SWAP2 SWAP1 PUSH2 0x3483 JUMP JUMPDEST DUP8 PUSH1 0x40 MLOAD DUP4 PUSH4 0xFFFFFFFF AND PUSH1 0xE0 SHL DUP2 MSTORE PUSH1 0x4 ADD PUSH2 0x14B2 SWAP3 SWAP2 SWAP1 PUSH2 0x42B9 JUMP JUMPDEST PUSH1 0x20 PUSH1 0x40 MLOAD DUP1 DUP4 SUB DUP2 DUP7 DUP1 EXTCODESIZE ISZERO DUP1 ISZERO PUSH2 0x14CA JUMPI PUSH1 0x0 DUP1 REVERT JUMPDEST POP GAS STATICCALL ISZERO DUP1 ISZERO PUSH2 0x14DE JUMPI RETURNDATASIZE PUSH1 0x0 DUP1 RETURNDATACOPY RETURNDATASIZE PUSH1 0x0 REVERT JUMPDEST POP POP POP POP PUSH1 0x40 MLOAD RETURNDATASIZE PUSH1 0x1F NOT PUSH1 0x1F DUP3 ADD AND DUP3 ADD DUP1 PUSH1 0x40 MSTORE POP DUP2 ADD SWAP1 PUSH2 0x1502 SWAP2 SWAP1 PUSH2 0x3483 JUMP JUMPDEST SWAP1 POP PUSH1 0x1 PUSH1 0x0 SWAP1 SLOAD SWAP1 PUSH2 0x100 EXP SWAP1 DIV PUSH20 0xFFFFFFFFFFFFFFFFFFFFFFFFFFFFFFFFFFFFFFFF AND PUSH20 0xFFFFFFFFFFFFFFFFFFFFFFFFFFFFFFFFFFFFFFFF AND PUSH4 0xC7784123 CALLER DUP9 DUP5 DUP13 DUP13 PUSH1 0x40 MLOAD DUP7 PUSH4 0xFFFFFFFF AND PUSH1 0xE0 SHL DUP2 MSTORE PUSH1 0x4 ADD PUSH2 0x1567 SWAP6 SWAP5 SWAP4 SWAP3 SWAP2 SWAP1 PUSH2 0x42E2 JUMP JUMPDEST PUSH1 0x20 PUSH1 0x40 MLOAD DUP1 DUP4 SUB DUP2 PUSH1 0x0 DUP8 DUP1 EXTCODESIZE ISZERO DUP1 ISZERO PUSH2 0x1581 JUMPI PUSH1 0x0 DUP1 REVERT JUMPDEST POP GAS CALL ISZERO DUP1 ISZERO PUSH2 0x1595 JUMPI RETURNDATASIZE PUSH1 0x0 DUP1 RETURNDATACOPY RETURNDATASIZE PUSH1 0x0 REVERT JUMPDEST POP POP POP POP PUSH1 0x40 MLOAD RETURNDATASIZE PUSH1 0x1F NOT PUSH1 0x1F DUP3 ADD AND DUP3 ADD DUP1 PUSH1 0x40 MSTORE POP DUP2 ADD SWAP1 PUSH2 0x15B9 SWAP2 SWAP1 PUSH2 0x3C93 JUMP JUMPDEST POP PUSH2 0x1670 DUP3 PUSH1 0x1 PUSH1 0x0 SWAP1 SLOAD SWAP1 PUSH2 0x100 EXP SWAP1 DIV PUSH20 0xFFFFFFFFFFFFFFFFFFFFFFFFFFFFFFFFFFFFFFFF AND PUSH20 0xFFFFFFFFFFFFFFFFFFFFFFFFFFFFFFFFFFFFFFFF AND PUSH4 0x940F1F69 DUP10 PUSH1 0x40 MLOAD DUP3 PUSH4 0xFFFFFFFF AND PUSH1 0xE0 SHL DUP2 MSTORE PUSH1 0x4 ADD PUSH2 0x1619 SWAP2 SWAP1 PUSH2 0x429E JUMP JUMPDEST PUSH1 0x20 PUSH1 0x40 MLOAD DUP1 DUP4 SUB DUP2 DUP7 DUP1 EXTCODESIZE ISZERO DUP1 ISZERO PUSH2 0x1631 JUMPI PUSH1 0x0 DUP1 REVERT JUMPDEST POP GAS STATICCALL ISZERO DUP1 ISZERO PUSH2 0x1645 JUMPI RETURNDATASIZE PUSH1 0x0 DUP1 RETURNDATACOPY RETURNDATASIZE PUSH1 0x0 REVERT JUMPDEST POP POP POP POP PUSH1 0x40 MLOAD RETURNDATASIZE PUSH1 0x1F NOT PUSH1 0x1F DUP3 ADD AND DUP3 ADD DUP1 PUSH1 0x40 MSTORE POP DUP2 ADD SWAP1 PUSH2 0x1669 SWAP2 SWAP1 PUSH2 0x3483 JUMP JUMPDEST DUP8 DUP8 PUSH2 0x27FD JUMP JUMPDEST SWAP3 POP POP POP SWAP6 SWAP5 POP POP POP POP POP JUMP JUMPDEST PUSH1 0x0 DUP1 PUSH1 0x0 DUP1 DUP6 DUP6 SWAP1 POP EQ ISZERO PUSH2 0x174B JUMPI PUSH1 0x0 DUP1 SLOAD SWAP1 PUSH2 0x100 EXP SWAP1 DIV PUSH20 0xFFFFFFFFFFFFFFFFFFFFFFFFFFFFFFFFFFFFFFFF AND PUSH20 0xFFFFFFFFFFFFFFFFFFFFFFFFFFFFFFFFFFFFFFFF AND PUSH4 0x99D7B594 DUP9 DUP9 PUSH1 0x40 MLOAD DUP4 PUSH4 0xFFFFFFFF AND PUSH1 0xE0 SHL DUP2 MSTORE PUSH1 0x4 ADD PUSH2 0x16E8 SWAP3 SWAP2 SWAP1 PUSH2 0x47E0 JUMP JUMPDEST PUSH1 0x60 PUSH1 0x40 MLOAD DUP1 DUP4 SUB DUP2 PUSH1 0x0 DUP8 DUP1 EXTCODESIZE ISZERO DUP1 ISZERO PUSH2 0x1702 JUMPI PUSH1 0x0 DUP1 REVERT JUMPDEST POP GAS CALL ISZERO DUP1 ISZERO PUSH2 0x1716 JUMPI RETURNDATASIZE PUSH1 0x0 DUP1 RETURNDATACOPY RETURNDATASIZE PUSH1 0x0 REVERT JUMPDEST POP POP POP POP PUSH1 0x40 MLOAD RETURNDATASIZE PUSH1 0x1F NOT PUSH1 0x1F DUP3 ADD AND DUP3 ADD DUP1 PUSH1 0x40 MSTORE POP DUP2 ADD SWAP1 PUSH2 0x173A SWAP2 SWAP1 PUSH2 0x3BB9 JUMP JUMPDEST DUP1 SWAP4 POP DUP2 SWAP5 POP DUP3 SWAP6 POP POP POP POP PUSH2 0x1A3E JUMP JUMPDEST PUSH1 0x0 DUP1 SLOAD SWAP1 PUSH2 0x100 EXP SWAP1 DIV PUSH20 0xFFFFFFFFFFFFFFFFFFFFFFFFFFFFFFFFFFFFFFFF AND PUSH20 0xFFFFFFFFFFFFFFFFFFFFFFFFFFFFFFFFFFFFFFFF AND PUSH4 0x99D7B594 DUP9 DUP9 PUSH1 0x40 MLOAD DUP4 PUSH4 0xFFFFFFFF AND PUSH1 0xE0 SHL DUP2 MSTORE PUSH1 0x4 ADD PUSH2 0x17A6 SWAP3 SWAP2 SWAP1 PUSH2 0x47E0 JUMP JUMPDEST PUSH1 0x60 PUSH1 0x40 MLOAD DUP1 DUP4 SUB DUP2 PUSH1 0x0 DUP8 DUP1 EXTCODESIZE ISZERO DUP1 ISZERO PUSH2 0x17C0 JUMPI PUSH1 0x0 DUP1 REVERT JUMPDEST POP GAS CALL ISZERO DUP1 ISZERO PUSH2 0x17D4 JUMPI RETURNDATASIZE PUSH1 0x0 DUP1 RETURNDATACOPY RETURNDATASIZE PUSH1 0x0 REVERT JUMPDEST POP POP POP POP PUSH1 0x40 MLOAD RETURNDATASIZE PUSH1 0x1F NOT PUSH1 0x1F DUP3 ADD AND DUP3 ADD DUP1 PUSH1 0x40 MSTORE POP DUP2 ADD SWAP1 PUSH2 0x17F8 SWAP2 SWAP1 PUSH2 0x3BB9 JUMP JUMPDEST DUP1 SWAP4 POP DUP2 SWAP5 POP DUP3 SWAP6 POP POP POP POP DUP2 DUP6 DUP6 SWAP1 POP LT PUSH2 0x1849 JUMPI PUSH1 0x40 MLOAD PUSH32 0x8C379A000000000000000000000000000000000000000000000000000000000 DUP2 MSTORE PUSH1 0x4 ADD PUSH2 0x1840 SWAP1 PUSH2 0x4689 JUMP JUMPDEST PUSH1 0x40 MLOAD DUP1 SWAP2 SUB SWAP1 REVERT JUMPDEST PUSH1 0x0 DUP1 PUSH1 0x0 SWAP1 SLOAD SWAP1 PUSH2 0x100 EXP SWAP1 DIV PUSH20 0xFFFFFFFFFFFFFFFFFFFFFFFFFFFFFFFFFFFFFFFF AND PUSH20 0xFFFFFFFFFFFFFFFFFFFFFFFFFFFFFFFFFFFFFFFF AND PUSH4 0x2F380B35 DUP10 PUSH1 0x40 MLOAD DUP3 PUSH4 0xFFFFFFFF AND PUSH1 0xE0 SHL DUP2 MSTORE PUSH1 0x4 ADD PUSH2 0x18A5 SWAP2 SWAP1 PUSH2 0x4773 JUMP JUMPDEST PUSH1 0x20 PUSH1 0x40 MLOAD DUP1 DUP4 SUB DUP2 DUP7 DUP1 EXTCODESIZE ISZERO DUP1 ISZERO PUSH2 0x18BD JUMPI PUSH1 0x0 DUP1 REVERT JUMPDEST POP GAS STATICCALL ISZERO DUP1 ISZERO PUSH2 0x18D1 JUMPI RETURNDATASIZE PUSH1 0x0 DUP1 RETURNDATACOPY RETURNDATASIZE PUSH1 0x0 REVERT JUMPDEST POP POP POP POP PUSH1 0x40 MLOAD RETURNDATASIZE PUSH1 0x1F NOT PUSH1 0x1F DUP3 ADD AND DUP3 ADD DUP1 PUSH1 0x40 MSTORE POP DUP2 ADD SWAP1 PUSH2 0x18F5 SWAP2 SWAP1 PUSH2 0x3483 JUMP JUMPDEST SWAP1 POP PUSH1 0x1 PUSH1 0x0 SWAP1 SLOAD SWAP1 PUSH2 0x100 EXP SWAP1 DIV PUSH20 0xFFFFFFFFFFFFFFFFFFFFFFFFFFFFFFFFFFFFFFFF AND PUSH20 0xFFFFFFFFFFFFFFFFFFFFFFFFFFFFFFFFFFFFFFFF AND PUSH4 0xD3DAF052 DUP11 DUP4 DUP10 DUP10 CALLER PUSH1 0x40 MLOAD DUP7 PUSH4 0xFFFFFFFF AND PUSH1 0xE0 SHL DUP2 MSTORE PUSH1 0x4 ADD PUSH2 0x195A SWAP6 SWAP5 SWAP4 SWAP3 SWAP2 SWAP1 PUSH2 0x4330 JUMP JUMPDEST PUSH1 0x20 PUSH1 0x40 MLOAD DUP1 DUP4 SUB DUP2 PUSH1 0x0 DUP8 DUP1 EXTCODESIZE ISZERO DUP1 ISZERO PUSH2 0x1974 JUMPI PUSH1 0x0 DUP1 REVERT JUMPDEST POP GAS CALL ISZERO DUP1 ISZERO PUSH2 0x1988 JUMPI RETURNDATASIZE PUSH1 0x0 DUP1 RETURNDATACOPY RETURNDATASIZE PUSH1 0x0 REVERT JUMPDEST POP POP POP POP PUSH1 0x40 MLOAD RETURNDATASIZE PUSH1 0x1F NOT PUSH1 0x1F DUP3 ADD AND DUP3 ADD DUP1 PUSH1 0x40 MSTORE POP DUP2 ADD SWAP1 PUSH2 0x19AC SWAP2 SWAP1 PUSH2 0x3C93 JUMP JUMPDEST POP PUSH1 0x0 JUMPDEST DUP7 DUP7 SWAP1 POP DUP2 LT ISZERO PUSH2 0x1A3B JUMPI PUSH1 0x2 PUSH1 0x0 DUP4 PUSH20 0xFFFFFFFFFFFFFFFFFFFFFFFFFFFFFFFFFFFFFFFF AND PUSH20 0xFFFFFFFFFFFFFFFFFFFFFFFFFFFFFFFFFFFFFFFF AND DUP2 MSTORE PUSH1 0x20 ADD SWAP1 DUP2 MSTORE PUSH1 0x20 ADD PUSH1 0x0 KECCAK256 PUSH1 0x0 DUP9 DUP9 DUP5 DUP2 DUP2 LT PUSH2 0x1A0F JUMPI PUSH2 0x1A0E PUSH2 0x4BE5 JUMP JUMPDEST JUMPDEST SWAP1 POP PUSH1 0x20 MUL ADD CALLDATALOAD DUP2 MSTORE PUSH1 0x20 ADD SWAP1 DUP2 MSTORE PUSH1 0x20 ADD PUSH1 0x0 KECCAK256 PUSH1 0x0 SWAP1 SSTORE DUP1 DUP1 PUSH2 0x1A33 SWAP1 PUSH2 0x4B3E JUMP JUMPDEST SWAP2 POP POP PUSH2 0x19B0 JUMP JUMPDEST POP POP JUMPDEST SWAP6 POP SWAP6 POP SWAP6 SWAP3 POP POP POP JUMP JUMPDEST PUSH32 0x0 DUP2 JUMP JUMPDEST PUSH1 0x0 DUP1 PUSH1 0x0 DUP1 DUP7 GT ISZERO PUSH2 0x1BEE JUMPI PUSH1 0x1 PUSH1 0x0 SWAP1 SLOAD SWAP1 PUSH2 0x100 EXP SWAP1 DIV PUSH20 0xFFFFFFFFFFFFFFFFFFFFFFFFFFFFFFFFFFFFFFFF AND PUSH20 0xFFFFFFFFFFFFFFFFFFFFFFFFFFFFFFFFFFFFFFFF AND PUSH4 0x3DA2AC5D DUP12 DUP9 DUP9 CALLER PUSH1 0x40 MLOAD DUP6 PUSH4 0xFFFFFFFF AND PUSH1 0xE0 SHL DUP2 MSTORE PUSH1 0x4 ADD PUSH2 0x1ADB SWAP5 SWAP4 SWAP3 SWAP2 SWAP1 PUSH2 0x4551 JUMP JUMPDEST PUSH1 0x20 PUSH1 0x40 MLOAD DUP1 DUP4 SUB DUP2 PUSH1 0x0 DUP8 DUP1 EXTCODESIZE ISZERO DUP1 ISZERO PUSH2 0x1AF5 JUMPI PUSH1 0x0 DUP1 REVERT JUMPDEST POP GAS CALL ISZERO DUP1 ISZERO PUSH2 0x1B09 JUMPI RETURNDATASIZE PUSH1 0x0 DUP1 RETURNDATACOPY RETURNDATASIZE PUSH1 0x0 REVERT JUMPDEST POP POP POP POP PUSH1 0x40 MLOAD RETURNDATASIZE PUSH1 0x1F NOT PUSH1 0x1F DUP3 ADD AND DUP3 ADD DUP1 PUSH1 0x40 MSTORE POP DUP2 ADD SWAP1 PUSH2 0x1B2D SWAP2 SWAP1 PUSH2 0x3483 JUMP JUMPDEST POP PUSH1 0x0 DUP1 SLOAD SWAP1 PUSH2 0x100 EXP SWAP1 DIV PUSH20 0xFFFFFFFFFFFFFFFFFFFFFFFFFFFFFFFFFFFFFFFF AND PUSH20 0xFFFFFFFFFFFFFFFFFFFFFFFFFFFFFFFFFFFFFFFF AND PUSH4 0x617D6D6E DUP11 DUP8 DUP8 PUSH1 0x40 MLOAD DUP5 PUSH4 0xFFFFFFFF AND PUSH1 0xE0 SHL DUP2 MSTORE PUSH1 0x4 ADD PUSH2 0x1B8B SWAP4 SWAP3 SWAP2 SWAP1 PUSH2 0x484E JUMP JUMPDEST PUSH1 0x60 PUSH1 0x40 MLOAD DUP1 DUP4 SUB DUP2 PUSH1 0x0 DUP8 DUP1 EXTCODESIZE ISZERO DUP1 ISZERO PUSH2 0x1BA5 JUMPI PUSH1 0x0 DUP1 REVERT JUMPDEST POP GAS CALL ISZERO DUP1 ISZERO PUSH2 0x1BB9 JUMPI RETURNDATASIZE PUSH1 0x0 DUP1 RETURNDATACOPY RETURNDATASIZE PUSH1 0x0 REVERT JUMPDEST POP POP POP POP PUSH1 0x40 MLOAD RETURNDATASIZE PUSH1 0x1F NOT PUSH1 0x1F DUP3 ADD AND DUP3 ADD DUP1 PUSH1 0x40 MSTORE POP DUP2 ADD SWAP1 PUSH2 0x1BDD SWAP2 SWAP1 PUSH2 0x3BB9 JUMP JUMPDEST DUP1 SWAP4 POP DUP2 SWAP5 POP DUP3 SWAP6 POP POP POP POP PUSH2 0x1F54 JUMP JUMPDEST PUSH1 0x0 DUP1 PUSH1 0x0 DUP1 SLOAD SWAP1 PUSH2 0x100 EXP SWAP1 DIV PUSH20 0xFFFFFFFFFFFFFFFFFFFFFFFFFFFFFFFFFFFFFFFF AND PUSH20 0xFFFFFFFFFFFFFFFFFFFFFFFFFFFFFFFFFFFFFFFF AND PUSH4 0x519F5099 DUP13 PUSH1 0x40 MLOAD DUP3 PUSH4 0xFFFFFFFF AND PUSH1 0xE0 SHL DUP2 MSTORE PUSH1 0x4 ADD PUSH2 0x1C4A SWAP2 SWAP1 PUSH2 0x4773 JUMP JUMPDEST PUSH1 0x40 DUP1 MLOAD DUP1 DUP4 SUB DUP2 DUP7 DUP1 EXTCODESIZE ISZERO DUP1 ISZERO PUSH2 0x1C61 JUMPI PUSH1 0x0 DUP1 REVERT JUMPDEST POP GAS STATICCALL ISZERO DUP1 ISZERO PUSH2 0x1C75 JUMPI RETURNDATASIZE PUSH1 0x0 DUP1 RETURNDATACOPY RETURNDATASIZE PUSH1 0x0 REVERT JUMPDEST POP POP POP POP PUSH1 0x40 MLOAD RETURNDATASIZE PUSH1 0x1F NOT PUSH1 0x1F DUP3 ADD AND DUP3 ADD DUP1 PUSH1 0x40 MSTORE POP DUP2 ADD SWAP1 PUSH2 0x1C99 SWAP2 SWAP1 PUSH2 0x3B79 JUMP JUMPDEST SWAP2 POP SWAP2 POP PUSH1 0x0 DUP1 PUSH1 0x0 SWAP1 SLOAD SWAP1 PUSH2 0x100 EXP SWAP1 DIV PUSH20 0xFFFFFFFFFFFFFFFFFFFFFFFFFFFFFFFFFFFFFFFF AND PUSH20 0xFFFFFFFFFFFFFFFFFFFFFFFFFFFFFFFFFFFFFFFF AND PUSH4 0x2F380B35 DUP14 PUSH1 0x40 MLOAD DUP3 PUSH4 0xFFFFFFFF AND PUSH1 0xE0 SHL DUP2 MSTORE PUSH1 0x4 ADD PUSH2 0x1CF9 SWAP2 SWAP1 PUSH2 0x4773 JUMP JUMPDEST PUSH1 0x20 PUSH1 0x40 MLOAD DUP1 DUP4 SUB DUP2 DUP7 DUP1 EXTCODESIZE ISZERO DUP1 ISZERO PUSH2 0x1D11 JUMPI PUSH1 0x0 DUP1 REVERT JUMPDEST POP GAS STATICCALL ISZERO DUP1 ISZERO PUSH2 0x1D25 JUMPI RETURNDATASIZE PUSH1 0x0 DUP1 RETURNDATACOPY RETURNDATASIZE PUSH1 0x0 REVERT JUMPDEST POP POP POP POP PUSH1 0x40 MLOAD RETURNDATASIZE PUSH1 0x1F NOT PUSH1 0x1F DUP3 ADD AND DUP3 ADD DUP1 PUSH1 0x40 MSTORE POP DUP2 ADD SWAP1 PUSH2 0x1D49 SWAP2 SWAP1 PUSH2 0x3483 JUMP JUMPDEST SWAP1 POP PUSH1 0x1 PUSH1 0x0 SWAP1 SLOAD SWAP1 PUSH2 0x100 EXP SWAP1 DIV PUSH20 0xFFFFFFFFFFFFFFFFFFFFFFFFFFFFFFFFFFFFFFFF AND PUSH20 0xFFFFFFFFFFFFFFFFFFFFFFFFFFFFFFFFFFFFFFFF AND PUSH4 0xA2CCB299 CALLER DUP16 DUP15 DUP15 DUP7 DUP10 DUP10 PUSH1 0x40 MLOAD DUP9 PUSH4 0xFFFFFFFF AND PUSH1 0xE0 SHL DUP2 MSTORE PUSH1 0x4 ADD PUSH2 0x1DB2 SWAP8 SWAP7 SWAP6 SWAP5 SWAP4 SWAP3 SWAP2 SWAP1 PUSH2 0x437E JUMP JUMPDEST PUSH1 0x20 PUSH1 0x40 MLOAD DUP1 DUP4 SUB DUP2 PUSH1 0x0 DUP8 DUP1 EXTCODESIZE ISZERO DUP1 ISZERO PUSH2 0x1DCC JUMPI PUSH1 0x0 DUP1 REVERT JUMPDEST POP GAS CALL ISZERO DUP1 ISZERO PUSH2 0x1DE0 JUMPI RETURNDATASIZE PUSH1 0x0 DUP1 RETURNDATACOPY RETURNDATASIZE PUSH1 0x0 REVERT JUMPDEST POP POP POP POP PUSH1 0x40 MLOAD RETURNDATASIZE PUSH1 0x1F NOT PUSH1 0x1F DUP3 ADD AND DUP3 ADD DUP1 PUSH1 0x40 MSTORE POP DUP2 ADD SWAP1 PUSH2 0x1E04 SWAP2 SWAP1 PUSH2 0x3C93 JUMP JUMPDEST POP PUSH1 0x0 DUP1 SLOAD SWAP1 PUSH2 0x100 EXP SWAP1 DIV PUSH20 0xFFFFFFFFFFFFFFFFFFFFFFFFFFFFFFFFFFFFFFFF AND PUSH20 0xFFFFFFFFFFFFFFFFFFFFFFFFFFFFFFFFFFFFFFFF AND PUSH4 0x617D6D6E DUP14 DUP11 DUP11 PUSH1 0x40 MLOAD DUP5 PUSH4 0xFFFFFFFF AND PUSH1 0xE0 SHL DUP2 MSTORE PUSH1 0x4 ADD PUSH2 0x1E62 SWAP4 SWAP3 SWAP2 SWAP1 PUSH2 0x484E JUMP JUMPDEST PUSH1 0x60 PUSH1 0x40 MLOAD DUP1 DUP4 SUB DUP2 PUSH1 0x0 DUP8 DUP1 EXTCODESIZE ISZERO DUP1 ISZERO PUSH2 0x1E7C JUMPI PUSH1 0x0 DUP1 REVERT JUMPDEST POP GAS CALL ISZERO DUP1 ISZERO PUSH2 0x1E90 JUMPI RETURNDATASIZE PUSH1 0x0 DUP1 RETURNDATACOPY RETURNDATASIZE PUSH1 0x0 REVERT JUMPDEST POP POP POP POP PUSH1 0x40 MLOAD RETURNDATASIZE PUSH1 0x1F NOT PUSH1 0x1F DUP3 ADD AND DUP3 ADD DUP1 PUSH1 0x40 MSTORE POP DUP2 ADD SWAP1 PUSH2 0x1EB4 SWAP2 SWAP1 PUSH2 0x3BB9 JUMP JUMPDEST DUP1 SWAP7 POP DUP2 SWAP8 POP DUP3 SWAP9 POP POP POP POP PUSH1 0x0 JUMPDEST DUP12 DUP12 SWAP1 POP DUP2 LT ISZERO PUSH2 0x1F4F JUMPI DUP13 PUSH1 0x2 PUSH1 0x0 DUP5 PUSH20 0xFFFFFFFFFFFFFFFFFFFFFFFFFFFFFFFFFFFFFFFF AND PUSH20 0xFFFFFFFFFFFFFFFFFFFFFFFFFFFFFFFFFFFFFFFF AND DUP2 MSTORE PUSH1 0x20 ADD SWAP1 DUP2 MSTORE PUSH1 0x20 ADD PUSH1 0x0 KECCAK256 PUSH1 0x0 DUP15 DUP15 DUP6 DUP2 DUP2 LT PUSH2 0x1F23 JUMPI PUSH2 0x1F22 PUSH2 0x4BE5 JUMP JUMPDEST JUMPDEST SWAP1 POP PUSH1 0x20 MUL ADD CALLDATALOAD DUP2 MSTORE PUSH1 0x20 ADD SWAP1 DUP2 MSTORE PUSH1 0x20 ADD PUSH1 0x0 KECCAK256 DUP2 SWAP1 SSTORE POP DUP1 DUP1 PUSH2 0x1F47 SWAP1 PUSH2 0x4B3E JUMP JUMPDEST SWAP2 POP POP PUSH2 0x1EC3 JUMP JUMPDEST POP POP POP POP JUMPDEST SWAP8 POP SWAP8 POP SWAP8 SWAP5 POP POP POP POP POP JUMP JUMPDEST PUSH1 0x0 DUP1 PUSH1 0x0 DUP1 DUP7 DUP6 PUSH1 0x0 ADD SWAP1 PUSH20 0xFFFFFFFFFFFFFFFFFFFFFFFFFFFFFFFFFFFFFFFF AND SWAP1 DUP2 PUSH20 0xFFFFFFFFFFFFFFFFFFFFFFFFFFFFFFFFFFFFFFFF AND DUP2 MSTORE POP POP DUP6 DUP6 PUSH1 0x20 ADD SWAP1 PUSH20 0xFFFFFFFFFFFFFFFFFFFFFFFFFFFFFFFFFFFFFFFF AND SWAP1 DUP2 PUSH20 0xFFFFFFFFFFFFFFFFFFFFFFFFFFFFFFFFFFFFFFFF AND DUP2 MSTORE POP POP PUSH1 0x0 DUP1 SLOAD SWAP1 PUSH2 0x100 EXP SWAP1 DIV PUSH20 0xFFFFFFFFFFFFFFFFFFFFFFFFFFFFFFFFFFFFFFFF AND PUSH20 0xFFFFFFFFFFFFFFFFFFFFFFFFFFFFFFFFFFFFFFFF AND PUSH4 0x342C4239 CALLER DUP8 PUSH1 0x40 MLOAD DUP4 PUSH4 0xFFFFFFFF AND PUSH1 0xE0 SHL DUP2 MSTORE PUSH1 0x4 ADD PUSH2 0x2032 SWAP3 SWAP2 SWAP1 PUSH2 0x44FE JUMP JUMPDEST PUSH1 0x80 PUSH1 0x40 MLOAD DUP1 DUP4 SUB DUP2 PUSH1 0x0 DUP8 DUP1 EXTCODESIZE ISZERO DUP1 ISZERO PUSH2 0x204C JUMPI PUSH1 0x0 DUP1 REVERT JUMPDEST POP GAS CALL ISZERO DUP1 ISZERO PUSH2 0x2060 JUMPI RETURNDATASIZE PUSH1 0x0 DUP1 RETURNDATACOPY RETURNDATASIZE PUSH1 0x0 REVERT JUMPDEST POP POP POP POP PUSH1 0x40 MLOAD RETURNDATASIZE PUSH1 0x1F NOT PUSH1 0x1F DUP3 ADD AND DUP3 ADD DUP1 PUSH1 0x40 MSTORE POP DUP2 ADD SWAP1 PUSH2 0x2084 SWAP2 SWAP1 PUSH2 0x3CC0 JUMP JUMPDEST DUP1 SWAP5 POP DUP2 SWAP6 POP DUP3 SWAP7 POP DUP4 SWAP8 POP POP POP POP POP SWAP4 POP SWAP4 POP SWAP4 POP SWAP4 JUMP JUMPDEST PUSH1 0x0 DUP1 PUSH1 0x1 PUSH1 0x0 SWAP1 SLOAD SWAP1 PUSH2 0x100 EXP SWAP1 DIV PUSH20 0xFFFFFFFFFFFFFFFFFFFFFFFFFFFFFFFFFFFFFFFF AND PUSH20 0xFFFFFFFFFFFFFFFFFFFFFFFFFFFFFFFFFFFFFFFF AND PUSH4 0xECAEA73 DUP9 DUP8 PUSH1 0x40 MLOAD DUP4 PUSH4 0xFFFFFFFF AND PUSH1 0xE0 SHL DUP2 MSTORE PUSH1 0x4 ADD PUSH2 0x20FD SWAP3 SWAP2 SWAP1 PUSH2 0x4528 JUMP JUMPDEST PUSH1 0x20 PUSH1 0x40 MLOAD DUP1 DUP4 SUB DUP2 PUSH1 0x0 DUP8 DUP1 EXTCODESIZE ISZERO DUP1 ISZERO PUSH2 0x2117 JUMPI PUSH1 0x0 DUP1 REVERT JUMPDEST POP GAS CALL ISZERO DUP1 ISZERO PUSH2 0x212B JUMPI RETURNDATASIZE PUSH1 0x0 DUP1 RETURNDATACOPY RETURNDATASIZE PUSH1 0x0 REVERT JUMPDEST POP POP POP POP PUSH1 0x40 MLOAD RETURNDATASIZE PUSH1 0x1F NOT PUSH1 0x1F DUP3 ADD AND DUP3 ADD DUP1 PUSH1 0x40 MSTORE POP DUP2 ADD SWAP1 PUSH2 0x214F SWAP2 SWAP1 PUSH2 0x3483 JUMP JUMPDEST SWAP1 POP PUSH1 0x0 DUP7 SWAP1 POP PUSH1 0x0 DUP1 SLOAD SWAP1 PUSH2 0x100 EXP SWAP1 DIV PUSH20 0xFFFFFFFFFFFFFFFFFFFFFFFFFFFFFFFFFFFFFFFF AND PUSH20 0xFFFFFFFFFFFFFFFFFFFFFFFFFFFFFFFFFFFFFFFF AND PUSH4 0x13EAD562 DUP4 DUP4 DUP9 DUP9 PUSH1 0x40 MLOAD DUP6 PUSH4 0xFFFFFFFF AND PUSH1 0xE0 SHL DUP2 MSTORE PUSH1 0x4 ADD PUSH2 0x21B5 SWAP5 SWAP4 SWAP3 SWAP2 SWAP1 PUSH2 0x4450 JUMP JUMPDEST PUSH1 0x20 PUSH1 0x40 MLOAD DUP1 DUP4 SUB DUP2 PUSH1 0x0 DUP8 DUP1 EXTCODESIZE ISZERO DUP1 ISZERO PUSH2 0x21CF JUMPI PUSH1 0x0 DUP1 REVERT JUMPDEST POP GAS CALL ISZERO DUP1 ISZERO PUSH2 0x21E3 JUMPI RETURNDATASIZE PUSH1 0x0 DUP1 RETURNDATACOPY RETURNDATASIZE PUSH1 0x0 REVERT JUMPDEST POP POP POP POP PUSH1 0x40 MLOAD RETURNDATASIZE PUSH1 0x1F NOT PUSH1 0x1F DUP3 ADD AND DUP3 ADD DUP1 PUSH1 0x40 MSTORE POP DUP2 ADD SWAP1 PUSH2 0x2207 SWAP2 SWAP1 PUSH2 0x3483 JUMP JUMPDEST SWAP3 POP POP POP SWAP6 SWAP5 POP POP POP POP POP JUMP JUMPDEST PUSH1 0x0 DUP1 PUSH1 0x0 DUP1 SLOAD SWAP1 PUSH2 0x100 EXP SWAP1 DIV PUSH20 0xFFFFFFFFFFFFFFFFFFFFFFFFFFFFFFFFFFFFFFFF AND PUSH20 0xFFFFFFFFFFFFFFFFFFFFFFFFFFFFFFFFFFFFFFFF AND PUSH4 0x3FA1E0C8 DUP6 DUP6 PUSH1 0x40 MLOAD DUP4 PUSH4 0xFFFFFFFF AND PUSH1 0xE0 SHL DUP2 MSTORE PUSH1 0x4 ADD PUSH2 0x2272 SWAP3 SWAP2 SWAP1 PUSH2 0x42B9 JUMP JUMPDEST PUSH1 0x20 PUSH1 0x40 MLOAD DUP1 DUP4 SUB DUP2 DUP7 DUP1 EXTCODESIZE ISZERO DUP1 ISZERO PUSH2 0x228A JUMPI PUSH1 0x0 DUP1 REVERT JUMPDEST POP GAS STATICCALL ISZERO DUP1 ISZERO PUSH2 0x229E JUMPI RETURNDATASIZE PUSH1 0x0 DUP1 RETURNDATACOPY RETURNDATASIZE PUSH1 0x0 REVERT JUMPDEST POP POP POP POP PUSH1 0x40 MLOAD RETURNDATASIZE PUSH1 0x1F NOT PUSH1 0x1F DUP3 ADD AND DUP3 ADD DUP1 PUSH1 0x40 MSTORE POP DUP2 ADD SWAP1 PUSH2 0x22C2 SWAP2 SWAP1 PUSH2 0x3483 JUMP JUMPDEST SWAP1 POP PUSH1 0x1 PUSH1 0x0 SWAP1 SLOAD SWAP1 PUSH2 0x100 EXP SWAP1 DIV PUSH20 0xFFFFFFFFFFFFFFFFFFFFFFFFFFFFFFFFFFFFFFFF AND PUSH20 0xFFFFFFFFFFFFFFFFFFFFFFFFFFFFFFFFFFFFFFFF AND PUSH4 0xD5674D62 DUP3 DUP10 DUP10 PUSH1 0x40 MLOAD DUP5 PUSH4 0xFFFFFFFF AND PUSH1 0xE0 SHL DUP2 MSTORE PUSH1 0x4 ADD PUSH2 0x2323 SWAP4 SWAP3 SWAP2 SWAP1 PUSH2 0x44CC JUMP JUMPDEST PUSH1 0x20 PUSH1 0x40 MLOAD DUP1 DUP4 SUB DUP2 DUP7 DUP1 EXTCODESIZE ISZERO DUP1 ISZERO PUSH2 0x233B JUMPI PUSH1 0x0 DUP1 REVERT JUMPDEST POP GAS STATICCALL ISZERO DUP1 ISZERO PUSH2 0x234F JUMPI RETURNDATASIZE PUSH1 0x0 DUP1 RETURNDATACOPY RETURNDATASIZE PUSH1 0x0 REVERT JUMPDEST POP POP POP POP PUSH1 0x40 MLOAD RETURNDATASIZE PUSH1 0x1F NOT PUSH1 0x1F DUP3 ADD AND DUP3 ADD DUP1 PUSH1 0x40 MSTORE POP DUP2 ADD SWAP1 PUSH2 0x2373 SWAP2 SWAP1 PUSH2 0x3B4C JUMP JUMPDEST PUSH2 0x23B2 JUMPI PUSH1 0x40 MLOAD PUSH32 0x8C379A000000000000000000000000000000000000000000000000000000000 DUP2 MSTORE PUSH1 0x4 ADD PUSH2 0x23A9 SWAP1 PUSH2 0x46A9 JUMP JUMPDEST PUSH1 0x40 MLOAD DUP1 SWAP2 SUB SWAP1 REVERT JUMPDEST PUSH2 0x23BE DUP4 CALLER ADDRESS DUP9 PUSH2 0x2989 JUMP JUMPDEST PUSH2 0x23C9 DUP4 ADDRESS DUP8 PUSH2 0x2AE1 JUMP JUMPDEST PUSH1 0x0 SWAP2 POP PUSH1 0x0 JUMPDEST DUP8 DUP8 SWAP1 POP DUP2 LT ISZERO PUSH2 0x261B JUMPI PUSH1 0x0 PUSH1 0x2 PUSH1 0x0 DUP5 PUSH20 0xFFFFFFFFFFFFFFFFFFFFFFFFFFFFFFFFFFFFFFFF AND PUSH20 0xFFFFFFFFFFFFFFFFFFFFFFFFFFFFFFFFFFFFFFFF AND DUP2 MSTORE PUSH1 0x20 ADD SWAP1 DUP2 MSTORE PUSH1 0x20 ADD PUSH1 0x0 KECCAK256 PUSH1 0x0 DUP11 DUP11 DUP6 DUP2 DUP2 LT PUSH2 0x2431 JUMPI PUSH2 0x2430 PUSH2 0x4BE5 JUMP JUMPDEST JUMPDEST SWAP1 POP PUSH1 0x20 MUL ADD CALLDATALOAD DUP2 MSTORE PUSH1 0x20 ADD SWAP1 DUP2 MSTORE PUSH1 0x20 ADD PUSH1 0x0 KECCAK256 SLOAD SWAP1 POP PUSH1 0x0 PUSH1 0x1 PUSH1 0x0 SWAP1 SLOAD SWAP1 PUSH2 0x100 EXP SWAP1 DIV PUSH20 0xFFFFFFFFFFFFFFFFFFFFFFFFFFFFFFFFFFFFFFFF AND PUSH20 0xFFFFFFFFFFFFFFFFFFFFFFFFFFFFFFFFFFFFFFFF AND PUSH4 0xBB7A67C7 DUP12 DUP12 DUP7 DUP2 DUP2 LT PUSH2 0x249C JUMPI PUSH2 0x249B PUSH2 0x4BE5 JUMP JUMPDEST JUMPDEST SWAP1 POP PUSH1 0x20 MUL ADD CALLDATALOAD DUP7 PUSH1 0x40 MLOAD DUP4 PUSH4 0xFFFFFFFF AND PUSH1 0xE0 SHL DUP2 MSTORE PUSH1 0x4 ADD PUSH2 0x24C1 SWAP3 SWAP2 SWAP1 PUSH2 0x478E JUMP JUMPDEST PUSH1 0x20 PUSH1 0x40 MLOAD DUP1 DUP4 SUB DUP2 DUP7 DUP1 EXTCODESIZE ISZERO DUP1 ISZERO PUSH2 0x24D9 JUMPI PUSH1 0x0 DUP1 REVERT JUMPDEST POP GAS STATICCALL ISZERO DUP1 ISZERO PUSH2 0x24ED JUMPI RETURNDATASIZE PUSH1 0x0 DUP1 RETURNDATACOPY RETURNDATASIZE PUSH1 0x0 REVERT JUMPDEST POP POP POP POP PUSH1 0x40 MLOAD RETURNDATASIZE PUSH1 0x1F NOT PUSH1 0x1F DUP3 ADD AND DUP3 ADD DUP1 PUSH1 0x40 MSTORE POP DUP2 ADD SWAP1 PUSH2 0x2511 SWAP2 SWAP1 PUSH2 0x3483 JUMP JUMPDEST SWAP1 POP PUSH1 0x0 PUSH2 0x251E DUP4 PUSH2 0x2C36 JUMP JUMPDEST SWAP1 POP PUSH2 0x253F DUP8 ADDRESS DUP5 PUSH8 0xDE0B6B3A7640000 DUP6 PUSH2 0x253A SWAP2 SWAP1 PUSH2 0x498C JUMP JUMPDEST PUSH2 0x2989 JUMP JUMPDEST DUP1 DUP7 PUSH2 0x254B SWAP2 SWAP1 PUSH2 0x4936 JUMP JUMPDEST SWAP6 POP PUSH1 0x0 DUP1 SLOAD SWAP1 PUSH2 0x100 EXP SWAP1 DIV PUSH20 0xFFFFFFFFFFFFFFFFFFFFFFFFFFFFFFFFFFFFFFFF AND PUSH20 0xFFFFFFFFFFFFFFFFFFFFFFFFFFFFFFFFFFFFFFFF AND PUSH4 0x69769501 DUP5 PUSH8 0xDE0B6B3A7640000 PUSH1 0x40 MLOAD DUP4 PUSH4 0xFFFFFFFF AND PUSH1 0xE0 SHL DUP2 MSTORE PUSH1 0x4 ADD PUSH2 0x25B0 SWAP3 SWAP2 SWAP1 PUSH2 0x47B7 JUMP JUMPDEST PUSH1 0x60 PUSH1 0x40 MLOAD DUP1 DUP4 SUB DUP2 PUSH1 0x0 DUP8 DUP1 EXTCODESIZE ISZERO DUP1 ISZERO PUSH2 0x25CA JUMPI PUSH1 0x0 DUP1 REVERT JUMPDEST POP GAS CALL ISZERO DUP1 ISZERO PUSH2 0x25DE JUMPI RETURNDATASIZE PUSH1 0x0 DUP1 RETURNDATACOPY RETURNDATASIZE PUSH1 0x0 REVERT JUMPDEST POP POP POP POP PUSH1 0x40 MLOAD RETURNDATASIZE PUSH1 0x1F NOT PUSH1 0x1F DUP3 ADD AND DUP3 ADD DUP1 PUSH1 0x40 MSTORE POP DUP2 ADD SWAP1 PUSH2 0x2602 SWAP2 SWAP1 PUSH2 0x3BB9 JUMP JUMPDEST POP POP POP POP POP POP DUP1 DUP1 PUSH2 0x2613 SWAP1 PUSH2 0x4B3E JUMP JUMPDEST SWAP2 POP POP PUSH2 0x23D0 JUMP JUMPDEST POP POP SWAP6 SWAP5 POP POP POP POP POP JUMP JUMPDEST PUSH1 0x0 PUSH2 0x2634 DUP5 CALLER ADDRESS DUP9 PUSH2 0x2989 JUMP JUMPDEST PUSH2 0x265F DUP5 PUSH32 0x0 DUP8 PUSH2 0x2AE1 JUMP JUMPDEST PUSH1 0x0 PUSH1 0x40 MLOAD DUP1 PUSH2 0x100 ADD PUSH1 0x40 MSTORE DUP1 DUP7 PUSH20 0xFFFFFFFFFFFFFFFFFFFFFFFFFFFFFFFFFFFFFFFF AND DUP2 MSTORE PUSH1 0x20 ADD DUP6 PUSH20 0xFFFFFFFFFFFFFFFFFFFFFFFFFFFFFFFFFFFFFFFF AND DUP2 MSTORE PUSH1 0x20 ADD DUP5 PUSH3 0xFFFFFF AND DUP2 MSTORE PUSH1 0x20 ADD CALLER PUSH20 0xFFFFFFFFFFFFFFFFFFFFFFFFFFFFFFFFFFFFFFFF AND DUP2 MSTORE PUSH1 0x20 ADD TIMESTAMP DUP2 MSTORE PUSH1 0x20 ADD DUP9 DUP2 MSTORE PUSH1 0x20 ADD DUP8 DUP2 MSTORE PUSH1 0x20 ADD PUSH1 0x0 PUSH20 0xFFFFFFFFFFFFFFFFFFFFFFFFFFFFFFFFFFFFFFFF AND DUP2 MSTORE POP SWAP1 POP PUSH32 0x0 PUSH20 0xFFFFFFFFFFFFFFFFFFFFFFFFFFFFFFFFFFFFFFFF AND PUSH4 0xDB3E2198 DUP3 PUSH1 0x40 MLOAD DUP3 PUSH4 0xFFFFFFFF AND PUSH1 0xE0 SHL DUP2 MSTORE PUSH1 0x4 ADD PUSH2 0x2754 SWAP2 SWAP1 PUSH2 0x4705 JUMP JUMPDEST PUSH1 0x20 PUSH1 0x40 MLOAD DUP1 DUP4 SUB DUP2 PUSH1 0x0 DUP8 DUP1 EXTCODESIZE ISZERO DUP1 ISZERO PUSH2 0x276E JUMPI PUSH1 0x0 DUP1 REVERT JUMPDEST POP GAS CALL ISZERO DUP1 ISZERO PUSH2 0x2782 JUMPI RETURNDATASIZE PUSH1 0x0 DUP1 RETURNDATACOPY RETURNDATASIZE PUSH1 0x0 REVERT JUMPDEST POP POP POP POP PUSH1 0x40 MLOAD RETURNDATASIZE PUSH1 0x1F NOT PUSH1 0x1F DUP3 ADD AND DUP3 ADD DUP1 PUSH1 0x40 MSTORE POP DUP2 ADD SWAP1 PUSH2 0x27A6 SWAP2 SWAP1 PUSH2 0x3C93 JUMP JUMPDEST SWAP2 POP DUP6 DUP3 LT ISZERO PUSH2 0x27F3 JUMPI PUSH2 0x27DC DUP6 PUSH32 0x0 PUSH1 0x0 PUSH2 0x2AE1 JUMP JUMPDEST PUSH2 0x27F2 DUP6 CALLER DUP5 DUP10 PUSH2 0x27ED SWAP2 SWAP1 PUSH2 0x49BD JUMP JUMPDEST PUSH2 0x2F59 JUMP JUMPDEST JUMPDEST POP SWAP6 SWAP5 POP POP POP POP POP JUMP JUMPDEST PUSH1 0x0 PUSH2 0x280B DUP5 CALLER ADDRESS DUP9 PUSH2 0x2989 JUMP JUMPDEST PUSH2 0x2836 DUP5 PUSH32 0x0 DUP8 PUSH2 0x2AE1 JUMP JUMPDEST PUSH1 0x0 PUSH1 0x40 MLOAD DUP1 PUSH2 0x100 ADD PUSH1 0x40 MSTORE DUP1 DUP7 PUSH20 0xFFFFFFFFFFFFFFFFFFFFFFFFFFFFFFFFFFFFFFFF AND DUP2 MSTORE PUSH1 0x20 ADD DUP6 PUSH20 0xFFFFFFFFFFFFFFFFFFFFFFFFFFFFFFFFFFFFFFFF AND DUP2 MSTORE PUSH1 0x20 ADD DUP5 PUSH3 0xFFFFFF AND DUP2 MSTORE PUSH1 0x20 ADD CALLER PUSH20 0xFFFFFFFFFFFFFFFFFFFFFFFFFFFFFFFFFFFFFFFF AND DUP2 MSTORE PUSH1 0x20 ADD TIMESTAMP DUP2 MSTORE PUSH1 0x20 ADD DUP8 DUP2 MSTORE PUSH1 0x20 ADD PUSH1 0x0 DUP2 MSTORE PUSH1 0x20 ADD PUSH1 0x0 PUSH20 0xFFFFFFFFFFFFFFFFFFFFFFFFFFFFFFFFFFFFFFFF AND DUP2 MSTORE POP SWAP1 POP PUSH32 0x0 PUSH20 0xFFFFFFFFFFFFFFFFFFFFFFFFFFFFFFFFFFFFFFFF AND PUSH4 0x414BF389 DUP3 PUSH1 0x40 MLOAD DUP3 PUSH4 0xFFFFFFFF AND PUSH1 0xE0 SHL DUP2 MSTORE PUSH1 0x4 ADD PUSH2 0x292C SWAP2 SWAP1 PUSH2 0x46E9 JUMP JUMPDEST PUSH1 0x20 PUSH1 0x40 MLOAD DUP1 DUP4 SUB DUP2 PUSH1 0x0 DUP8 DUP1 EXTCODESIZE ISZERO DUP1 ISZERO PUSH2 0x2946 JUMPI PUSH1 0x0 DUP1 REVERT JUMPDEST POP GAS CALL ISZERO DUP1 ISZERO PUSH2 0x295A JUMPI RETURNDATASIZE PUSH1 0x0 DUP1 RETURNDATACOPY RETURNDATASIZE PUSH1 0x0 REVERT JUMPDEST POP POP POP POP PUSH1 0x40 MLOAD RETURNDATASIZE PUSH1 0x1F NOT PUSH1 0x1F DUP3 ADD AND DUP3 ADD DUP1 PUSH1 0x40 MSTORE POP DUP2 ADD SWAP1 PUSH2 0x297E SWAP2 SWAP1 PUSH2 0x3C93 JUMP JUMPDEST SWAP2 POP POP SWAP5 SWAP4 POP POP POP POP JUMP JUMPDEST PUSH1 0x0 DUP1 DUP6 PUSH20 0xFFFFFFFFFFFFFFFFFFFFFFFFFFFFFFFFFFFFFFFF AND PUSH4 0x23B872DD PUSH1 0xE0 SHL DUP7 DUP7 DUP7 PUSH1 0x40 MLOAD PUSH1 0x24 ADD PUSH2 0x29C0 SWAP4 SWAP3 SWAP2 SWAP1 PUSH2 0x4495 JUMP JUMPDEST PUSH1 0x40 MLOAD PUSH1 0x20 DUP2 DUP4 SUB SUB DUP2 MSTORE SWAP1 PUSH1 0x40 MSTORE SWAP1 PUSH28 0xFFFFFFFFFFFFFFFFFFFFFFFFFFFFFFFFFFFFFFFFFFFFFFFFFFFFFFFF NOT AND PUSH1 0x20 DUP3 ADD DUP1 MLOAD PUSH28 0xFFFFFFFFFFFFFFFFFFFFFFFFFFFFFFFFFFFFFFFFFFFFFFFFFFFFFFFF DUP4 DUP2 DUP4 AND OR DUP4 MSTORE POP POP POP POP PUSH1 0x40 MLOAD PUSH2 0x2A2A SWAP2 SWAP1 PUSH2 0x4287 JUMP JUMPDEST PUSH1 0x0 PUSH1 0x40 MLOAD DUP1 DUP4 SUB DUP2 PUSH1 0x0 DUP7 GAS CALL SWAP2 POP POP RETURNDATASIZE DUP1 PUSH1 0x0 DUP2 EQ PUSH2 0x2A67 JUMPI PUSH1 0x40 MLOAD SWAP2 POP PUSH1 0x1F NOT PUSH1 0x3F RETURNDATASIZE ADD AND DUP3 ADD PUSH1 0x40 MSTORE RETURNDATASIZE DUP3 MSTORE RETURNDATASIZE PUSH1 0x0 PUSH1 0x20 DUP5 ADD RETURNDATACOPY PUSH2 0x2A6C JUMP JUMPDEST PUSH1 0x60 SWAP2 POP JUMPDEST POP SWAP2 POP SWAP2 POP DUP2 DUP1 ISZERO PUSH2 0x2A9A JUMPI POP PUSH1 0x0 DUP2 MLOAD EQ DUP1 PUSH2 0x2A99 JUMPI POP DUP1 DUP1 PUSH1 0x20 ADD SWAP1 MLOAD DUP2 ADD SWAP1 PUSH2 0x2A98 SWAP2 SWAP1 PUSH2 0x3B4C JUMP JUMPDEST JUMPDEST JUMPDEST PUSH2 0x2AD9 JUMPI PUSH1 0x40 MLOAD PUSH32 0x8C379A000000000000000000000000000000000000000000000000000000000 DUP2 MSTORE PUSH1 0x4 ADD PUSH2 0x2AD0 SWAP1 PUSH2 0x46C9 JUMP JUMPDEST PUSH1 0x40 MLOAD DUP1 SWAP2 SUB SWAP1 REVERT JUMPDEST POP POP POP POP POP POP JUMP JUMPDEST PUSH1 0x0 DUP1 DUP5 PUSH20 0xFFFFFFFFFFFFFFFFFFFFFFFFFFFFFFFFFFFFFFFF AND PUSH4 0x95EA7B3 PUSH1 0xE0 SHL DUP6 DUP6 PUSH1 0x40 MLOAD PUSH1 0x24 ADD PUSH2 0x2B16 SWAP3 SWAP2 SWAP1 PUSH2 0x4528 JUMP JUMPDEST PUSH1 0x40 MLOAD PUSH1 0x20 DUP2 DUP4 SUB SUB DUP2 MSTORE SWAP1 PUSH1 0x40 MSTORE SWAP1 PUSH28 0xFFFFFFFFFFFFFFFFFFFFFFFFFFFFFFFFFFFFFFFFFFFFFFFFFFFFFFFF NOT AND PUSH1 0x20 DUP3 ADD DUP1 MLOAD PUSH28 0xFFFFFFFFFFFFFFFFFFFFFFFFFFFFFFFFFFFFFFFFFFFFFFFFFFFFFFFF DUP4 DUP2 DUP4 AND OR DUP4 MSTORE POP POP POP POP PUSH1 0x40 MLOAD PUSH2 0x2B80 SWAP2 SWAP1 PUSH2 0x4287 JUMP JUMPDEST PUSH1 0x0 PUSH1 0x40 MLOAD DUP1 DUP4 SUB DUP2 PUSH1 0x0 DUP7 GAS CALL SWAP2 POP POP RETURNDATASIZE DUP1 PUSH1 0x0 DUP2 EQ PUSH2 0x2BBD JUMPI PUSH1 0x40 MLOAD SWAP2 POP PUSH1 0x1F NOT PUSH1 0x3F RETURNDATASIZE ADD AND DUP3 ADD PUSH1 0x40 MSTORE RETURNDATASIZE DUP3 MSTORE RETURNDATASIZE PUSH1 0x0 PUSH1 0x20 DUP5 ADD RETURNDATACOPY PUSH2 0x2BC2 JUMP JUMPDEST PUSH1 0x60 SWAP2 POP JUMPDEST POP SWAP2 POP SWAP2 POP DUP2 DUP1 ISZERO PUSH2 0x2BF0 JUMPI POP PUSH1 0x0 DUP2 MLOAD EQ DUP1 PUSH2 0x2BEF JUMPI POP DUP1 DUP1 PUSH1 0x20 ADD SWAP1 MLOAD DUP2 ADD SWAP1 PUSH2 0x2BEE SWAP2 SWAP1 PUSH2 0x3B4C JUMP JUMPDEST JUMPDEST JUMPDEST PUSH2 0x2C2F JUMPI PUSH1 0x40 MLOAD PUSH32 0x8C379A000000000000000000000000000000000000000000000000000000000 DUP2 MSTORE PUSH1 0x4 ADD PUSH2 0x2C26 SWAP1 PUSH2 0x4609 JUMP JUMPDEST PUSH1 0x40 MLOAD DUP1 SWAP2 SUB SWAP1 REVERT JUMPDEST POP POP POP POP POP JUMP JUMPDEST PUSH1 0x0 DUP1 PUSH1 0x0 DUP1 PUSH1 0x0 SWAP1 SLOAD SWAP1 PUSH2 0x100 EXP SWAP1 DIV PUSH20 0xFFFFFFFFFFFFFFFFFFFFFFFFFFFFFFFFFFFFFFFF AND PUSH20 0xFFFFFFFFFFFFFFFFFFFFFFFFFFFFFFFFFFFFFFFF AND PUSH4 0x519F5099 DUP6 PUSH1 0x40 MLOAD DUP3 PUSH4 0xFFFFFFFF AND PUSH1 0xE0 SHL DUP2 MSTORE PUSH1 0x4 ADD PUSH2 0x2C95 SWAP2 SWAP1 PUSH2 0x4773 JUMP JUMPDEST PUSH1 0x40 DUP1 MLOAD DUP1 DUP4 SUB DUP2 DUP7 DUP1 EXTCODESIZE ISZERO DUP1 ISZERO PUSH2 0x2CAC JUMPI PUSH1 0x0 DUP1 REVERT JUMPDEST POP GAS STATICCALL ISZERO DUP1 ISZERO PUSH2 0x2CC0 JUMPI RETURNDATASIZE PUSH1 0x0 DUP1 RETURNDATACOPY RETURNDATASIZE PUSH1 0x0 REVERT JUMPDEST POP POP POP POP PUSH1 0x40 MLOAD RETURNDATASIZE PUSH1 0x1F NOT PUSH1 0x1F DUP3 ADD AND DUP3 ADD DUP1 PUSH1 0x40 MSTORE POP DUP2 ADD SWAP1 PUSH2 0x2CE4 SWAP2 SWAP1 PUSH2 0x3B79 JUMP JUMPDEST SWAP2 POP SWAP2 POP PUSH1 0x0 PUSH20 0x0 PUSH4 0x986CFBA3 DUP5 PUSH1 0x40 MLOAD DUP3 PUSH4 0xFFFFFFFF AND PUSH1 0xE0 SHL DUP2 MSTORE PUSH1 0x4 ADD PUSH2 0x2D21 SWAP2 SWAP1 PUSH2 0x45EE JUMP JUMPDEST PUSH1 0x20 PUSH1 0x40 MLOAD DUP1 DUP4 SUB DUP2 DUP7 DUP1 EXTCODESIZE ISZERO DUP1 ISZERO PUSH2 0x2D39 JUMPI PUSH1 0x0 DUP1 REVERT JUMPDEST POP GAS DELEGATECALL ISZERO DUP1 ISZERO PUSH2 0x2D4D JUMPI RETURNDATASIZE PUSH1 0x0 DUP1 RETURNDATACOPY RETURNDATASIZE PUSH1 0x0 REVERT JUMPDEST POP POP POP POP PUSH1 0x40 MLOAD RETURNDATASIZE PUSH1 0x1F NOT PUSH1 0x1F DUP3 ADD AND DUP3 ADD DUP1 PUSH1 0x40 MSTORE POP DUP2 ADD SWAP1 PUSH2 0x2D71 SWAP2 SWAP1 PUSH2 0x3C0C JUMP JUMPDEST PUSH20 0xFFFFFFFFFFFFFFFFFFFFFFFFFFFFFFFFFFFFFFFF AND SWAP1 POP PUSH1 0x0 PUSH20 0x0 PUSH4 0x986CFBA3 DUP5 PUSH1 0x40 MLOAD DUP3 PUSH4 0xFFFFFFFF AND PUSH1 0xE0 SHL DUP2 MSTORE PUSH1 0x4 ADD PUSH2 0x2DC2 SWAP2 SWAP1 PUSH2 0x45EE JUMP JUMPDEST PUSH1 0x20 PUSH1 0x40 MLOAD DUP1 DUP4 SUB DUP2 DUP7 DUP1 EXTCODESIZE ISZERO DUP1 ISZERO PUSH2 0x2DDA JUMPI PUSH1 0x0 DUP1 REVERT JUMPDEST POP GAS DELEGATECALL ISZERO DUP1 ISZERO PUSH2 0x2DEE JUMPI RETURNDATASIZE PUSH1 0x0 DUP1 RETURNDATACOPY RETURNDATASIZE PUSH1 0x0 REVERT JUMPDEST POP POP POP POP PUSH1 0x40 MLOAD RETURNDATASIZE PUSH1 0x1F NOT PUSH1 0x1F DUP3 ADD AND DUP3 ADD DUP1 PUSH1 0x40 MSTORE POP DUP2 ADD SWAP1 PUSH2 0x2E12 SWAP2 SWAP1 PUSH2 0x3C0C JUMP JUMPDEST PUSH20 0xFFFFFFFFFFFFFFFFFFFFFFFFFFFFFFFFFFFFFFFF AND SWAP1 POP PUSH1 0x2 PUSH20 0x0 PUSH4 0xE7572230 DUP4 PUSH1 0x40 MLOAD DUP3 PUSH4 0xFFFFFFFF AND PUSH1 0xE0 SHL DUP2 MSTORE PUSH1 0x4 ADD PUSH2 0x2E63 SWAP2 SWAP1 PUSH2 0x4758 JUMP JUMPDEST PUSH1 0x20 PUSH1 0x40 MLOAD DUP1 DUP4 SUB DUP2 DUP7 DUP1 EXTCODESIZE ISZERO DUP1 ISZERO PUSH2 0x2E7B JUMPI PUSH1 0x0 DUP1 REVERT JUMPDEST POP GAS DELEGATECALL ISZERO DUP1 ISZERO PUSH2 0x2E8F JUMPI RETURNDATASIZE PUSH1 0x0 DUP1 RETURNDATACOPY RETURNDATASIZE PUSH1 0x0 REVERT JUMPDEST POP POP POP POP PUSH1 0x40 MLOAD RETURNDATASIZE PUSH1 0x1F NOT PUSH1 0x1F DUP3 ADD AND DUP3 ADD DUP1 PUSH1 0x40 MSTORE POP DUP2 ADD SWAP1 PUSH2 0x2EB3 SWAP2 SWAP1 PUSH2 0x3C93 JUMP JUMPDEST PUSH20 0x0 PUSH4 0xE7572230 DUP6 PUSH1 0x40 MLOAD DUP3 PUSH4 0xFFFFFFFF AND PUSH1 0xE0 SHL DUP2 MSTORE PUSH1 0x4 ADD PUSH2 0x2EEA SWAP2 SWAP1 PUSH2 0x4758 JUMP JUMPDEST PUSH1 0x20 PUSH1 0x40 MLOAD DUP1 DUP4 SUB DUP2 DUP7 DUP1 EXTCODESIZE ISZERO DUP1 ISZERO PUSH2 0x2F02 JUMPI PUSH1 0x0 DUP1 REVERT JUMPDEST POP GAS DELEGATECALL ISZERO DUP1 ISZERO PUSH2 0x2F16 JUMPI RETURNDATASIZE PUSH1 0x0 DUP1 RETURNDATACOPY RETURNDATASIZE PUSH1 0x0 REVERT JUMPDEST POP POP POP POP PUSH1 0x40 MLOAD RETURNDATASIZE PUSH1 0x1F NOT PUSH1 0x1F DUP3 ADD AND DUP3 ADD DUP1 PUSH1 0x40 MSTORE POP DUP2 ADD SWAP1 PUSH2 0x2F3A SWAP2 SWAP1 PUSH2 0x3C93 JUMP JUMPDEST PUSH2 0x2F44 SWAP2 SWAP1 PUSH2 0x4936 JUMP JUMPDEST PUSH2 0x2F4E SWAP2 SWAP1 PUSH2 0x498C JUMP JUMPDEST SWAP5 POP POP POP POP POP SWAP2 SWAP1 POP JUMP JUMPDEST PUSH1 0x0 DUP1 DUP5 PUSH20 0xFFFFFFFFFFFFFFFFFFFFFFFFFFFFFFFFFFFFFFFF AND PUSH4 0xA9059CBB PUSH1 0xE0 SHL DUP6 DUP6 PUSH1 0x40 MLOAD PUSH1 0x24 ADD PUSH2 0x2F8E SWAP3 SWAP2 SWAP1 PUSH2 0x4528 JUMP JUMPDEST PUSH1 0x40 MLOAD PUSH1 0x20 DUP2 DUP4 SUB SUB DUP2 MSTORE SWAP1 PUSH1 0x40 MSTORE SWAP1 PUSH28 0xFFFFFFFFFFFFFFFFFFFFFFFFFFFFFFFFFFFFFFFFFFFFFFFFFFFFFFFF NOT AND PUSH1 0x20 DUP3 ADD DUP1 MLOAD PUSH28 0xFFFFFFFFFFFFFFFFFFFFFFFFFFFFFFFFFFFFFFFFFFFFFFFFFFFFFFFF DUP4 DUP2 DUP4 AND OR DUP4 MSTORE POP POP POP POP PUSH1 0x40 MLOAD PUSH2 0x2FF8 SWAP2 SWAP1 PUSH2 0x4287 JUMP JUMPDEST PUSH1 0x0 PUSH1 0x40 MLOAD DUP1 DUP4 SUB DUP2 PUSH1 0x0 DUP7 GAS CALL SWAP2 POP POP RETURNDATASIZE DUP1 PUSH1 0x0 DUP2 EQ PUSH2 0x3035 JUMPI PUSH1 0x40 MLOAD SWAP2 POP PUSH1 0x1F NOT PUSH1 0x3F RETURNDATASIZE ADD AND DUP3 ADD PUSH1 0x40 MSTORE RETURNDATASIZE DUP3 MSTORE RETURNDATASIZE PUSH1 0x0 PUSH1 0x20 DUP5 ADD RETURNDATACOPY PUSH2 0x303A JUMP JUMPDEST PUSH1 0x60 SWAP2 POP JUMPDEST POP SWAP2 POP SWAP2 POP DUP2 DUP1 ISZERO PUSH2 0x3068 JUMPI POP PUSH1 0x0 DUP2 MLOAD EQ DUP1 PUSH2 0x3067 JUMPI POP DUP1 DUP1 PUSH1 0x20 ADD SWAP1 MLOAD DUP2 ADD SWAP1 PUSH2 0x3066 SWAP2 SWAP1 PUSH2 0x3B4C JUMP JUMPDEST JUMPDEST JUMPDEST PUSH2 0x30A7 JUMPI PUSH1 0x40 MLOAD PUSH32 0x8C379A000000000000000000000000000000000000000000000000000000000 DUP2 MSTORE PUSH1 0x4 ADD PUSH2 0x309E SWAP1 PUSH2 0x4669 JUMP JUMPDEST PUSH1 0x40 MLOAD DUP1 SWAP2 SUB SWAP1 REVERT JUMPDEST POP POP POP POP POP JUMP JUMPDEST PUSH1 0x0 PUSH2 0x30C1 PUSH2 0x30BC DUP5 PUSH2 0x48AA JUMP JUMPDEST PUSH2 0x4885 JUMP JUMPDEST SWAP1 POP DUP1 DUP4 DUP3 MSTORE PUSH1 0x20 DUP3 ADD SWAP1 POP DUP3 DUP6 PUSH1 0x20 DUP7 MUL DUP3 ADD GT ISZERO PUSH2 0x30E4 JUMPI PUSH2 0x30E3 PUSH2 0x4C52 JUMP JUMPDEST JUMPDEST PUSH1 0x0 JUMPDEST DUP6 DUP2 LT ISZERO PUSH2 0x3114 JUMPI DUP2 PUSH2 0x30FA DUP9 DUP3 PUSH2 0x342C JUMP JUMPDEST DUP5 MSTORE PUSH1 0x20 DUP5 ADD SWAP4 POP PUSH1 0x20 DUP4 ADD SWAP3 POP POP PUSH1 0x1 DUP2 ADD SWAP1 POP PUSH2 0x30E7 JUMP JUMPDEST POP POP POP SWAP4 SWAP3 POP POP POP JUMP JUMPDEST PUSH1 0x0 DUP2 CALLDATALOAD SWAP1 POP PUSH2 0x312D DUP2 PUSH2 0x4DBC JUMP JUMPDEST SWAP3 SWAP2 POP POP JUMP JUMPDEST PUSH1 0x0 DUP2 MLOAD SWAP1 POP PUSH2 0x3142 DUP2 PUSH2 0x4DBC JUMP JUMPDEST SWAP3 SWAP2 POP POP JUMP JUMPDEST PUSH1 0x0 DUP1 DUP4 PUSH1 0x1F DUP5 ADD SLT PUSH2 0x315E JUMPI PUSH2 0x315D PUSH2 0x4C48 JUMP JUMPDEST JUMPDEST DUP3 CALLDATALOAD SWAP1 POP PUSH8 0xFFFFFFFFFFFFFFFF DUP2 GT ISZERO PUSH2 0x317B JUMPI PUSH2 0x317A PUSH2 0x4C43 JUMP JUMPDEST JUMPDEST PUSH1 0x20 DUP4 ADD SWAP2 POP DUP4 PUSH1 0x20 DUP3 MUL DUP4 ADD GT ISZERO PUSH2 0x3197 JUMPI PUSH2 0x3196 PUSH2 0x4C52 JUMP JUMPDEST JUMPDEST SWAP3 POP SWAP3 SWAP1 POP JUMP JUMPDEST PUSH1 0x0 DUP1 DUP4 PUSH1 0x1F DUP5 ADD SLT PUSH2 0x31B4 JUMPI PUSH2 0x31B3 PUSH2 0x4C48 JUMP JUMPDEST JUMPDEST DUP3 CALLDATALOAD SWAP1 POP PUSH8 0xFFFFFFFFFFFFFFFF DUP2 GT ISZERO PUSH2 0x31D1 JUMPI PUSH2 0x31D0 PUSH2 0x4C43 JUMP JUMPDEST JUMPDEST PUSH1 0x20 DUP4 ADD SWAP2 POP DUP4 PUSH1 0x20 DUP3 MUL DUP4 ADD GT ISZERO PUSH2 0x31ED JUMPI PUSH2 0x31EC PUSH2 0x4C52 JUMP JUMPDEST JUMPDEST SWAP3 POP SWAP3 SWAP1 POP JUMP JUMPDEST PUSH1 0x0 DUP1 DUP4 PUSH1 0x1F DUP5 ADD SLT PUSH2 0x320A JUMPI PUSH2 0x3209 PUSH2 0x4C48 JUMP JUMPDEST JUMPDEST DUP3 CALLDATALOAD SWAP1 POP PUSH8 0xFFFFFFFFFFFFFFFF DUP2 GT ISZERO PUSH2 0x3227 JUMPI PUSH2 0x3226 PUSH2 0x4C43 JUMP JUMPDEST JUMPDEST PUSH1 0x20 DUP4 ADD SWAP2 POP DUP4 PUSH1 0x20 DUP3 MUL DUP4 ADD GT ISZERO PUSH2 0x3243 JUMPI PUSH2 0x3242 PUSH2 0x4C52 JUMP JUMPDEST JUMPDEST SWAP3 POP SWAP3 SWAP1 POP JUMP JUMPDEST PUSH1 0x0 DUP3 PUSH1 0x1F DUP4 ADD SLT PUSH2 0x325F JUMPI PUSH2 0x325E PUSH2 0x4C48 JUMP JUMPDEST JUMPDEST DUP2 CALLDATALOAD PUSH2 0x326F DUP5 DUP3 PUSH1 0x20 DUP7 ADD PUSH2 0x30AE JUMP JUMPDEST SWAP2 POP POP SWAP3 SWAP2 POP POP JUMP JUMPDEST PUSH1 0x0 DUP2 MLOAD SWAP1 POP PUSH2 0x3287 DUP2 PUSH2 0x4DD3 JUMP JUMPDEST SWAP3 SWAP2 POP POP JUMP JUMPDEST PUSH1 0x0 DUP2 CALLDATALOAD SWAP1 POP PUSH2 0x329C DUP2 PUSH2 0x4DEA JUMP JUMPDEST SWAP3 SWAP2 POP POP JUMP JUMPDEST PUSH1 0x0 DUP2 MLOAD SWAP1 POP PUSH2 0x32B1 DUP2 PUSH2 0x4DEA JUMP JUMPDEST SWAP3 SWAP2 POP POP JUMP JUMPDEST PUSH1 0x0 PUSH2 0x160 DUP3 DUP5 SUB SLT ISZERO PUSH2 0x32CE JUMPI PUSH2 0x32CD PUSH2 0x4C4D JUMP JUMPDEST JUMPDEST PUSH2 0x32D9 PUSH2 0x160 PUSH2 0x4885 JUMP JUMPDEST SWAP1 POP PUSH1 0x0 PUSH2 0x32E9 DUP5 DUP3 DUP6 ADD PUSH2 0x311E JUMP JUMPDEST PUSH1 0x0 DUP4 ADD MSTORE POP PUSH1 0x20 PUSH2 0x32FD DUP5 DUP3 DUP6 ADD PUSH2 0x311E JUMP JUMPDEST PUSH1 0x20 DUP4 ADD MSTORE POP PUSH1 0x40 PUSH2 0x3311 DUP5 DUP3 DUP6 ADD PUSH2 0x3417 JUMP JUMPDEST PUSH1 0x40 DUP4 ADD MSTORE POP PUSH1 0x60 PUSH2 0x3325 DUP5 DUP3 DUP6 ADD PUSH2 0x328D JUMP JUMPDEST PUSH1 0x60 DUP4 ADD MSTORE POP PUSH1 0x80 PUSH2 0x3339 DUP5 DUP3 DUP6 ADD PUSH2 0x328D JUMP JUMPDEST PUSH1 0x80 DUP4 ADD MSTORE POP PUSH1 0xA0 PUSH2 0x334D DUP5 DUP3 DUP6 ADD PUSH2 0x342C JUMP JUMPDEST PUSH1 0xA0 DUP4 ADD MSTORE POP PUSH1 0xC0 PUSH2 0x3361 DUP5 DUP3 DUP6 ADD PUSH2 0x342C JUMP JUMPDEST PUSH1 0xC0 DUP4 ADD MSTORE POP PUSH1 0xE0 PUSH2 0x3375 DUP5 DUP3 DUP6 ADD PUSH2 0x342C JUMP JUMPDEST PUSH1 0xE0 DUP4 ADD MSTORE POP PUSH2 0x100 PUSH2 0x338A DUP5 DUP3 DUP6 ADD PUSH2 0x342C JUMP JUMPDEST PUSH2 0x100 DUP4 ADD MSTORE POP PUSH2 0x120 PUSH2 0x33A0 DUP5 DUP3 DUP6 ADD PUSH2 0x311E JUMP JUMPDEST PUSH2 0x120 DUP4 ADD MSTORE POP PUSH2 0x140 PUSH2 0x33B6 DUP5 DUP3 DUP6 ADD PUSH2 0x342C JUMP JUMPDEST PUSH2 0x140 DUP4 ADD MSTORE POP SWAP3 SWAP2 POP POP JUMP JUMPDEST PUSH1 0x0 DUP2 CALLDATALOAD SWAP1 POP PUSH2 0x33D2 DUP2 PUSH2 0x4E01 JUMP JUMPDEST SWAP3 SWAP2 POP POP JUMP JUMPDEST PUSH1 0x0 DUP2 MLOAD SWAP1 POP PUSH2 0x33E7 DUP2 PUSH2 0x4E01 JUMP JUMPDEST SWAP3 SWAP2 POP POP JUMP JUMPDEST PUSH1 0x0 DUP2 CALLDATALOAD SWAP1 POP PUSH2 0x33FC DUP2 PUSH2 0x4E18 JUMP JUMPDEST SWAP3 SWAP2 POP POP JUMP JUMPDEST PUSH1 0x0 DUP2 MLOAD SWAP1 POP PUSH2 0x3411 DUP2 PUSH2 0x4E18 JUMP JUMPDEST SWAP3 SWAP2 POP POP JUMP JUMPDEST PUSH1 0x0 DUP2 CALLDATALOAD SWAP1 POP PUSH2 0x3426 DUP2 PUSH2 0x4E2F JUMP JUMPDEST SWAP3 SWAP2 POP POP JUMP JUMPDEST PUSH1 0x0 DUP2 CALLDATALOAD SWAP1 POP PUSH2 0x343B DUP2 PUSH2 0x4E46 JUMP JUMPDEST SWAP3 SWAP2 POP POP JUMP JUMPDEST PUSH1 0x0 DUP2 MLOAD SWAP1 POP PUSH2 0x3450 DUP2 PUSH2 0x4E46 JUMP JUMPDEST SWAP3 SWAP2 POP POP JUMP JUMPDEST PUSH1 0x0 PUSH1 0x20 DUP3 DUP5 SUB SLT ISZERO PUSH2 0x346C JUMPI PUSH2 0x346B PUSH2 0x4C61 JUMP JUMPDEST JUMPDEST PUSH1 0x0 PUSH2 0x347A DUP5 DUP3 DUP6 ADD PUSH2 0x311E JUMP JUMPDEST SWAP2 POP POP SWAP3 SWAP2 POP POP JUMP JUMPDEST PUSH1 0x0 PUSH1 0x20 DUP3 DUP5 SUB SLT ISZERO PUSH2 0x3499 JUMPI PUSH2 0x3498 PUSH2 0x4C61 JUMP JUMPDEST JUMPDEST PUSH1 0x0 PUSH2 0x34A7 DUP5 DUP3 DUP6 ADD PUSH2 0x3133 JUMP JUMPDEST SWAP2 POP POP SWAP3 SWAP2 POP POP JUMP JUMPDEST PUSH1 0x0 DUP1 PUSH1 0x0 DUP1 PUSH1 0x0 DUP1 PUSH1 0x0 PUSH2 0x220 DUP9 DUP11 SUB SLT ISZERO PUSH2 0x34D0 JUMPI PUSH2 0x34CF PUSH2 0x4C61 JUMP JUMPDEST JUMPDEST PUSH1 0x0 PUSH2 0x34DE DUP11 DUP3 DUP12 ADD PUSH2 0x311E JUMP JUMPDEST SWAP8 POP POP PUSH1 0x20 PUSH2 0x34EF DUP11 DUP3 DUP12 ADD PUSH2 0x311E JUMP JUMPDEST SWAP7 POP POP PUSH1 0x40 PUSH2 0x3500 DUP11 DUP3 DUP12 ADD PUSH2 0x311E JUMP JUMPDEST SWAP6 POP POP PUSH1 0x60 DUP9 ADD CALLDATALOAD PUSH8 0xFFFFFFFFFFFFFFFF DUP2 GT ISZERO PUSH2 0x3521 JUMPI PUSH2 0x3520 PUSH2 0x4C57 JUMP JUMPDEST JUMPDEST PUSH2 0x352D DUP11 DUP3 DUP12 ADD PUSH2 0x324A JUMP JUMPDEST SWAP5 POP POP PUSH1 0x80 PUSH2 0x353E DUP11 DUP3 DUP12 ADD PUSH2 0x342C JUMP JUMPDEST SWAP4 POP POP PUSH1 0xA0 PUSH2 0x354F DUP11 DUP3 DUP12 ADD PUSH2 0x342C JUMP JUMPDEST SWAP3 POP POP PUSH1 0xC0 PUSH2 0x3560 DUP11 DUP3 DUP12 ADD PUSH2 0x32B7 JUMP JUMPDEST SWAP2 POP POP SWAP3 SWAP6 SWAP9 SWAP2 SWAP5 SWAP8 POP SWAP3 SWAP6 POP JUMP JUMPDEST PUSH1 0x0 DUP1 PUSH1 0x0 PUSH2 0x1A0 DUP5 DUP7 SUB SLT ISZERO PUSH2 0x3589 JUMPI PUSH2 0x3588 PUSH2 0x4C61 JUMP JUMPDEST JUMPDEST PUSH1 0x0 PUSH2 0x3597 DUP7 DUP3 DUP8 ADD PUSH2 0x311E JUMP JUMPDEST SWAP4 POP POP PUSH1 0x20 PUSH2 0x35A8 DUP7 DUP3 DUP8 ADD PUSH2 0x311E JUMP JUMPDEST SWAP3 POP POP PUSH1 0x40 PUSH2 0x35B9 DUP7 DUP3 DUP8 ADD PUSH2 0x32B7 JUMP JUMPDEST SWAP2 POP POP SWAP3 POP SWAP3 POP SWAP3 JUMP JUMPDEST PUSH1 0x0 DUP1 PUSH1 0x0 DUP1 PUSH1 0x0 PUSH1 0xA0 DUP7 DUP9 SUB SLT ISZERO PUSH2 0x35DF JUMPI PUSH2 0x35DE PUSH2 0x4C61 JUMP JUMPDEST JUMPDEST PUSH1 0x0 PUSH2 0x35ED DUP9 DUP3 DUP10 ADD PUSH2 0x311E JUMP JUMPDEST SWAP6 POP POP PUSH1 0x20 PUSH2 0x35FE DUP9 DUP3 DUP10 ADD PUSH2 0x311E JUMP JUMPDEST SWAP5 POP POP PUSH1 0x40 PUSH2 0x360F DUP9 DUP3 DUP10 ADD PUSH2 0x342C JUMP JUMPDEST SWAP4 POP POP PUSH1 0x60 PUSH2 0x3620 DUP9 DUP3 DUP10 ADD PUSH2 0x3417 JUMP JUMPDEST SWAP3 POP POP PUSH1 0x80 PUSH2 0x3631 DUP9 DUP3 DUP10 ADD PUSH2 0x33ED JUMP JUMPDEST SWAP2 POP POP SWAP3 SWAP6 POP SWAP3 SWAP6 SWAP1 SWAP4 POP JUMP JUMPDEST PUSH1 0x0 DUP1 PUSH1 0x0 DUP1 PUSH1 0x0 DUP1 PUSH1 0x0 DUP1 PUSH1 0x0 DUP1 PUSH1 0x0 PUSH1 0xC0 DUP13 DUP15 SUB SLT ISZERO PUSH2 0x3663 JUMPI PUSH2 0x3662 PUSH2 0x4C61 JUMP JUMPDEST JUMPDEST PUSH1 0x0 PUSH2 0x3671 DUP15 DUP3 DUP16 ADD PUSH2 0x311E JUMP JUMPDEST SWAP12 POP POP PUSH1 0x20 DUP13 ADD CALLDATALOAD PUSH8 0xFFFFFFFFFFFFFFFF DUP2 GT ISZERO PUSH2 0x3692 JUMPI PUSH2 0x3691 PUSH2 0x4C57 JUMP JUMPDEST JUMPDEST PUSH2 0x369E DUP15 DUP3 DUP16 ADD PUSH2 0x31F4 JUMP JUMPDEST SWAP11 POP SWAP11 POP POP PUSH1 0x40 DUP13 ADD CALLDATALOAD PUSH8 0xFFFFFFFFFFFFFFFF DUP2 GT ISZERO PUSH2 0x36C1 JUMPI PUSH2 0x36C0 PUSH2 0x4C57 JUMP JUMPDEST JUMPDEST PUSH2 0x36CD DUP15 DUP3 DUP16 ADD PUSH2 0x3148 JUMP JUMPDEST SWAP9 POP SWAP9 POP POP PUSH1 0x60 DUP13 ADD CALLDATALOAD PUSH8 0xFFFFFFFFFFFFFFFF DUP2 GT ISZERO PUSH2 0x36F0 JUMPI PUSH2 0x36EF PUSH2 0x4C57 JUMP JUMPDEST JUMPDEST PUSH2 0x36FC DUP15 DUP3 DUP16 ADD PUSH2 0x31F4 JUMP JUMPDEST SWAP7 POP SWAP7 POP POP PUSH1 0x80 DUP13 ADD CALLDATALOAD PUSH8 0xFFFFFFFFFFFFFFFF DUP2 GT ISZERO PUSH2 0x371F JUMPI PUSH2 0x371E PUSH2 0x4C57 JUMP JUMPDEST JUMPDEST PUSH2 0x372B DUP15 DUP3 DUP16 ADD PUSH2 0x31F4 JUMP JUMPDEST SWAP5 POP SWAP5 POP POP PUSH1 0xA0 DUP13 ADD CALLDATALOAD PUSH8 0xFFFFFFFFFFFFFFFF DUP2 GT ISZERO PUSH2 0x374E JUMPI PUSH2 0x374D PUSH2 0x4C57 JUMP JUMPDEST JUMPDEST PUSH2 0x375A DUP15 DUP3 DUP16 ADD PUSH2 0x319E JUMP JUMPDEST SWAP3 POP SWAP3 POP POP SWAP3 SWAP6 SWAP9 SWAP12 POP SWAP3 SWAP6 SWAP9 SWAP12 SWAP1 SWAP4 SWAP7 SWAP10 POP JUMP JUMPDEST PUSH1 0x0 DUP1 PUSH1 0x0 DUP1 PUSH1 0x0 DUP1 PUSH1 0x0 PUSH1 0xC0 DUP9 DUP11 SUB SLT ISZERO PUSH2 0x378E JUMPI PUSH2 0x378D PUSH2 0x4C61 JUMP JUMPDEST JUMPDEST PUSH1 0x0 PUSH2 0x379C DUP11 DUP3 DUP12 ADD PUSH2 0x311E JUMP JUMPDEST SWAP8 POP POP PUSH1 0x20 PUSH2 0x37AD DUP11 DUP3 DUP12 ADD PUSH2 0x342C JUMP JUMPDEST SWAP7 POP POP PUSH1 0x40 DUP9 ADD CALLDATALOAD PUSH8 0xFFFFFFFFFFFFFFFF DUP2 GT ISZERO PUSH2 0x37CE JUMPI PUSH2 0x37CD PUSH2 0x4C57 JUMP JUMPDEST JUMPDEST PUSH2 0x37DA DUP11 DUP3 DUP12 ADD PUSH2 0x31F4 JUMP JUMPDEST SWAP6 POP SWAP6 POP POP PUSH1 0x60 PUSH2 0x37ED DUP11 DUP3 DUP12 ADD PUSH2 0x342C JUMP JUMPDEST SWAP4 POP POP PUSH1 0x80 PUSH2 0x37FE DUP11 DUP3 DUP12 ADD PUSH2 0x342C JUMP JUMPDEST SWAP3 POP POP PUSH1 0xA0 PUSH2 0x380F DUP11 DUP3 DUP12 ADD PUSH2 0x342C JUMP JUMPDEST SWAP2 POP POP SWAP3 SWAP6 SWAP9 SWAP2 SWAP5 SWAP8 POP SWAP3 SWAP6 POP JUMP JUMPDEST PUSH1 0x0 DUP1 PUSH1 0x0 DUP1 PUSH1 0x0 PUSH1 0x80 DUP7 DUP9 SUB SLT ISZERO PUSH2 0x383A JUMPI PUSH2 0x3839 PUSH2 0x4C61 JUMP JUMPDEST JUMPDEST PUSH1 0x0 PUSH2 0x3848 DUP9 DUP3 DUP10 ADD PUSH2 0x311E JUMP JUMPDEST SWAP6 POP POP PUSH1 0x20 PUSH2 0x3859 DUP9 DUP3 DUP10 ADD PUSH2 0x342C JUMP JUMPDEST SWAP5 POP POP PUSH1 0x40 PUSH2 0x386A DUP9 DUP3 DUP10 ADD PUSH2 0x33C3 JUMP JUMPDEST SWAP4 POP POP PUSH1 0x60 DUP7 ADD CALLDATALOAD PUSH8 0xFFFFFFFFFFFFFFFF DUP2 GT ISZERO PUSH2 0x388B JUMPI PUSH2 0x388A PUSH2 0x4C57 JUMP JUMPDEST JUMPDEST PUSH2 0x3897 DUP9 DUP3 DUP10 ADD PUSH2 0x31F4 JUMP JUMPDEST SWAP3 POP SWAP3 POP POP SWAP3 SWAP6 POP SWAP3 SWAP6 SWAP1 SWAP4 POP JUMP JUMPDEST PUSH1 0x0 DUP1 PUSH1 0x0 DUP1 PUSH1 0x0 PUSH1 0x80 DUP7 DUP9 SUB SLT ISZERO PUSH2 0x38C2 JUMPI PUSH2 0x38C1 PUSH2 0x4C61 JUMP JUMPDEST JUMPDEST PUSH1 0x0 DUP7 ADD CALLDATALOAD PUSH8 0xFFFFFFFFFFFFFFFF DUP2 GT ISZERO PUSH2 0x38E0 JUMPI PUSH2 0x38DF PUSH2 0x4C57 JUMP JUMPDEST JUMPDEST PUSH2 0x38EC DUP9 DUP3 DUP10 ADD PUSH2 0x31F4 JUMP JUMPDEST SWAP6 POP SWAP6 POP POP PUSH1 0x20 PUSH2 0x38FF DUP9 DUP3 DUP10 ADD PUSH2 0x311E JUMP JUMPDEST SWAP4 POP POP PUSH1 0x40 PUSH2 0x3910 DUP9 DUP3 DUP10 ADD PUSH2 0x311E JUMP JUMPDEST SWAP3 POP POP PUSH1 0x60 PUSH2 0x3921 DUP9 DUP3 DUP10 ADD PUSH2 0x3417 JUMP JUMPDEST SWAP2 POP POP SWAP3 SWAP6 POP SWAP3 SWAP6 SWAP1 SWAP4 POP JUMP JUMPDEST PUSH1 0x0 DUP1 PUSH1 0x0 DUP1 PUSH1 0x0 DUP1 PUSH1 0x0 DUP1 PUSH1 0x0 PUSH1 0xA0 DUP11 DUP13 SUB SLT ISZERO PUSH2 0x3950 JUMPI PUSH2 0x394F PUSH2 0x4C61 JUMP JUMPDEST JUMPDEST PUSH1 0x0 DUP11 ADD CALLDATALOAD PUSH8 0xFFFFFFFFFFFFFFFF DUP2 GT ISZERO PUSH2 0x396E JUMPI PUSH2 0x396D PUSH2 0x4C57 JUMP JUMPDEST JUMPDEST PUSH2 0x397A DUP13 DUP3 DUP14 ADD PUSH2 0x31F4 JUMP JUMPDEST SWAP10 POP SWAP10 POP POP PUSH1 0x20 PUSH2 0x398D DUP13 DUP3 DUP14 ADD PUSH2 0x311E JUMP JUMPDEST SWAP8 POP POP PUSH1 0x40 DUP11 ADD CALLDATALOAD PUSH8 0xFFFFFFFFFFFFFFFF DUP2 GT ISZERO PUSH2 0x39AE JUMPI PUSH2 0x39AD PUSH2 0x4C57 JUMP JUMPDEST JUMPDEST PUSH2 0x39BA DUP13 DUP3 DUP14 ADD PUSH2 0x3148 JUMP JUMPDEST SWAP7 POP SWAP7 POP POP PUSH1 0x60 DUP11 ADD CALLDATALOAD PUSH8 0xFFFFFFFFFFFFFFFF DUP2 GT ISZERO PUSH2 0x39DD JUMPI PUSH2 0x39DC PUSH2 0x4C57 JUMP JUMPDEST JUMPDEST PUSH2 0x39E9 DUP13 DUP3 DUP14 ADD PUSH2 0x319E JUMP JUMPDEST SWAP5 POP SWAP5 POP POP PUSH1 0x80 DUP11 ADD CALLDATALOAD PUSH8 0xFFFFFFFFFFFFFFFF DUP2 GT ISZERO PUSH2 0x3A0C JUMPI PUSH2 0x3A0B PUSH2 0x4C57 JUMP JUMPDEST JUMPDEST PUSH2 0x3A18 DUP13 DUP3 DUP14 ADD PUSH2 0x31F4 JUMP JUMPDEST SWAP3 POP SWAP3 POP POP SWAP3 SWAP6 SWAP9 POP SWAP3 SWAP6 SWAP9 POP SWAP3 SWAP6 SWAP9 JUMP JUMPDEST PUSH1 0x0 DUP1 PUSH1 0x0 DUP1 PUSH1 0x0 PUSH1 0x80 DUP7 DUP9 SUB SLT ISZERO PUSH2 0x3A46 JUMPI PUSH2 0x3A45 PUSH2 0x4C61 JUMP JUMPDEST JUMPDEST PUSH1 0x0 DUP7 ADD CALLDATALOAD PUSH8 0xFFFFFFFFFFFFFFFF DUP2 GT ISZERO PUSH2 0x3A64 JUMPI PUSH2 0x3A63 PUSH2 0x4C57 JUMP JUMPDEST JUMPDEST PUSH2 0x3A70 DUP9 DUP3 DUP10 ADD PUSH2 0x31F4 JUMP JUMPDEST SWAP6 POP SWAP6 POP POP PUSH1 0x20 PUSH2 0x3A83 DUP9 DUP3 DUP10 ADD PUSH2 0x342C JUMP JUMPDEST SWAP4 POP POP PUSH1 0x40 PUSH2 0x3A94 DUP9 DUP3 DUP10 ADD PUSH2 0x311E JUMP JUMPDEST SWAP3 POP POP PUSH1 0x60 PUSH2 0x3AA5 DUP9 DUP3 DUP10 ADD PUSH2 0x311E JUMP JUMPDEST SWAP2 POP POP SWAP3 SWAP6 POP SWAP3 SWAP6 SWAP1 SWAP4 POP JUMP JUMPDEST PUSH1 0x0 DUP1 PUSH1 0x0 DUP1 PUSH1 0x0 DUP1 PUSH1 0xA0 DUP8 DUP10 SUB SLT ISZERO PUSH2 0x3ACF JUMPI PUSH2 0x3ACE PUSH2 0x4C61 JUMP JUMPDEST JUMPDEST PUSH1 0x0 DUP8 ADD CALLDATALOAD PUSH8 0xFFFFFFFFFFFFFFFF DUP2 GT ISZERO PUSH2 0x3AED JUMPI PUSH2 0x3AEC PUSH2 0x4C57 JUMP JUMPDEST JUMPDEST PUSH2 0x3AF9 DUP10 DUP3 DUP11 ADD PUSH2 0x31F4 JUMP JUMPDEST SWAP7 POP SWAP7 POP POP PUSH1 0x20 PUSH2 0x3B0C DUP10 DUP3 DUP11 ADD PUSH2 0x342C JUMP JUMPDEST SWAP5 POP POP PUSH1 0x40 PUSH2 0x3B1D DUP10 DUP3 DUP11 ADD PUSH2 0x311E JUMP JUMPDEST SWAP4 POP POP PUSH1 0x60 PUSH2 0x3B2E DUP10 DUP3 DUP11 ADD PUSH2 0x311E JUMP JUMPDEST SWAP3 POP POP PUSH1 0x80 PUSH2 0x3B3F DUP10 DUP3 DUP11 ADD PUSH2 0x3417 JUMP JUMPDEST SWAP2 POP POP SWAP3 SWAP6 POP SWAP3 SWAP6 POP SWAP3 SWAP6 JUMP JUMPDEST PUSH1 0x0 PUSH1 0x20 DUP3 DUP5 SUB SLT ISZERO PUSH2 0x3B62 JUMPI PUSH2 0x3B61 PUSH2 0x4C61 JUMP JUMPDEST JUMPDEST PUSH1 0x0 PUSH2 0x3B70 DUP5 DUP3 DUP6 ADD PUSH2 0x3278 JUMP JUMPDEST SWAP2 POP POP SWAP3 SWAP2 POP POP JUMP JUMPDEST PUSH1 0x0 DUP1 PUSH1 0x40 DUP4 DUP6 SUB SLT ISZERO PUSH2 0x3B90 JUMPI PUSH2 0x3B8F PUSH2 0x4C61 JUMP JUMPDEST JUMPDEST PUSH1 0x0 PUSH2 0x3B9E DUP6 DUP3 DUP7 ADD PUSH2 0x32A2 JUMP JUMPDEST SWAP3 POP POP PUSH1 0x20 PUSH2 0x3BAF DUP6 DUP3 DUP7 ADD PUSH2 0x32A2 JUMP JUMPDEST SWAP2 POP POP SWAP3 POP SWAP3 SWAP1 POP JUMP JUMPDEST PUSH1 0x0 DUP1 PUSH1 0x0 PUSH1 0x60 DUP5 DUP7 SUB SLT ISZERO PUSH2 0x3BD2 JUMPI PUSH2 0x3BD1 PUSH2 0x4C61 JUMP JUMPDEST JUMPDEST PUSH1 0x0 PUSH2 0x3BE0 DUP7 DUP3 DUP8 ADD PUSH2 0x33D8 JUMP JUMPDEST SWAP4 POP POP PUSH1 0x20 PUSH2 0x3BF1 DUP7 DUP3 DUP8 ADD PUSH2 0x3441 JUMP JUMPDEST SWAP3 POP POP PUSH1 0x40 PUSH2 0x3C02 DUP7 DUP3 DUP8 ADD PUSH2 0x3441 JUMP JUMPDEST SWAP2 POP POP SWAP3 POP SWAP3 POP SWAP3 JUMP JUMPDEST PUSH1 0x0 PUSH1 0x20 DUP3 DUP5 SUB SLT ISZERO PUSH2 0x3C22 JUMPI PUSH2 0x3C21 PUSH2 0x4C61 JUMP JUMPDEST JUMPDEST PUSH1 0x0 PUSH2 0x3C30 DUP5 DUP3 DUP6 ADD PUSH2 0x3402 JUMP JUMPDEST SWAP2 POP POP SWAP3 SWAP2 POP POP JUMP JUMPDEST PUSH1 0x0 PUSH1 0x20 DUP3 DUP5 SUB SLT ISZERO PUSH2 0x3C4F JUMPI PUSH2 0x3C4E PUSH2 0x4C61 JUMP JUMPDEST JUMPDEST PUSH1 0x0 PUSH2 0x3C5D DUP5 DUP3 DUP6 ADD PUSH2 0x3417 JUMP JUMPDEST SWAP2 POP POP SWAP3 SWAP2 POP POP JUMP JUMPDEST PUSH1 0x0 PUSH1 0x20 DUP3 DUP5 SUB SLT ISZERO PUSH2 0x3C7C JUMPI PUSH2 0x3C7B PUSH2 0x4C61 JUMP JUMPDEST JUMPDEST PUSH1 0x0 PUSH2 0x3C8A DUP5 DUP3 DUP6 ADD PUSH2 0x342C JUMP JUMPDEST SWAP2 POP POP SWAP3 SWAP2 POP POP JUMP JUMPDEST PUSH1 0x0 PUSH1 0x20 DUP3 DUP5 SUB SLT ISZERO PUSH2 0x3CA9 JUMPI PUSH2 0x3CA8 PUSH2 0x4C61 JUMP JUMPDEST JUMPDEST PUSH1 0x0 PUSH2 0x3CB7 DUP5 DUP3 DUP6 ADD PUSH2 0x3441 JUMP JUMPDEST SWAP2 POP POP SWAP3 SWAP2 POP POP JUMP JUMPDEST PUSH1 0x0 DUP1 PUSH1 0x0 DUP1 PUSH1 0x80 DUP6 DUP8 SUB SLT ISZERO PUSH2 0x3CDA JUMPI PUSH2 0x3CD9 PUSH2 0x4C61 JUMP JUMPDEST JUMPDEST PUSH1 0x0 PUSH2 0x3CE8 DUP8 DUP3 DUP9 ADD PUSH2 0x3441 JUMP JUMPDEST SWAP5 POP POP PUSH1 0x20 PUSH2 0x3CF9 DUP8 DUP3 DUP9 ADD PUSH2 0x33D8 JUMP JUMPDEST SWAP4 POP POP PUSH1 0x40 PUSH2 0x3D0A DUP8 DUP3 DUP9 ADD PUSH2 0x3441 JUMP JUMPDEST SWAP3 POP POP PUSH1 0x60 PUSH2 0x3D1B DUP8 DUP3 DUP9 ADD PUSH2 0x3441 JUMP JUMPDEST SWAP2 POP POP SWAP3 SWAP6 SWAP2 SWAP5 POP SWAP3 POP JUMP JUMPDEST PUSH1 0x0 DUP1 PUSH1 0x0 PUSH1 0x60 DUP5 DUP7 SUB SLT ISZERO PUSH2 0x3D40 JUMPI PUSH2 0x3D3F PUSH2 0x4C61 JUMP JUMPDEST JUMPDEST PUSH1 0x0 PUSH2 0x3D4E DUP7 DUP3 DUP8 ADD PUSH2 0x342C JUMP JUMPDEST SWAP4 POP POP PUSH1 0x20 PUSH2 0x3D5F DUP7 DUP3 DUP8 ADD PUSH2 0x342C JUMP JUMPDEST SWAP3 POP POP PUSH1 0x40 PUSH2 0x3D70 DUP7 DUP3 DUP8 ADD PUSH2 0x342C JUMP JUMPDEST SWAP2 POP POP SWAP3 POP SWAP3 POP SWAP3 JUMP JUMPDEST PUSH1 0x0 PUSH2 0x3D86 DUP4 DUP4 PUSH2 0x425A JUMP JUMPDEST PUSH1 0x20 DUP4 ADD SWAP1 POP SWAP3 SWAP2 POP POP JUMP JUMPDEST PUSH2 0x3D9B DUP2 PUSH2 0x49F1 JUMP JUMPDEST DUP3 MSTORE POP POP JUMP JUMPDEST PUSH2 0x3DAA DUP2 PUSH2 0x49F1 JUMP JUMPDEST DUP3 MSTORE POP POP JUMP JUMPDEST PUSH1 0x0 PUSH2 0x3DBC DUP4 DUP6 PUSH2 0x4909 JUMP JUMPDEST SWAP4 POP PUSH32 0x7FFFFFFFFFFFFFFFFFFFFFFFFFFFFFFFFFFFFFFFFFFFFFFFFFFFFFFFFFFFFFF DUP4 GT ISZERO PUSH2 0x3DEF JUMPI PUSH2 0x3DEE PUSH2 0x4C5C JUMP JUMPDEST JUMPDEST PUSH1 0x20 DUP4 MUL SWAP3 POP PUSH2 0x3E00 DUP4 DUP6 DUP5 PUSH2 0x4ACB JUMP JUMPDEST DUP3 DUP5 ADD SWAP1 POP SWAP4 SWAP3 POP POP POP JUMP JUMPDEST PUSH1 0x0 PUSH2 0x3E17 DUP3 PUSH2 0x48E6 JUMP JUMPDEST PUSH2 0x3E21 DUP2 DUP6 PUSH2 0x4909 JUMP JUMPDEST SWAP4 POP PUSH2 0x3E2C DUP4 PUSH2 0x48D6 JUMP JUMPDEST DUP1 PUSH1 0x0 JUMPDEST DUP4 DUP2 LT ISZERO PUSH2 0x3E5D JUMPI DUP2 MLOAD PUSH2 0x3E44 DUP9 DUP3 PUSH2 0x3D7A JUMP JUMPDEST SWAP8 POP PUSH2 0x3E4F DUP4 PUSH2 0x48FC JUMP JUMPDEST SWAP3 POP POP PUSH1 0x1 DUP2 ADD SWAP1 POP PUSH2 0x3E30 JUMP JUMPDEST POP DUP6 SWAP4 POP POP POP POP SWAP3 SWAP2 POP POP JUMP JUMPDEST PUSH1 0x0 PUSH2 0x3E75 DUP3 PUSH2 0x48F1 JUMP JUMPDEST PUSH2 0x3E7F DUP2 DUP6 PUSH2 0x491A JUMP JUMPDEST SWAP4 POP PUSH2 0x3E8F DUP2 DUP6 PUSH1 0x20 DUP7 ADD PUSH2 0x4ADA JUMP JUMPDEST DUP1 DUP5 ADD SWAP2 POP POP SWAP3 SWAP2 POP POP JUMP JUMPDEST PUSH2 0x3EA4 DUP2 PUSH2 0x4A71 JUMP JUMPDEST DUP3 MSTORE POP POP JUMP JUMPDEST PUSH2 0x3EB3 DUP2 PUSH2 0x4A83 JUMP JUMPDEST DUP3 MSTORE POP POP JUMP JUMPDEST PUSH2 0x3EC2 DUP2 PUSH2 0x4A0F JUMP JUMPDEST DUP3 MSTORE POP POP JUMP JUMPDEST PUSH2 0x3ED1 DUP2 PUSH2 0x4A0F JUMP JUMPDEST DUP3 MSTORE POP POP JUMP JUMPDEST PUSH2 0x3EE0 DUP2 PUSH2 0x4A0F JUMP JUMPDEST DUP3 MSTORE POP POP JUMP JUMPDEST PUSH2 0x3EEF DUP2 PUSH2 0x4A95 JUMP JUMPDEST DUP3 MSTORE POP POP JUMP JUMPDEST PUSH1 0x0 PUSH2 0x3F02 PUSH1 0x2 DUP4 PUSH2 0x4925 JUMP JUMPDEST SWAP2 POP PUSH2 0x3F0D DUP3 PUSH2 0x4C77 JUMP JUMPDEST PUSH1 0x20 DUP3 ADD SWAP1 POP SWAP2 SWAP1 POP JUMP JUMPDEST PUSH1 0x0 PUSH2 0x3F25 PUSH1 0x11 DUP4 PUSH2 0x4925 JUMP JUMPDEST SWAP2 POP PUSH2 0x3F30 DUP3 PUSH2 0x4CA0 JUMP JUMPDEST PUSH1 0x20 DUP3 ADD SWAP1 POP SWAP2 SWAP1 POP JUMP JUMPDEST PUSH1 0x0 PUSH2 0x3F48 PUSH1 0x15 DUP4 PUSH2 0x4925 JUMP JUMPDEST SWAP2 POP PUSH2 0x3F53 DUP3 PUSH2 0x4CC9 JUMP JUMPDEST PUSH1 0x20 DUP3 ADD SWAP1 POP SWAP2 SWAP1 POP JUMP JUMPDEST PUSH1 0x0 PUSH2 0x3F6B PUSH1 0x2 DUP4 PUSH2 0x4925 JUMP JUMPDEST SWAP2 POP PUSH2 0x3F76 DUP3 PUSH2 0x4CF2 JUMP JUMPDEST PUSH1 0x20 DUP3 ADD SWAP1 POP SWAP2 SWAP1 POP JUMP JUMPDEST PUSH1 0x0 PUSH2 0x3F8E PUSH1 0x18 DUP4 PUSH2 0x4925 JUMP JUMPDEST SWAP2 POP PUSH2 0x3F99 DUP3 PUSH2 0x4D1B JUMP JUMPDEST PUSH1 0x20 DUP3 ADD SWAP1 POP SWAP2 SWAP1 POP JUMP JUMPDEST PUSH1 0x0 PUSH2 0x3FB1 PUSH1 0x26 DUP4 PUSH2 0x4925 JUMP JUMPDEST SWAP2 POP PUSH2 0x3FBC DUP3 PUSH2 0x4D44 JUMP JUMPDEST PUSH1 0x40 DUP3 ADD SWAP1 POP SWAP2 SWAP1 POP JUMP JUMPDEST PUSH1 0x0 PUSH2 0x3FD4 PUSH1 0x3 DUP4 PUSH2 0x4925 JUMP JUMPDEST SWAP2 POP PUSH2 0x3FDF DUP3 PUSH2 0x4D93 JUMP JUMPDEST PUSH1 0x20 DUP3 ADD SWAP1 POP SWAP2 SWAP1 POP JUMP JUMPDEST PUSH2 0x100 DUP3 ADD PUSH1 0x0 DUP3 ADD MLOAD PUSH2 0x4001 PUSH1 0x0 DUP6 ADD DUP3 PUSH2 0x3D92 JUMP JUMPDEST POP PUSH1 0x20 DUP3 ADD MLOAD PUSH2 0x4014 PUSH1 0x20 DUP6 ADD DUP3 PUSH2 0x3D92 JUMP JUMPDEST POP PUSH1 0x40 DUP3 ADD MLOAD PUSH2 0x4027 PUSH1 0x40 DUP6 ADD DUP3 PUSH2 0x423C JUMP JUMPDEST POP PUSH1 0x60 DUP3 ADD MLOAD PUSH2 0x403A PUSH1 0x60 DUP6 ADD DUP3 PUSH2 0x3D92 JUMP JUMPDEST POP PUSH1 0x80 DUP3 ADD MLOAD PUSH2 0x404D PUSH1 0x80 DUP6 ADD DUP3 PUSH2 0x425A JUMP JUMPDEST POP PUSH1 0xA0 DUP3 ADD MLOAD PUSH2 0x4060 PUSH1 0xA0 DUP6 ADD DUP3 PUSH2 0x425A JUMP JUMPDEST POP PUSH1 0xC0 DUP3 ADD MLOAD PUSH2 0x4073 PUSH1 0xC0 DUP6 ADD DUP3 PUSH2 0x425A JUMP JUMPDEST POP PUSH1 0xE0 DUP3 ADD MLOAD PUSH2 0x4086 PUSH1 0xE0 DUP6 ADD DUP3 PUSH2 0x421E JUMP JUMPDEST POP POP POP POP JUMP JUMPDEST PUSH2 0x100 DUP3 ADD PUSH1 0x0 DUP3 ADD MLOAD PUSH2 0x40A3 PUSH1 0x0 DUP6 ADD DUP3 PUSH2 0x3D92 JUMP JUMPDEST POP PUSH1 0x20 DUP3 ADD MLOAD PUSH2 0x40B6 PUSH1 0x20 DUP6 ADD DUP3 PUSH2 0x3D92 JUMP JUMPDEST POP PUSH1 0x40 DUP3 ADD MLOAD PUSH2 0x40C9 PUSH1 0x40 DUP6 ADD DUP3 PUSH2 0x423C JUMP JUMPDEST POP PUSH1 0x60 DUP3 ADD MLOAD PUSH2 0x40DC PUSH1 0x60 DUP6 ADD DUP3 PUSH2 0x3D92 JUMP JUMPDEST POP PUSH1 0x80 DUP3 ADD MLOAD PUSH2 0x40EF PUSH1 0x80 DUP6 ADD DUP3 PUSH2 0x425A JUMP JUMPDEST POP PUSH1 0xA0 DUP3 ADD MLOAD PUSH2 0x4102 PUSH1 0xA0 DUP6 ADD DUP3 PUSH2 0x425A JUMP JUMPDEST POP PUSH1 0xC0 DUP3 ADD MLOAD PUSH2 0x4115 PUSH1 0xC0 DUP6 ADD DUP3 PUSH2 0x425A JUMP JUMPDEST POP PUSH1 0xE0 DUP3 ADD MLOAD PUSH2 0x4128 PUSH1 0xE0 DUP6 ADD DUP3 PUSH2 0x421E JUMP JUMPDEST POP POP POP POP JUMP JUMPDEST PUSH2 0x160 DUP3 ADD PUSH1 0x0 DUP3 ADD MLOAD PUSH2 0x4145 PUSH1 0x0 DUP6 ADD DUP3 PUSH2 0x3D92 JUMP JUMPDEST POP PUSH1 0x20 DUP3 ADD MLOAD PUSH2 0x4158 PUSH1 0x20 DUP6 ADD DUP3 PUSH2 0x3D92 JUMP JUMPDEST POP PUSH1 0x40 DUP3 ADD MLOAD PUSH2 0x416B PUSH1 0x40 DUP6 ADD DUP3 PUSH2 0x423C JUMP JUMPDEST POP PUSH1 0x60 DUP3 ADD MLOAD PUSH2 0x417E PUSH1 0x60 DUP6 ADD DUP3 PUSH2 0x3EB9 JUMP JUMPDEST POP PUSH1 0x80 DUP3 ADD MLOAD PUSH2 0x4191 PUSH1 0x80 DUP6 ADD DUP3 PUSH2 0x3EB9 JUMP JUMPDEST POP PUSH1 0xA0 DUP3 ADD MLOAD PUSH2 0x41A4 PUSH1 0xA0 DUP6 ADD DUP3 PUSH2 0x425A JUMP JUMPDEST POP PUSH1 0xC0 DUP3 ADD MLOAD PUSH2 0x41B7 PUSH1 0xC0 DUP6 ADD DUP3 PUSH2 0x425A JUMP JUMPDEST POP PUSH1 0xE0 DUP3 ADD MLOAD PUSH2 0x41CA PUSH1 0xE0 DUP6 ADD DUP3 PUSH2 0x425A JUMP JUMPDEST POP PUSH2 0x100 DUP3 ADD MLOAD PUSH2 0x41DF PUSH2 0x100 DUP6 ADD DUP3 PUSH2 0x425A JUMP JUMPDEST POP PUSH2 0x120 DUP3 ADD MLOAD PUSH2 0x41F4 PUSH2 0x120 DUP6 ADD DUP3 PUSH2 0x3D92 JUMP JUMPDEST POP PUSH2 0x140 DUP3 ADD MLOAD PUSH2 0x4209 PUSH2 0x140 DUP6 ADD DUP3 PUSH2 0x425A JUMP JUMPDEST POP POP POP POP JUMP JUMPDEST PUSH2 0x4218 DUP2 PUSH2 0x4A1C JUMP JUMPDEST DUP3 MSTORE POP POP JUMP JUMPDEST PUSH2 0x4227 DUP2 PUSH2 0x4A38 JUMP JUMPDEST DUP3 MSTORE POP POP JUMP JUMPDEST PUSH2 0x4236 DUP2 PUSH2 0x4A38 JUMP JUMPDEST DUP3 MSTORE POP POP JUMP JUMPDEST PUSH2 0x4245 DUP2 PUSH2 0x4A58 JUMP JUMPDEST DUP3 MSTORE POP POP JUMP JUMPDEST PUSH2 0x4254 DUP2 PUSH2 0x4A58 JUMP JUMPDEST DUP3 MSTORE POP POP JUMP JUMPDEST PUSH2 0x4263 DUP2 PUSH2 0x4A67 JUMP JUMPDEST DUP3 MSTORE POP POP JUMP JUMPDEST PUSH2 0x4272 DUP2 PUSH2 0x4A67 JUMP JUMPDEST DUP3 MSTORE POP POP JUMP JUMPDEST PUSH2 0x4281 DUP2 PUSH2 0x4A67 JUMP JUMPDEST DUP3 MSTORE POP POP JUMP JUMPDEST PUSH1 0x0 PUSH2 0x4293 DUP3 DUP5 PUSH2 0x3E6A JUMP JUMPDEST SWAP2 POP DUP2 SWAP1 POP SWAP3 SWAP2 POP POP JUMP JUMPDEST PUSH1 0x0 PUSH1 0x20 DUP3 ADD SWAP1 POP PUSH2 0x42B3 PUSH1 0x0 DUP4 ADD DUP5 PUSH2 0x3DA1 JUMP JUMPDEST SWAP3 SWAP2 POP POP JUMP JUMPDEST PUSH1 0x0 PUSH1 0x40 DUP3 ADD SWAP1 POP PUSH2 0x42CE PUSH1 0x0 DUP4 ADD DUP6 PUSH2 0x3DA1 JUMP JUMPDEST PUSH2 0x42DB PUSH1 0x20 DUP4 ADD DUP5 PUSH2 0x3DA1 JUMP JUMPDEST SWAP4 SWAP3 POP POP POP JUMP JUMPDEST PUSH1 0x0 PUSH1 0x80 DUP3 ADD SWAP1 POP PUSH2 0x42F7 PUSH1 0x0 DUP4 ADD DUP9 PUSH2 0x3DA1 JUMP JUMPDEST PUSH2 0x4304 PUSH1 0x20 DUP4 ADD DUP8 PUSH2 0x3DA1 JUMP JUMPDEST PUSH2 0x4311 PUSH1 0x40 DUP4 ADD DUP7 PUSH2 0x3DA1 JUMP JUMPDEST DUP2 DUP2 SUB PUSH1 0x60 DUP4 ADD MSTORE PUSH2 0x4324 DUP2 DUP5 DUP7 PUSH2 0x3DB0 JUMP JUMPDEST SWAP1 POP SWAP7 SWAP6 POP POP POP POP POP POP JUMP JUMPDEST PUSH1 0x0 PUSH1 0x80 DUP3 ADD SWAP1 POP PUSH2 0x4345 PUSH1 0x0 DUP4 ADD DUP9 PUSH2 0x3DA1 JUMP JUMPDEST PUSH2 0x4352 PUSH1 0x20 DUP4 ADD DUP8 PUSH2 0x3DA1 JUMP JUMPDEST DUP2 DUP2 SUB PUSH1 0x40 DUP4 ADD MSTORE PUSH2 0x4365 DUP2 DUP6 DUP8 PUSH2 0x3DB0 JUMP JUMPDEST SWAP1 POP PUSH2 0x4374 PUSH1 0x60 DUP4 ADD DUP5 PUSH2 0x3DA1 JUMP JUMPDEST SWAP7 SWAP6 POP POP POP POP POP POP JUMP JUMPDEST PUSH1 0x0 PUSH1 0xC0 DUP3 ADD SWAP1 POP PUSH2 0x4393 PUSH1 0x0 DUP4 ADD DUP11 PUSH2 0x3DA1 JUMP JUMPDEST PUSH2 0x43A0 PUSH1 0x20 DUP4 ADD DUP10 PUSH2 0x3DA1 JUMP JUMPDEST DUP2 DUP2 SUB PUSH1 0x40 DUP4 ADD MSTORE PUSH2 0x43B3 DUP2 DUP8 DUP10 PUSH2 0x3DB0 JUMP JUMPDEST SWAP1 POP PUSH2 0x43C2 PUSH1 0x60 DUP4 ADD DUP7 PUSH2 0x3DA1 JUMP JUMPDEST PUSH2 0x43CF PUSH1 0x80 DUP4 ADD DUP6 PUSH2 0x3EC8 JUMP JUMPDEST PUSH2 0x43DC PUSH1 0xA0 DUP4 ADD DUP5 PUSH2 0x3EC8 JUMP JUMPDEST SWAP9 SWAP8 POP POP POP POP POP POP POP POP JUMP JUMPDEST PUSH1 0x0 PUSH1 0xC0 DUP3 ADD SWAP1 POP PUSH2 0x43FD PUSH1 0x0 DUP4 ADD DUP10 PUSH2 0x3DA1 JUMP JUMPDEST PUSH2 0x440A PUSH1 0x20 DUP4 ADD DUP9 PUSH2 0x3DA1 JUMP JUMPDEST DUP2 DUP2 SUB PUSH1 0x40 DUP4 ADD MSTORE PUSH2 0x441C DUP2 DUP8 PUSH2 0x3E0C JUMP JUMPDEST SWAP1 POP PUSH2 0x442B PUSH1 0x60 DUP4 ADD DUP7 PUSH2 0x3DA1 JUMP JUMPDEST PUSH2 0x4438 PUSH1 0x80 DUP4 ADD DUP6 PUSH2 0x3EC8 JUMP JUMPDEST PUSH2 0x4445 PUSH1 0xA0 DUP4 ADD DUP5 PUSH2 0x3EC8 JUMP JUMPDEST SWAP8 SWAP7 POP POP POP POP POP POP POP JUMP JUMPDEST PUSH1 0x0 PUSH1 0x80 DUP3 ADD SWAP1 POP PUSH2 0x4465 PUSH1 0x0 DUP4 ADD DUP8 PUSH2 0x3DA1 JUMP JUMPDEST PUSH2 0x4472 PUSH1 0x20 DUP4 ADD DUP7 PUSH2 0x3DA1 JUMP JUMPDEST PUSH2 0x447F PUSH1 0x40 DUP4 ADD DUP6 PUSH2 0x424B JUMP JUMPDEST PUSH2 0x448C PUSH1 0x60 DUP4 ADD DUP5 PUSH2 0x422D JUMP JUMPDEST SWAP6 SWAP5 POP POP POP POP POP JUMP JUMPDEST PUSH1 0x0 PUSH1 0x60 DUP3 ADD SWAP1 POP PUSH2 0x44AA PUSH1 0x0 DUP4 ADD DUP7 PUSH2 0x3DA1 JUMP JUMPDEST PUSH2 0x44B7 PUSH1 0x20 DUP4 ADD DUP6 PUSH2 0x3DA1 JUMP JUMPDEST PUSH2 0x44C4 PUSH1 0x40 DUP4 ADD DUP5 PUSH2 0x4269 JUMP JUMPDEST SWAP5 SWAP4 POP POP POP POP JUMP JUMPDEST PUSH1 0x0 PUSH1 0x40 DUP3 ADD SWAP1 POP PUSH2 0x44E1 PUSH1 0x0 DUP4 ADD DUP7 PUSH2 0x3DA1 JUMP JUMPDEST DUP2 DUP2 SUB PUSH1 0x20 DUP4 ADD MSTORE PUSH2 0x44F4 DUP2 DUP5 DUP7 PUSH2 0x3DB0 JUMP JUMPDEST SWAP1 POP SWAP5 SWAP4 POP POP POP POP JUMP JUMPDEST PUSH1 0x0 PUSH2 0x180 DUP3 ADD SWAP1 POP PUSH2 0x4514 PUSH1 0x0 DUP4 ADD DUP6 PUSH2 0x3DA1 JUMP JUMPDEST PUSH2 0x4521 PUSH1 0x20 DUP4 ADD DUP5 PUSH2 0x412E JUMP JUMPDEST SWAP4 SWAP3 POP POP POP JUMP JUMPDEST PUSH1 0x0 PUSH1 0x40 DUP3 ADD SWAP1 POP PUSH2 0x453D PUSH1 0x0 DUP4 ADD DUP6 PUSH2 0x3DA1 JUMP JUMPDEST PUSH2 0x454A PUSH1 0x20 DUP4 ADD DUP5 PUSH2 0x4269 JUMP JUMPDEST SWAP4 SWAP3 POP POP POP JUMP JUMPDEST PUSH1 0x0 PUSH1 0x80 DUP3 ADD SWAP1 POP PUSH2 0x4566 PUSH1 0x0 DUP4 ADD DUP8 PUSH2 0x3DA1 JUMP JUMPDEST PUSH2 0x4573 PUSH1 0x20 DUP4 ADD DUP7 PUSH2 0x4269 JUMP JUMPDEST PUSH2 0x4580 PUSH1 0x40 DUP4 ADD DUP6 PUSH2 0x4269 JUMP JUMPDEST PUSH2 0x458D PUSH1 0x60 DUP4 ADD DUP5 PUSH2 0x3DA1 JUMP JUMPDEST SWAP6 SWAP5 POP POP POP POP POP JUMP JUMPDEST PUSH1 0x0 PUSH1 0x20 DUP3 ADD SWAP1 POP DUP2 DUP2 SUB PUSH1 0x0 DUP4 ADD MSTORE PUSH2 0x45B0 DUP2 DUP5 PUSH2 0x3E0C JUMP JUMPDEST SWAP1 POP SWAP3 SWAP2 POP POP JUMP JUMPDEST PUSH1 0x0 PUSH1 0x20 DUP3 ADD SWAP1 POP PUSH2 0x45CD PUSH1 0x0 DUP4 ADD DUP5 PUSH2 0x3E9B JUMP JUMPDEST SWAP3 SWAP2 POP POP JUMP JUMPDEST PUSH1 0x0 PUSH1 0x20 DUP3 ADD SWAP1 POP PUSH2 0x45E8 PUSH1 0x0 DUP4 ADD DUP5 PUSH2 0x3EAA JUMP JUMPDEST SWAP3 SWAP2 POP POP JUMP JUMPDEST PUSH1 0x0 PUSH1 0x20 DUP3 ADD SWAP1 POP PUSH2 0x4603 PUSH1 0x0 DUP4 ADD DUP5 PUSH2 0x3ED7 JUMP JUMPDEST SWAP3 SWAP2 POP POP JUMP JUMPDEST PUSH1 0x0 PUSH1 0x20 DUP3 ADD SWAP1 POP DUP2 DUP2 SUB PUSH1 0x0 DUP4 ADD MSTORE PUSH2 0x4622 DUP2 PUSH2 0x3EF5 JUMP JUMPDEST SWAP1 POP SWAP2 SWAP1 POP JUMP JUMPDEST PUSH1 0x0 PUSH1 0x20 DUP3 ADD SWAP1 POP DUP2 DUP2 SUB PUSH1 0x0 DUP4 ADD MSTORE PUSH2 0x4642 DUP2 PUSH2 0x3F18 JUMP JUMPDEST SWAP1 POP SWAP2 SWAP1 POP JUMP JUMPDEST PUSH1 0x0 PUSH1 0x20 DUP3 ADD SWAP1 POP DUP2 DUP2 SUB PUSH1 0x0 DUP4 ADD MSTORE PUSH2 0x4662 DUP2 PUSH2 0x3F3B JUMP JUMPDEST SWAP1 POP SWAP2 SWAP1 POP JUMP JUMPDEST PUSH1 0x0 PUSH1 0x20 DUP3 ADD SWAP1 POP DUP2 DUP2 SUB PUSH1 0x0 DUP4 ADD MSTORE PUSH2 0x4682 DUP2 PUSH2 0x3F5E JUMP JUMPDEST SWAP1 POP SWAP2 SWAP1 POP JUMP JUMPDEST PUSH1 0x0 PUSH1 0x20 DUP3 ADD SWAP1 POP DUP2 DUP2 SUB PUSH1 0x0 DUP4 ADD MSTORE PUSH2 0x46A2 DUP2 PUSH2 0x3F81 JUMP JUMPDEST SWAP1 POP SWAP2 SWAP1 POP JUMP JUMPDEST PUSH1 0x0 PUSH1 0x20 DUP3 ADD SWAP1 POP DUP2 DUP2 SUB PUSH1 0x0 DUP4 ADD MSTORE PUSH2 0x46C2 DUP2 PUSH2 0x3FA4 JUMP JUMPDEST SWAP1 POP SWAP2 SWAP1 POP JUMP JUMPDEST PUSH1 0x0 PUSH1 0x20 DUP3 ADD SWAP1 POP DUP2 DUP2 SUB PUSH1 0x0 DUP4 ADD MSTORE PUSH2 0x46E2 DUP2 PUSH2 0x3FC7 JUMP JUMPDEST SWAP1 POP SWAP2 SWAP1 POP JUMP JUMPDEST PUSH1 0x0 PUSH2 0x100 DUP3 ADD SWAP1 POP PUSH2 0x46FF PUSH1 0x0 DUP4 ADD DUP5 PUSH2 0x3FEA JUMP JUMPDEST SWAP3 SWAP2 POP POP JUMP JUMPDEST PUSH1 0x0 PUSH2 0x100 DUP3 ADD SWAP1 POP PUSH2 0x471B PUSH1 0x0 DUP4 ADD DUP5 PUSH2 0x408C JUMP JUMPDEST SWAP3 SWAP2 POP POP JUMP JUMPDEST PUSH1 0x0 PUSH1 0x60 DUP3 ADD SWAP1 POP PUSH2 0x4736 PUSH1 0x0 DUP4 ADD DUP7 PUSH2 0x420F JUMP JUMPDEST PUSH2 0x4743 PUSH1 0x20 DUP4 ADD DUP6 PUSH2 0x4269 JUMP JUMPDEST PUSH2 0x4750 PUSH1 0x40 DUP4 ADD DUP5 PUSH2 0x4269 JUMP JUMPDEST SWAP5 SWAP4 POP POP POP POP JUMP JUMPDEST PUSH1 0x0 PUSH1 0x20 DUP3 ADD SWAP1 POP PUSH2 0x476D PUSH1 0x0 DUP4 ADD DUP5 PUSH2 0x4278 JUMP JUMPDEST SWAP3 SWAP2 POP POP JUMP JUMPDEST PUSH1 0x0 PUSH1 0x20 DUP3 ADD SWAP1 POP PUSH2 0x4788 PUSH1 0x0 DUP4 ADD DUP5 PUSH2 0x4269 JUMP JUMPDEST SWAP3 SWAP2 POP POP JUMP JUMPDEST PUSH1 0x0 PUSH1 0x40 DUP3 ADD SWAP1 POP PUSH2 0x47A3 PUSH1 0x0 DUP4 ADD DUP6 PUSH2 0x4269 JUMP JUMPDEST PUSH2 0x47B0 PUSH1 0x20 DUP4 ADD DUP5 PUSH2 0x3DA1 JUMP JUMPDEST SWAP4 SWAP3 POP POP POP JUMP JUMPDEST PUSH1 0x0 PUSH1 0x40 DUP3 ADD SWAP1 POP PUSH2 0x47CC PUSH1 0x0 DUP4 ADD DUP6 PUSH2 0x4269 JUMP JUMPDEST PUSH2 0x47D9 PUSH1 0x20 DUP4 ADD DUP5 PUSH2 0x3EE6 JUMP JUMPDEST SWAP4 SWAP3 POP POP POP JUMP JUMPDEST PUSH1 0x0 PUSH1 0x40 DUP3 ADD SWAP1 POP PUSH2 0x47F5 PUSH1 0x0 DUP4 ADD DUP6 PUSH2 0x4269 JUMP JUMPDEST PUSH2 0x4802 PUSH1 0x20 DUP4 ADD DUP5 PUSH2 0x420F JUMP JUMPDEST SWAP4 SWAP3 POP POP POP JUMP JUMPDEST PUSH1 0x0 PUSH1 0x80 DUP3 ADD SWAP1 POP PUSH2 0x481E PUSH1 0x0 DUP4 ADD DUP8 PUSH2 0x4269 JUMP JUMPDEST PUSH2 0x482B PUSH1 0x20 DUP4 ADD DUP7 PUSH2 0x420F JUMP JUMPDEST PUSH2 0x4838 PUSH1 0x40 DUP4 ADD DUP6 PUSH2 0x4269 JUMP JUMPDEST PUSH2 0x4845 PUSH1 0x60 DUP4 ADD DUP5 PUSH2 0x4269 JUMP JUMPDEST SWAP6 SWAP5 POP POP POP POP POP JUMP JUMPDEST PUSH1 0x0 PUSH1 0x60 DUP3 ADD SWAP1 POP PUSH2 0x4863 PUSH1 0x0 DUP4 ADD DUP7 PUSH2 0x4269 JUMP JUMPDEST PUSH2 0x4870 PUSH1 0x20 DUP4 ADD DUP6 PUSH2 0x4269 JUMP JUMPDEST PUSH2 0x487D PUSH1 0x40 DUP4 ADD DUP5 PUSH2 0x4269 JUMP JUMPDEST SWAP5 SWAP4 POP POP POP POP JUMP JUMPDEST PUSH1 0x0 PUSH2 0x488F PUSH2 0x48A0 JUMP JUMPDEST SWAP1 POP PUSH2 0x489B DUP3 DUP3 PUSH2 0x4B0D JUMP JUMPDEST SWAP2 SWAP1 POP JUMP JUMPDEST PUSH1 0x0 PUSH1 0x40 MLOAD SWAP1 POP SWAP1 JUMP JUMPDEST PUSH1 0x0 PUSH8 0xFFFFFFFFFFFFFFFF DUP3 GT ISZERO PUSH2 0x48C5 JUMPI PUSH2 0x48C4 PUSH2 0x4C14 JUMP JUMPDEST JUMPDEST PUSH1 0x20 DUP3 MUL SWAP1 POP PUSH1 0x20 DUP2 ADD SWAP1 POP SWAP2 SWAP1 POP JUMP JUMPDEST PUSH1 0x0 DUP2 SWAP1 POP PUSH1 0x20 DUP3 ADD SWAP1 POP SWAP2 SWAP1 POP JUMP JUMPDEST PUSH1 0x0 DUP2 MLOAD SWAP1 POP SWAP2 SWAP1 POP JUMP JUMPDEST PUSH1 0x0 DUP2 MLOAD SWAP1 POP SWAP2 SWAP1 POP JUMP JUMPDEST PUSH1 0x0 PUSH1 0x20 DUP3 ADD SWAP1 POP SWAP2 SWAP1 POP JUMP JUMPDEST PUSH1 0x0 DUP3 DUP3 MSTORE PUSH1 0x20 DUP3 ADD SWAP1 POP SWAP3 SWAP2 POP POP JUMP JUMPDEST PUSH1 0x0 DUP2 SWAP1 POP SWAP3 SWAP2 POP POP JUMP JUMPDEST PUSH1 0x0 DUP3 DUP3 MSTORE PUSH1 0x20 DUP3 ADD SWAP1 POP SWAP3 SWAP2 POP POP JUMP JUMPDEST PUSH1 0x0 PUSH2 0x4941 DUP3 PUSH2 0x4A67 JUMP JUMPDEST SWAP2 POP PUSH2 0x494C DUP4 PUSH2 0x4A67 JUMP JUMPDEST SWAP3 POP DUP3 PUSH32 0xFFFFFFFFFFFFFFFFFFFFFFFFFFFFFFFFFFFFFFFFFFFFFFFFFFFFFFFFFFFFFFFF SUB DUP3 GT ISZERO PUSH2 0x4981 JUMPI PUSH2 0x4980 PUSH2 0x4B87 JUMP JUMPDEST JUMPDEST DUP3 DUP3 ADD SWAP1 POP SWAP3 SWAP2 POP POP JUMP JUMPDEST PUSH1 0x0 PUSH2 0x4997 DUP3 PUSH2 0x4A67 JUMP JUMPDEST SWAP2 POP PUSH2 0x49A2 DUP4 PUSH2 0x4A67 JUMP JUMPDEST SWAP3 POP DUP3 PUSH2 0x49B2 JUMPI PUSH2 0x49B1 PUSH2 0x4BB6 JUMP JUMPDEST JUMPDEST DUP3 DUP3 DIV SWAP1 POP SWAP3 SWAP2 POP POP JUMP JUMPDEST PUSH1 0x0 PUSH2 0x49C8 DUP3 PUSH2 0x4A67 JUMP JUMPDEST SWAP2 POP PUSH2 0x49D3 DUP4 PUSH2 0x4A67 JUMP JUMPDEST SWAP3 POP DUP3 DUP3 LT ISZERO PUSH2 0x49E6 JUMPI PUSH2 0x49E5 PUSH2 0x4B87 JUMP JUMPDEST JUMPDEST DUP3 DUP3 SUB SWAP1 POP SWAP3 SWAP2 POP POP JUMP JUMPDEST PUSH1 0x0 PUSH2 0x49FC DUP3 PUSH2 0x4A38 JUMP JUMPDEST SWAP1 POP SWAP2 SWAP1 POP JUMP JUMPDEST PUSH1 0x0 DUP2 ISZERO ISZERO SWAP1 POP SWAP2 SWAP1 POP JUMP JUMPDEST PUSH1 0x0 DUP2 PUSH1 0x2 SIGNEXTEND SWAP1 POP SWAP2 SWAP1 POP JUMP JUMPDEST PUSH1 0x0 PUSH16 0xFFFFFFFFFFFFFFFFFFFFFFFFFFFFFFFF DUP3 AND SWAP1 POP SWAP2 SWAP1 POP JUMP JUMPDEST PUSH1 0x0 PUSH20 0xFFFFFFFFFFFFFFFFFFFFFFFFFFFFFFFFFFFFFFFF DUP3 AND SWAP1 POP SWAP2 SWAP1 POP JUMP JUMPDEST PUSH1 0x0 PUSH3 0xFFFFFF DUP3 AND SWAP1 POP SWAP2 SWAP1 POP JUMP JUMPDEST PUSH1 0x0 DUP2 SWAP1 POP SWAP2 SWAP1 POP JUMP JUMPDEST PUSH1 0x0 PUSH2 0x4A7C DUP3 PUSH2 0x4AA7 JUMP JUMPDEST SWAP1 POP SWAP2 SWAP1 POP JUMP JUMPDEST PUSH1 0x0 PUSH2 0x4A8E DUP3 PUSH2 0x4AA7 JUMP JUMPDEST SWAP1 POP SWAP2 SWAP1 POP JUMP JUMPDEST PUSH1 0x0 PUSH2 0x4AA0 DUP3 PUSH2 0x4A67 JUMP JUMPDEST SWAP1 POP SWAP2 SWAP1 POP JUMP JUMPDEST PUSH1 0x0 PUSH2 0x4AB2 DUP3 PUSH2 0x4AB9 JUMP JUMPDEST SWAP1 POP SWAP2 SWAP1 POP JUMP JUMPDEST PUSH1 0x0 PUSH2 0x4AC4 DUP3 PUSH2 0x4A38 JUMP JUMPDEST SWAP1 POP SWAP2 SWAP1 POP JUMP JUMPDEST DUP3 DUP2 DUP4 CALLDATACOPY PUSH1 0x0 DUP4 DUP4 ADD MSTORE POP POP POP JUMP JUMPDEST PUSH1 0x0 JUMPDEST DUP4 DUP2 LT ISZERO PUSH2 0x4AF8 JUMPI DUP1 DUP3 ADD MLOAD DUP2 DUP5 ADD MSTORE PUSH1 0x20 DUP2 ADD SWAP1 POP PUSH2 0x4ADD JUMP JUMPDEST DUP4 DUP2 GT ISZERO PUSH2 0x4B07 JUMPI PUSH1 0x0 DUP5 DUP5 ADD MSTORE JUMPDEST POP POP POP POP JUMP JUMPDEST PUSH2 0x4B16 DUP3 PUSH2 0x4C66 JUMP JUMPDEST DUP2 ADD DUP2 DUP2 LT PUSH8 0xFFFFFFFFFFFFFFFF DUP3 GT OR ISZERO PUSH2 0x4B35 JUMPI PUSH2 0x4B34 PUSH2 0x4C14 JUMP JUMPDEST JUMPDEST DUP1 PUSH1 0x40 MSTORE POP POP POP JUMP JUMPDEST PUSH1 0x0 PUSH2 0x4B49 DUP3 PUSH2 0x4A67 JUMP JUMPDEST SWAP2 POP PUSH32 0xFFFFFFFFFFFFFFFFFFFFFFFFFFFFFFFFFFFFFFFFFFFFFFFFFFFFFFFFFFFFFFFF DUP3 EQ ISZERO PUSH2 0x4B7C JUMPI PUSH2 0x4B7B PUSH2 0x4B87 JUMP JUMPDEST JUMPDEST PUSH1 0x1 DUP3 ADD SWAP1 POP SWAP2 SWAP1 POP JUMP JUMPDEST PUSH32 0x4E487B7100000000000000000000000000000000000000000000000000000000 PUSH1 0x0 MSTORE PUSH1 0x11 PUSH1 0x4 MSTORE PUSH1 0x24 PUSH1 0x0 REVERT JUMPDEST PUSH32 0x4E487B7100000000000000000000000000000000000000000000000000000000 PUSH1 0x0 MSTORE PUSH1 0x12 PUSH1 0x4 MSTORE PUSH1 0x24 PUSH1 0x0 REVERT JUMPDEST PUSH32 0x4E487B7100000000000000000000000000000000000000000000000000000000 PUSH1 0x0 MSTORE PUSH1 0x32 PUSH1 0x4 MSTORE PUSH1 0x24 PUSH1 0x0 REVERT JUMPDEST PUSH32 0x4E487B7100000000000000000000000000000000000000000000000000000000 PUSH1 0x0 MSTORE PUSH1 0x41 PUSH1 0x4 MSTORE PUSH1 0x24 PUSH1 0x0 REVERT JUMPDEST PUSH1 0x0 DUP1 REVERT JUMPDEST PUSH1 0x0 DUP1 REVERT JUMPDEST PUSH1 0x0 DUP1 REVERT JUMPDEST PUSH1 0x0 DUP1 REVERT JUMPDEST PUSH1 0x0 DUP1 REVERT JUMPDEST PUSH1 0x0 DUP1 REVERT JUMPDEST PUSH1 0x0 DUP1 REVERT JUMPDEST PUSH1 0x0 PUSH1 0x1F NOT PUSH1 0x1F DUP4 ADD AND SWAP1 POP SWAP2 SWAP1 POP JUMP JUMPDEST PUSH32 0x5341000000000000000000000000000000000000000000000000000000000000 PUSH1 0x0 DUP3 ADD MSTORE POP JUMP JUMPDEST PUSH32 0x496E70757473206E6F74206D6174636821000000000000000000000000000000 PUSH1 0x0 DUP3 ADD MSTORE POP JUMP JUMPDEST PUSH32 0x4275726E204C5020746F6B656E206661696C6564210000000000000000000000 PUSH1 0x0 DUP3 ADD MSTORE POP JUMP JUMPDEST PUSH32 0x5354000000000000000000000000000000000000000000000000000000000000 PUSH1 0x0 DUP3 ADD MSTORE POP JUMP JUMPDEST PUSH32 0x4F766572207468652061737365747320796F75206F776E210000000000000000 PUSH1 0x0 DUP3 ADD MSTORE POP JUMP JUMPDEST PUSH32 0x43616E6E6F7420626520747261646564207468726F756768207468697320636F PUSH1 0x0 DUP3 ADD MSTORE PUSH32 0x6E64756974210000000000000000000000000000000000000000000000000000 PUSH1 0x20 DUP3 ADD MSTORE POP JUMP JUMPDEST PUSH32 0x5354460000000000000000000000000000000000000000000000000000000000 PUSH1 0x0 DUP3 ADD MSTORE POP JUMP JUMPDEST PUSH2 0x4DC5 DUP2 PUSH2 0x49F1 JUMP JUMPDEST DUP2 EQ PUSH2 0x4DD0 JUMPI PUSH1 0x0 DUP1 REVERT JUMPDEST POP JUMP JUMPDEST PUSH2 0x4DDC DUP2 PUSH2 0x4A03 JUMP JUMPDEST DUP2 EQ PUSH2 0x4DE7 JUMPI PUSH1 0x0 DUP1 REVERT JUMPDEST POP JUMP JUMPDEST PUSH2 0x4DF3 DUP2 PUSH2 0x4A0F JUMP JUMPDEST DUP2 EQ PUSH2 0x4DFE JUMPI PUSH1 0x0 DUP1 REVERT JUMPDEST POP JUMP JUMPDEST PUSH2 0x4E0A DUP2 PUSH2 0x4A1C JUMP JUMPDEST DUP2 EQ PUSH2 0x4E15 JUMPI PUSH1 0x0 DUP1 REVERT JUMPDEST POP JUMP JUMPDEST PUSH2 0x4E21 DUP2 PUSH2 0x4A38 JUMP JUMPDEST DUP2 EQ PUSH2 0x4E2C JUMPI PUSH1 0x0 DUP1 REVERT JUMPDEST POP JUMP JUMPDEST PUSH2 0x4E38 DUP2 PUSH2 0x4A58 JUMP JUMPDEST DUP2 EQ PUSH2 0x4E43 JUMPI PUSH1 0x0 DUP1 REVERT JUMPDEST POP JUMP JUMPDEST PUSH2 0x4E4F DUP2 PUSH2 0x4A67 JUMP JUMPDEST DUP2 EQ PUSH2 0x4E5A JUMPI PUSH1 0x0 DUP1 REVERT JUMPDEST POP JUMP INVALID LOG2 PUSH5 0x6970667358 0x22 SLT KECCAK256 SHR ISZERO 0xC4 0xD0 0xCC 0x24 0xD3 SUB 0xB7 DUP3 0xB4 0xD9 SWAP8 0xBC 0xBD 0xAD MLOAD 0xC0 DIV LOG0 0xD 0xEA 0xCF PUSH3 0xB4731E CALL 0x27 0xAB LOG2 0xFC PUSH5 0x736F6C6343 STOP ADDMOD SMOD STOP CALLER "
		},
		"gasEstimates": {
			"creation": {
				"codeDepositCost": "4023000",
				"executionCost": "infinite",
				"totalCost": "infinite"
			},
			"external": {
				"burn(uint256)": "infinite",
				"buyERC1155(address,uint256[],address[],uint256[],uint256[],uint24[])": "infinite",
				"buyERC721(uint256[],uint256,address,address,uint24)": "infinite",
				"buyERC721Conduit(uint256[],uint256,address,address)": "infinite",
				"createAndInitializePoolIfNecessary(address,address,uint256,uint24,uint160)": "infinite",
				"decreaseLiquidity(address,uint256,uint128,uint256[])": "infinite",
				"increaseLiquidityFromFractions(uint256,uint256,uint256)": "infinite",
				"increaseLiquidityFromNFTs(address,uint256,uint256[],uint256,uint256,uint256)": "infinite",
				"midasVault()": "2645",
				"mintFromERC721Fractions(address,address,(address,address,uint24,int24,int24,uint256,uint256,uint256,uint256,address,uint256))": "infinite",
				"mintFromNFTs(address,address,address,uint256[],uint256,uint256,(address,address,uint24,int24,int24,uint256,uint256,uint256,uint256,address,uint256))": "infinite",
				"sellERC1155(uint256[],address,address[],uint24[],uint256[])": "infinite",
				"sellERC721(uint256[],address,address,uint24)": "infinite",
				"swapRouter()": "infinite"
			},
			"internal": {
				"_getPrice(uint256)": "infinite",
				"_swapExactInputSingle(uint256,address,address,uint24)": "infinite",
				"_swapExactOutputSingle(uint256,uint256,address,address,uint24)": "infinite"
			}
		},
		"methodIdentifiers": {
			"burn(uint256)": "42966c68",
			"buyERC1155(address,uint256[],address[],uint256[],uint256[],uint24[])": "3b4a2b22",
			"buyERC721(uint256[],uint256,address,address,uint24)": "058d0fa0",
			"buyERC721Conduit(uint256[],uint256,address,address)": "d7b63056",
			"createAndInitializePoolIfNecessary(address,address,uint256,uint24,uint160)": "d6ee8c8f",
			"decreaseLiquidity(address,uint256,uint128,uint256[])": "b4840ad9",
			"increaseLiquidityFromFractions(uint256,uint256,uint256)": "6548ed46",
			"increaseLiquidityFromNFTs(address,uint256,uint256[],uint256,uint256,uint256)": "c584dd17",
			"midasVault()": "3dd9aeaf",
			"mintFromERC721Fractions(address,address,(address,address,uint24,int24,int24,uint256,uint256,uint256,uint256,address,uint256))": "c73537c1",
			"mintFromNFTs(address,address,address,uint256[],uint256,uint256,(address,address,uint24,int24,int24,uint256,uint256,uint256,uint256,address,uint256))": "0b149afa",
			"sellERC1155(uint256[],address,address[],uint24[],uint256[])": "3d3225c4",
			"sellERC721(uint256[],address,address,uint24)": "78e79c82",
			"swapRouter()": "c31c9c07"
		}
	},
	"abi": [
		{
			"inputs": [
				{
					"internalType": "address",
					"name": "_custodyPositionManager",
					"type": "address"
				},
				{
					"internalType": "address",
					"name": "_midasVault",
					"type": "address"
				},
				{
					"internalType": "contract ISwapRouter",
					"name": "_swapRouter",
					"type": "address"
				}
			],
			"stateMutability": "nonpayable",
			"type": "constructor"
		},
		{
			"inputs": [
				{
					"internalType": "uint256",
					"name": "lpTokenId",
					"type": "uint256"
				}
			],
			"name": "burn",
			"outputs": [],
			"stateMutability": "nonpayable",
			"type": "function"
		},
		{
			"inputs": [
				{
					"internalType": "address",
					"name": "nftAddress",
					"type": "address"
				},
				{
					"internalType": "uint256[]",
					"name": "amountInMaximum",
					"type": "uint256[]"
				},
				{
					"internalType": "address[]",
					"name": "ftAddress",
					"type": "address[]"
				},
				{
					"internalType": "uint256[]",
					"name": "id",
					"type": "uint256[]"
				},
				{
					"internalType": "uint256[]",
					"name": "amountOut",
					"type": "uint256[]"
				},
				{
					"internalType": "uint24[]",
					"name": "poolFee",
					"type": "uint24[]"
				}
			],
			"name": "buyERC1155",
			"outputs": [
				{
					"internalType": "uint256[]",
					"name": "amountIn",
					"type": "uint256[]"
				}
			],
			"stateMutability": "nonpayable",
			"type": "function"
		},
		{
			"inputs": [
				{
					"internalType": "uint256[]",
					"name": "tokenId",
					"type": "uint256[]"
				},
				{
					"internalType": "uint256",
					"name": "amountInMaximum",
					"type": "uint256"
				},
				{
					"internalType": "address",
					"name": "nftAddress",
					"type": "address"
				},
				{
					"internalType": "address",
					"name": "ftAddress",
					"type": "address"
				},
				{
					"internalType": "uint24",
					"name": "poolFee",
					"type": "uint24"
				}
			],
			"name": "buyERC721",
			"outputs": [
				{
					"internalType": "uint256",
					"name": "amountIn",
					"type": "uint256"
				}
			],
			"stateMutability": "nonpayable",
			"type": "function"
		},
		{
			"inputs": [
				{
					"internalType": "uint256[]",
					"name": "tokenId",
					"type": "uint256[]"
				},
				{
					"internalType": "uint256",
					"name": "amountInMaxium",
					"type": "uint256"
				},
				{
					"internalType": "address",
					"name": "nftAddress",
					"type": "address"
				},
				{
					"internalType": "address",
					"name": "ftAddress",
					"type": "address"
				}
			],
			"name": "buyERC721Conduit",
			"outputs": [
				{
					"internalType": "uint256",
					"name": "amountIn",
					"type": "uint256"
				}
			],
			"stateMutability": "nonpayable",
			"type": "function"
		},
		{
			"inputs": [
				{
					"internalType": "address",
					"name": "nftAddress",
					"type": "address"
				},
				{
					"internalType": "address",
					"name": "ftAddress",
					"type": "address"
				},
				{
					"internalType": "uint256",
					"name": "id",
					"type": "uint256"
				},
				{
					"internalType": "uint24",
					"name": "poolFee",
					"type": "uint24"
				},
				{
					"internalType": "uint160",
					"name": "sqrtPriceX96",
					"type": "uint160"
				}
			],
			"name": "createAndInitializePoolIfNecessary",
			"outputs": [
				{
					"internalType": "address",
					"name": "poolAddress",
					"type": "address"
				}
			],
			"stateMutability": "nonpayable",
			"type": "function"
		},
		{
			"inputs": [
				{
					"internalType": "address",
					"name": "nftAddress",
					"type": "address"
				},
				{
					"internalType": "uint256",
					"name": "lpTokenId",
					"type": "uint256"
				},
				{
					"internalType": "uint128",
					"name": "subLiquidity",
					"type": "uint128"
				},
				{
					"internalType": "uint256[]",
					"name": "tokenId",
					"type": "uint256[]"
				}
			],
			"name": "decreaseLiquidity",
			"outputs": [
				{
					"internalType": "uint128",
					"name": "remainLiquidity",
					"type": "uint128"
				},
				{
					"internalType": "uint256",
					"name": "amount0",
					"type": "uint256"
				},
				{
					"internalType": "uint256",
					"name": "amount1",
					"type": "uint256"
				}
			],
			"stateMutability": "nonpayable",
			"type": "function"
		},
		{
			"inputs": [
				{
					"internalType": "uint256",
					"name": "amountAdd0",
					"type": "uint256"
				},
				{
					"internalType": "uint256",
					"name": "amountAdd1",
					"type": "uint256"
				},
				{
					"internalType": "uint256",
					"name": "lpTokenId",
					"type": "uint256"
				}
			],
			"name": "increaseLiquidityFromFractions",
			"outputs": [
				{
					"internalType": "uint128",
					"name": "liquidity",
					"type": "uint128"
				},
				{
					"internalType": "uint256",
					"name": "amount0",
					"type": "uint256"
				},
				{
					"internalType": "uint256",
					"name": "amount1",
					"type": "uint256"
				}
			],
			"stateMutability": "nonpayable",
			"type": "function"
		},
		{
			"inputs": [
				{
					"internalType": "address",
					"name": "nftAddress",
					"type": "address"
				},
				{
					"internalType": "uint256",
					"name": "lpTokenId",
					"type": "uint256"
				},
				{
					"internalType": "uint256[]",
					"name": "tokenId",
					"type": "uint256[]"
				},
				{
					"internalType": "uint256",
					"name": "id",
					"type": "uint256"
				},
				{
					"internalType": "uint256",
					"name": "amountAdd0",
					"type": "uint256"
				},
				{
					"internalType": "uint256",
					"name": "amountAdd1",
					"type": "uint256"
				}
			],
			"name": "increaseLiquidityFromNFTs",
			"outputs": [
				{
					"internalType": "uint128",
					"name": "liquidity",
					"type": "uint128"
				},
				{
					"internalType": "uint256",
					"name": "amount0",
					"type": "uint256"
				},
				{
					"internalType": "uint256",
					"name": "amount1",
					"type": "uint256"
				}
			],
			"stateMutability": "nonpayable",
			"type": "function"
		},
		{
			"inputs": [],
			"name": "midasVault",
			"outputs": [
				{
					"internalType": "contract MidasVault",
					"name": "",
					"type": "address"
				}
			],
			"stateMutability": "view",
			"type": "function"
		},
		{
			"inputs": [
				{
					"internalType": "address",
					"name": "fractionAddress",
					"type": "address"
				},
				{
					"internalType": "address",
					"name": "ftAddress",
					"type": "address"
				},
				{
					"components": [
						{
							"internalType": "address",
							"name": "token0",
							"type": "address"
						},
						{
							"internalType": "address",
							"name": "token1",
							"type": "address"
						},
						{
							"internalType": "uint24",
							"name": "fee",
							"type": "uint24"
						},
						{
							"internalType": "int24",
							"name": "tickLower",
							"type": "int24"
						},
						{
							"internalType": "int24",
							"name": "tickUpper",
							"type": "int24"
						},
						{
							"internalType": "uint256",
							"name": "amount0Desired",
							"type": "uint256"
						},
						{
							"internalType": "uint256",
							"name": "amount1Desired",
							"type": "uint256"
						},
						{
							"internalType": "uint256",
							"name": "amount0Min",
							"type": "uint256"
						},
						{
							"internalType": "uint256",
							"name": "amount1Min",
							"type": "uint256"
						},
						{
							"internalType": "address",
							"name": "recipient",
							"type": "address"
						},
						{
							"internalType": "uint256",
							"name": "deadline",
							"type": "uint256"
						}
					],
					"internalType": "struct ICustodyPositionManager.MintParams",
					"name": "params",
					"type": "tuple"
				}
			],
			"name": "mintFromERC721Fractions",
			"outputs": [
				{
					"internalType": "uint256",
					"name": "lpTokenId",
					"type": "uint256"
				},
				{
					"internalType": "uint128",
					"name": "liquidity",
					"type": "uint128"
				},
				{
					"internalType": "uint256",
					"name": "amount0",
					"type": "uint256"
				},
				{
					"internalType": "uint256",
					"name": "amount1",
					"type": "uint256"
				}
			],
			"stateMutability": "nonpayable",
			"type": "function"
		},
		{
			"inputs": [
				{
					"internalType": "address",
					"name": "nftAddress",
					"type": "address"
				},
				{
					"internalType": "address",
					"name": "ftAddress",
					"type": "address"
				},
				{
					"internalType": "address",
					"name": "poolAddress",
					"type": "address"
				},
				{
					"internalType": "uint256[]",
					"name": "tokenId",
					"type": "uint256[]"
				},
				{
					"internalType": "uint256",
					"name": "id",
					"type": "uint256"
				},
				{
					"internalType": "uint256",
					"name": "amount",
					"type": "uint256"
				},
				{
					"components": [
						{
							"internalType": "address",
							"name": "token0",
							"type": "address"
						},
						{
							"internalType": "address",
							"name": "token1",
							"type": "address"
						},
						{
							"internalType": "uint24",
							"name": "fee",
							"type": "uint24"
						},
						{
							"internalType": "int24",
							"name": "tickLower",
							"type": "int24"
						},
						{
							"internalType": "int24",
							"name": "tickUpper",
							"type": "int24"
						},
						{
							"internalType": "uint256",
							"name": "amount0Desired",
							"type": "uint256"
						},
						{
							"internalType": "uint256",
							"name": "amount1Desired",
							"type": "uint256"
						},
						{
							"internalType": "uint256",
							"name": "amount0Min",
							"type": "uint256"
						},
						{
							"internalType": "uint256",
							"name": "amount1Min",
							"type": "uint256"
						},
						{
							"internalType": "address",
							"name": "recipient",
							"type": "address"
						},
						{
							"internalType": "uint256",
							"name": "deadline",
							"type": "uint256"
						}
					],
					"internalType": "struct ICustodyPositionManager.MintParams",
					"name": "params",
					"type": "tuple"
				}
			],
			"name": "mintFromNFTs",
			"outputs": [
				{
					"internalType": "uint256",
					"name": "lpTokenId",
					"type": "uint256"
				},
				{
					"internalType": "uint128",
					"name": "liquidity",
					"type": "uint128"
				},
				{
					"internalType": "uint256",
					"name": "amount0",
					"type": "uint256"
				},
				{
					"internalType": "uint256",
					"name": "amount1",
					"type": "uint256"
				}
			],
			"stateMutability": "nonpayable",
			"type": "function"
		},
		{
			"inputs": [
				{
					"internalType": "uint256[]",
					"name": "id",
					"type": "uint256[]"
				},
				{
					"internalType": "address",
					"name": "nftAddress",
					"type": "address"
				},
				{
					"internalType": "address[]",
					"name": "ftAddress",
					"type": "address[]"
				},
				{
					"internalType": "uint24[]",
					"name": "poolFee",
					"type": "uint24[]"
				},
				{
					"internalType": "uint256[]",
					"name": "amountIn",
					"type": "uint256[]"
				}
			],
			"name": "sellERC1155",
			"outputs": [
				{
					"internalType": "uint256[]",
					"name": "amountOut",
					"type": "uint256[]"
				}
			],
			"stateMutability": "nonpayable",
			"type": "function"
		},
		{
			"inputs": [
				{
					"internalType": "uint256[]",
					"name": "tokenId",
					"type": "uint256[]"
				},
				{
					"internalType": "address",
					"name": "nftAddress",
					"type": "address"
				},
				{
					"internalType": "address",
					"name": "ftAddress",
					"type": "address"
				},
				{
					"internalType": "uint24",
					"name": "poolFee",
					"type": "uint24"
				}
			],
			"name": "sellERC721",
			"outputs": [
				{
					"internalType": "uint256",
					"name": "amountOut",
					"type": "uint256"
				}
			],
			"stateMutability": "nonpayable",
			"type": "function"
		},
		{
			"inputs": [],
			"name": "swapRouter",
			"outputs": [
				{
					"internalType": "contract ISwapRouter",
					"name": "",
					"type": "address"
				}
			],
			"stateMutability": "view",
			"type": "function"
		}
	]
}